{
	"contracts/MyContract.sol": {
		"MyContract": {
			"abi": [
				{
					"inputs": [],
					"stateMutability": "nonpayable",
					"type": "constructor"
				},
				{
					"inputs": [
						{
							"internalType": "uint256",
							"name": "_id",
							"type": "uint256"
						},
						{
							"internalType": "string",
							"name": "_title",
							"type": "string"
						},
						{
							"internalType": "string",
							"name": "_author",
							"type": "string"
						}
					],
					"name": "addBook",
					"outputs": [],
					"stateMutability": "nonpayable",
					"type": "function"
				},
				{
					"inputs": [
						{
							"internalType": "uint256",
							"name": "_id",
							"type": "uint256"
						},
						{
							"internalType": "string",
							"name": "_title",
							"type": "string"
						},
						{
							"internalType": "string",
							"name": "_author",
							"type": "string"
						}
					],
					"name": "addMyBook",
					"outputs": [],
					"stateMutability": "nonpayable",
					"type": "function"
				},
				{
					"inputs": [
						{
							"internalType": "string",
							"name": "_value",
							"type": "string"
						}
					],
					"name": "addValue",
					"outputs": [],
					"stateMutability": "nonpayable",
					"type": "function"
				},
				{
					"inputs": [
						{
							"internalType": "uint256",
							"name": "",
							"type": "uint256"
						},
						{
							"internalType": "uint256",
							"name": "",
							"type": "uint256"
						}
					],
					"name": "array2D",
					"outputs": [
						{
							"internalType": "uint256",
							"name": "",
							"type": "uint256"
						}
					],
					"stateMutability": "view",
					"type": "function"
				},
				{
					"inputs": [
						{
							"internalType": "uint256",
							"name": "",
							"type": "uint256"
						}
					],
					"name": "books",
					"outputs": [
						{
							"internalType": "string",
							"name": "title",
							"type": "string"
						},
						{
							"internalType": "string",
							"name": "author",
							"type": "string"
						}
					],
					"stateMutability": "view",
					"type": "function"
				},
				{
					"inputs": [],
					"name": "countEventNumbers",
					"outputs": [
						{
							"internalType": "uint256",
							"name": "",
							"type": "uint256"
						}
					],
					"stateMutability": "view",
					"type": "function"
				},
				{
					"inputs": [],
					"name": "getValue",
					"outputs": [
						{
							"internalType": "uint256",
							"name": "",
							"type": "uint256"
						}
					],
					"stateMutability": "pure",
					"type": "function"
				},
				{
					"inputs": [
						{
							"internalType": "uint256",
							"name": "_number",
							"type": "uint256"
						}
					],
					"name": "isEvenNumber",
					"outputs": [
						{
							"internalType": "bool",
							"name": "",
							"type": "bool"
						}
					],
					"stateMutability": "pure",
					"type": "function"
				},
				{
					"inputs": [],
					"name": "isOwner",
					"outputs": [
						{
							"internalType": "bool",
							"name": "",
							"type": "bool"
						}
					],
					"stateMutability": "view",
					"type": "function"
				},
				{
					"inputs": [],
					"name": "myAddress",
					"outputs": [
						{
							"internalType": "address",
							"name": "",
							"type": "address"
						}
					],
					"stateMutability": "view",
					"type": "function"
				},
				{
					"inputs": [
						{
							"internalType": "address",
							"name": "",
							"type": "address"
						},
						{
							"internalType": "uint256",
							"name": "",
							"type": "uint256"
						}
					],
					"name": "myBooks",
					"outputs": [
						{
							"internalType": "string",
							"name": "title",
							"type": "string"
						},
						{
							"internalType": "string",
							"name": "author",
							"type": "string"
						}
					],
					"stateMutability": "view",
					"type": "function"
				},
				{
					"inputs": [],
					"name": "myBytes32",
					"outputs": [
						{
							"internalType": "bytes32",
							"name": "",
							"type": "bytes32"
						}
					],
					"stateMutability": "view",
					"type": "function"
				},
				{
					"inputs": [],
					"name": "myString",
					"outputs": [
						{
							"internalType": "string",
							"name": "",
							"type": "string"
						}
					],
					"stateMutability": "view",
					"type": "function"
				},
				{
					"inputs": [],
					"name": "myStruct",
					"outputs": [
						{
							"internalType": "uint256",
							"name": "myUint256",
							"type": "uint256"
						},
						{
							"internalType": "string",
							"name": "myString",
							"type": "string"
						}
					],
					"stateMutability": "view",
					"type": "function"
				},
				{
					"inputs": [],
					"name": "myUint",
					"outputs": [
						{
							"internalType": "uint256",
							"name": "",
							"type": "uint256"
						}
					],
					"stateMutability": "view",
					"type": "function"
				},
				{
					"inputs": [],
					"name": "myUint256",
					"outputs": [
						{
							"internalType": "uint256",
							"name": "",
							"type": "uint256"
						}
					],
					"stateMutability": "view",
					"type": "function"
				},
				{
					"inputs": [
						{
							"internalType": "uint256",
							"name": "",
							"type": "uint256"
						}
					],
					"name": "names",
					"outputs": [
						{
							"internalType": "string",
							"name": "",
							"type": "string"
						}
					],
					"stateMutability": "view",
					"type": "function"
				},
				{
					"inputs": [
						{
							"internalType": "uint256",
							"name": "",
							"type": "uint256"
						}
					],
					"name": "numbers",
					"outputs": [
						{
							"internalType": "uint256",
							"name": "",
							"type": "uint256"
						}
					],
					"stateMutability": "view",
					"type": "function"
				},
				{
					"inputs": [],
					"name": "owner",
					"outputs": [
						{
							"internalType": "address",
							"name": "",
							"type": "address"
						}
					],
					"stateMutability": "view",
					"type": "function"
				},
				{
					"inputs": [
						{
							"internalType": "uint256",
							"name": "",
							"type": "uint256"
						}
					],
					"name": "stringArray",
					"outputs": [
						{
							"internalType": "string",
							"name": "",
							"type": "string"
						}
					],
					"stateMutability": "view",
					"type": "function"
				},
				{
					"inputs": [
						{
							"internalType": "uint256",
							"name": "",
							"type": "uint256"
						}
					],
					"name": "uintArray",
					"outputs": [
						{
							"internalType": "uint256",
							"name": "",
							"type": "uint256"
						}
					],
					"stateMutability": "view",
					"type": "function"
				},
				{
					"inputs": [],
					"name": "valueCount",
					"outputs": [
						{
							"internalType": "uint256",
							"name": "",
							"type": "uint256"
						}
					],
					"stateMutability": "view",
					"type": "function"
				},
				{
					"inputs": [
						{
							"internalType": "uint256",
							"name": "",
							"type": "uint256"
						}
					],
					"name": "values",
					"outputs": [
						{
							"internalType": "string",
							"name": "",
							"type": "string"
						}
					],
					"stateMutability": "view",
					"type": "function"
				}
			],
			"devdoc": {
				"kind": "dev",
				"methods": {},
				"version": 1
			},
			"evm": {
				"assembly": "    /* \"contracts/MyContract.sol\":57:2369  contract MyContract {... */\n  mstore(0x40, 0x80)\n    /* \"contracts/MyContract.sol\":122:123  1 */\n  0x01\n    /* \"contracts/MyContract.sol\":101:123  uint public myUint = 1 */\n  0x00\n  sstore\n    /* \"contracts/MyContract.sol\":157:158  1 */\n  0x01\n    /* \"contracts/MyContract.sol\":129:158  uint256 public myUint256  = 1 */\n  dup1\n  sstore\n    /* \"contracts/MyContract.sol\":165:204  string public myString = \"Hello World!\" */\n  mload(0x40)\n  dup1\n  0x40\n  add\n  0x40\n  mstore\n  dup1\n  0x0c\n  dup2\n  mstore\n  0x20\n  add\n  0x48656c6c6f20576f726c64210000000000000000000000000000000000000000\n  dup2\n  mstore\n  pop\n  0x02\n  swap1\n  dup2\n  tag_1\n  swap2\n  swap1\n  tag_2\n  jump\t// in\ntag_1:\n  pop\n    /* \"contracts/MyContract.sol\":210:250  bytes32 public myBytes32 = \"hello world\" */\n  sstore(0x03, 0x68656c6c6f20776f726c64000000000000000000000000000000000000000000)\n    /* \"contracts/MyContract.sol\":284:326  0x958022786C530a428be5407E05345A8675CAfCB6 */\n  0x958022786c530a428be5407e05345a8675cafcb6\n    /* \"contracts/MyContract.sol\":257:326  address public myAddress = 0x958022786C530a428be5407E05345A8675CAfCB6 */\n  0x04\n  exp(0x0100, 0x00)\n  dup2\n  sload\n  dup2\n  0xffffffffffffffffffffffffffffffffffffffff\n  mul\n  not\n  and\n  swap1\n  dup4\n  0xffffffffffffffffffffffffffffffffffffffff\n  and\n  mul\n  or\n  swap1\n  sstore\n  pop\n    /* \"contracts/MyContract.sol\":428:461  uint[] public uintArray = [1,2,3] */\n  mload(0x40)\n  dup1\n  0x60\n  add\n  0x40\n  mstore\n  dup1\n    /* \"contracts/MyContract.sol\":455:456  1 */\n  0x01\n    /* \"contracts/MyContract.sol\":428:461  uint[] public uintArray = [1,2,3] */\n  0xff\n  and\n  dup2\n  mstore\n  0x20\n  add\n    /* \"contracts/MyContract.sol\":457:458  2 */\n  0x02\n    /* \"contracts/MyContract.sol\":428:461  uint[] public uintArray = [1,2,3] */\n  0xff\n  and\n  dup2\n  mstore\n  0x20\n  add\n    /* \"contracts/MyContract.sol\":459:460  3 */\n  0x03\n    /* \"contracts/MyContract.sol\":428:461  uint[] public uintArray = [1,2,3] */\n  0xff\n  and\n  dup2\n  mstore\n  pop\n  0x05\n  swap1\n  0x03\n  tag_3\n  swap3\n  swap2\n  swap1\n  tag_4\n  jump\t// in\ntag_3:\n  pop\n    /* \"contracts/MyContract.sol\":467:527  string[] public stringArray = [\"apple\", \"orange\", \"bananna\"] */\n  mload(0x40)\n  dup1\n  0x60\n  add\n  0x40\n  mstore\n  dup1\n  mload(0x40)\n  dup1\n  0x40\n  add\n  0x40\n  mstore\n  dup1\n  0x05\n  dup2\n  mstore\n  0x20\n  add\n  0x6170706c65000000000000000000000000000000000000000000000000000000\n  dup2\n  mstore\n  pop\n  dup2\n  mstore\n  0x20\n  add\n  mload(0x40)\n  dup1\n  0x40\n  add\n  0x40\n  mstore\n  dup1\n  0x06\n  dup2\n  mstore\n  0x20\n  add\n  0x6f72616e67650000000000000000000000000000000000000000000000000000\n  dup2\n  mstore\n  pop\n  dup2\n  mstore\n  0x20\n  add\n  mload(0x40)\n  dup1\n  0x40\n  add\n  0x40\n  mstore\n  dup1\n  0x07\n  dup2\n  mstore\n  0x20\n  add\n  0x62616e616e6e6100000000000000000000000000000000000000000000000000\n  dup2\n  mstore\n  pop\n  dup2\n  mstore\n  pop\n  0x06\n  swap1\n  0x03\n  tag_5\n  swap3\n  swap2\n  swap1\n  tag_6\n  jump\t// in\ntag_5:\n  pop\n    /* \"contracts/MyContract.sol\":561:608  uint256[][] public array2D = [[1,2,3], [4,5,6]] */\n  mload(0x40)\n  dup1\n  0x40\n  add\n  0x40\n  mstore\n  dup1\n  mload(0x40)\n  dup1\n  0x60\n  add\n  0x40\n  mstore\n  dup1\n    /* \"contracts/MyContract.sol\":592:593  1 */\n  0x01\n    /* \"contracts/MyContract.sol\":561:608  uint256[][] public array2D = [[1,2,3], [4,5,6]] */\n  0xff\n  and\n  dup2\n  mstore\n  0x20\n  add\n    /* \"contracts/MyContract.sol\":594:595  2 */\n  0x02\n    /* \"contracts/MyContract.sol\":561:608  uint256[][] public array2D = [[1,2,3], [4,5,6]] */\n  0xff\n  and\n  dup2\n  mstore\n  0x20\n  add\n    /* \"contracts/MyContract.sol\":596:597  3 */\n  0x03\n    /* \"contracts/MyContract.sol\":561:608  uint256[][] public array2D = [[1,2,3], [4,5,6]] */\n  0xff\n  and\n  dup2\n  mstore\n  pop\n  dup2\n  mstore\n  0x20\n  add\n  mload(0x40)\n  dup1\n  0x60\n  add\n  0x40\n  mstore\n  dup1\n    /* \"contracts/MyContract.sol\":601:602  4 */\n  0x04\n    /* \"contracts/MyContract.sol\":561:608  uint256[][] public array2D = [[1,2,3], [4,5,6]] */\n  0xff\n  and\n  dup2\n  mstore\n  0x20\n  add\n    /* \"contracts/MyContract.sol\":603:604  5 */\n  0x05\n    /* \"contracts/MyContract.sol\":561:608  uint256[][] public array2D = [[1,2,3], [4,5,6]] */\n  0xff\n  and\n  dup2\n  mstore\n  0x20\n  add\n    /* \"contracts/MyContract.sol\":605:606  6 */\n  0x06\n    /* \"contracts/MyContract.sol\":561:608  uint256[][] public array2D = [[1,2,3], [4,5,6]] */\n  0xff\n  and\n  dup2\n  mstore\n  pop\n  dup2\n  mstore\n  pop\n  0x08\n  swap1\n  0x02\n  tag_7\n  swap3\n  swap2\n  swap1\n  tag_8\n  jump\t// in\ntag_7:\n  pop\n    /* \"contracts/MyContract.sol\":1587:1614  MyStruct(1, \"Hello world!\") */\n  mload(0x40)\n  dup1\n  0x40\n  add\n  0x40\n  mstore\n  dup1\n    /* \"contracts/MyContract.sol\":1596:1597  1 */\n  0x01\n    /* \"contracts/MyContract.sol\":1587:1614  MyStruct(1, \"Hello world!\") */\n  dup2\n  mstore\n  0x20\n  add\n  mload(0x40)\n  dup1\n  0x40\n  add\n  0x40\n  mstore\n  dup1\n  0x0c\n  dup2\n  mstore\n  0x20\n  add\n  0x48656c6c6f20776f726c64210000000000000000000000000000000000000000\n  dup2\n  mstore\n  pop\n  dup2\n  mstore\n  pop\n    /* \"contracts/MyContract.sol\":1560:1614  MyStruct public myStruct = MyStruct(1, \"Hello world!\") */\n  0x0d\n  0x00\n  dup3\n  add\n  mload\n  dup2\n  0x00\n  add\n  sstore\n  0x20\n  dup3\n  add\n  mload\n  dup2\n  0x01\n  add\n  swap1\n  dup2\n  tag_9\n  swap2\n  swap1\n  tag_2\n  jump\t// in\ntag_9:\n  pop\n  pop\n  pop\n    /* \"contracts/MyContract.sol\":1774:1829  uint[] public numbers = [1, 2, 3, 4, 5, 6, 7, 8, 9, 10] */\n  mload(0x40)\n  dup1\n  0x0140\n  add\n  0x40\n  mstore\n  dup1\n    /* \"contracts/MyContract.sol\":1799:1800  1 */\n  0x01\n    /* \"contracts/MyContract.sol\":1774:1829  uint[] public numbers = [1, 2, 3, 4, 5, 6, 7, 8, 9, 10] */\n  0xff\n  and\n  dup2\n  mstore\n  0x20\n  add\n    /* \"contracts/MyContract.sol\":1802:1803  2 */\n  0x02\n    /* \"contracts/MyContract.sol\":1774:1829  uint[] public numbers = [1, 2, 3, 4, 5, 6, 7, 8, 9, 10] */\n  0xff\n  and\n  dup2\n  mstore\n  0x20\n  add\n    /* \"contracts/MyContract.sol\":1805:1806  3 */\n  0x03\n    /* \"contracts/MyContract.sol\":1774:1829  uint[] public numbers = [1, 2, 3, 4, 5, 6, 7, 8, 9, 10] */\n  0xff\n  and\n  dup2\n  mstore\n  0x20\n  add\n    /* \"contracts/MyContract.sol\":1808:1809  4 */\n  0x04\n    /* \"contracts/MyContract.sol\":1774:1829  uint[] public numbers = [1, 2, 3, 4, 5, 6, 7, 8, 9, 10] */\n  0xff\n  and\n  dup2\n  mstore\n  0x20\n  add\n    /* \"contracts/MyContract.sol\":1811:1812  5 */\n  0x05\n    /* \"contracts/MyContract.sol\":1774:1829  uint[] public numbers = [1, 2, 3, 4, 5, 6, 7, 8, 9, 10] */\n  0xff\n  and\n  dup2\n  mstore\n  0x20\n  add\n    /* \"contracts/MyContract.sol\":1814:1815  6 */\n  0x06\n    /* \"contracts/MyContract.sol\":1774:1829  uint[] public numbers = [1, 2, 3, 4, 5, 6, 7, 8, 9, 10] */\n  0xff\n  and\n  dup2\n  mstore\n  0x20\n  add\n    /* \"contracts/MyContract.sol\":1817:1818  7 */\n  0x07\n    /* \"contracts/MyContract.sol\":1774:1829  uint[] public numbers = [1, 2, 3, 4, 5, 6, 7, 8, 9, 10] */\n  0xff\n  and\n  dup2\n  mstore\n  0x20\n  add\n    /* \"contracts/MyContract.sol\":1820:1821  8 */\n  0x08\n    /* \"contracts/MyContract.sol\":1774:1829  uint[] public numbers = [1, 2, 3, 4, 5, 6, 7, 8, 9, 10] */\n  0xff\n  and\n  dup2\n  mstore\n  0x20\n  add\n    /* \"contracts/MyContract.sol\":1823:1824  9 */\n  0x09\n    /* \"contracts/MyContract.sol\":1774:1829  uint[] public numbers = [1, 2, 3, 4, 5, 6, 7, 8, 9, 10] */\n  0xff\n  and\n  dup2\n  mstore\n  0x20\n  add\n    /* \"contracts/MyContract.sol\":1826:1828  10 */\n  0x0a\n    /* \"contracts/MyContract.sol\":1774:1829  uint[] public numbers = [1, 2, 3, 4, 5, 6, 7, 8, 9, 10] */\n  0xff\n  and\n  dup2\n  mstore\n  pop\n  0x0f\n  swap1\n  0x0a\n  tag_10\n  swap3\n  swap2\n  swap1\n  tag_11\n  jump\t// in\ntag_10:\n  pop\n    /* \"contracts/MyContract.sol\":1074:1206  constructor() {... */\n  callvalue\n  dup1\n  iszero\n  tag_12\n  jumpi\n  0x00\n  dup1\n  revert\ntag_12:\n  pop\n    /* \"contracts/MyContract.sol\":1098:1114  names[1] = \"Lou\" */\n  mload(0x40)\n  dup1\n  0x40\n  add\n  0x40\n  mstore\n  dup1\n  0x03\n  dup2\n  mstore\n  0x20\n  add\n  0x4c6f750000000000000000000000000000000000000000000000000000000000\n  dup2\n  mstore\n  pop\n    /* \"contracts/MyContract.sol\":1098:1103  names */\n  0x09\n    /* \"contracts/MyContract.sol\":1098:1106  names[1] */\n  0x00\n    /* \"contracts/MyContract.sol\":1104:1105  1 */\n  0x01\n    /* \"contracts/MyContract.sol\":1098:1106  names[1] */\n  dup2\n  mstore\n  0x20\n  add\n  swap1\n  dup2\n  mstore\n  0x20\n  add\n  0x00\n  keccak256\n    /* \"contracts/MyContract.sol\":1098:1114  names[1] = \"Lou\" */\n  swap1\n  dup2\n  tag_15\n  swap2\n  swap1\n  tag_2\n  jump\t// in\ntag_15:\n  pop\n    /* \"contracts/MyContract.sol\":1124:1143  names[2] = \"Hudson\" */\n  mload(0x40)\n  dup1\n  0x40\n  add\n  0x40\n  mstore\n  dup1\n  0x06\n  dup2\n  mstore\n  0x20\n  add\n  0x487564736f6e0000000000000000000000000000000000000000000000000000\n  dup2\n  mstore\n  pop\n    /* \"contracts/MyContract.sol\":1124:1129  names */\n  0x09\n    /* \"contracts/MyContract.sol\":1124:1132  names[2] */\n  0x00\n    /* \"contracts/MyContract.sol\":1130:1131  2 */\n  0x02\n    /* \"contracts/MyContract.sol\":1124:1132  names[2] */\n  dup2\n  mstore\n  0x20\n  add\n  swap1\n  dup2\n  mstore\n  0x20\n  add\n  0x00\n  keccak256\n    /* \"contracts/MyContract.sol\":1124:1143  names[2] = \"Hudson\" */\n  swap1\n  dup2\n  tag_16\n  swap2\n  swap1\n  tag_2\n  jump\t// in\ntag_16:\n  pop\n    /* \"contracts/MyContract.sol\":1153:1170  names[3] = \"Bean\" */\n  mload(0x40)\n  dup1\n  0x40\n  add\n  0x40\n  mstore\n  dup1\n  0x04\n  dup2\n  mstore\n  0x20\n  add\n  0x4265616e00000000000000000000000000000000000000000000000000000000\n  dup2\n  mstore\n  pop\n    /* \"contracts/MyContract.sol\":1153:1158  names */\n  0x09\n    /* \"contracts/MyContract.sol\":1153:1161  names[3] */\n  0x00\n    /* \"contracts/MyContract.sol\":1159:1160  3 */\n  0x03\n    /* \"contracts/MyContract.sol\":1153:1161  names[3] */\n  dup2\n  mstore\n  0x20\n  add\n  swap1\n  dup2\n  mstore\n  0x20\n  add\n  0x00\n  keccak256\n    /* \"contracts/MyContract.sol\":1153:1170  names[3] = \"Bean\" */\n  swap1\n  dup2\n  tag_17\n  swap2\n  swap1\n  tag_2\n  jump\t// in\ntag_17:\n  pop\n    /* \"contracts/MyContract.sol\":1189:1199  msg.sender */\n  caller\n    /* \"contracts/MyContract.sol\":1181:1186  owner */\n  0x0c\n  0x00\n    /* \"contracts/MyContract.sol\":1181:1199  owner = msg.sender */\n  0x0100\n  exp\n  dup2\n  sload\n  dup2\n  0xffffffffffffffffffffffffffffffffffffffff\n  mul\n  not\n  and\n  swap1\n  dup4\n  0xffffffffffffffffffffffffffffffffffffffff\n  and\n  mul\n  or\n  swap1\n  sstore\n  pop\n    /* \"contracts/MyContract.sol\":57:2369  contract MyContract {... */\n  jump(tag_18)\ntag_4:\n  dup3\n  dup1\n  sload\n  dup3\n  dup3\n  sstore\n  swap1\n  0x00\n  mstore\n  keccak256(0x00, 0x20)\n  swap1\n  dup2\n  add\n  swap3\n  dup3\n  iszero\n  tag_19\n  jumpi\n  swap2\n  0x20\n  mul\n  dup3\n  add\ntag_20:\n  dup3\n  dup2\n  gt\n  iszero\n  tag_21\n  jumpi\n  dup3\n  mload\n  dup3\n  swap1\n  0xff\n  and\n  swap1\n  sstore\n  swap2\n  0x20\n  add\n  swap2\n  swap1\n  0x01\n  add\n  swap1\n  jump(tag_20)\ntag_21:\ntag_19:\n  pop\n  swap1\n  pop\n  tag_22\n  swap2\n  swap1\n  tag_23\n  jump\t// in\ntag_22:\n  pop\n  swap1\n  jump\t// out\ntag_6:\n  dup3\n  dup1\n  sload\n  dup3\n  dup3\n  sstore\n  swap1\n  0x00\n  mstore\n  keccak256(0x00, 0x20)\n  swap1\n  dup2\n  add\n  swap3\n  dup3\n  iszero\n  tag_24\n  jumpi\n  swap2\n  0x20\n  mul\n  dup3\n  add\ntag_25:\n  dup3\n  dup2\n  gt\n  iszero\n  tag_26\n  jumpi\n  dup3\n  mload\n  dup3\n  swap1\n  dup2\n  tag_27\n  swap2\n  swap1\n  tag_2\n  jump\t// in\ntag_27:\n  pop\n  swap2\n  0x20\n  add\n  swap2\n  swap1\n  0x01\n  add\n  swap1\n  jump(tag_25)\ntag_26:\ntag_24:\n  pop\n  swap1\n  pop\n  tag_28\n  swap2\n  swap1\n  tag_29\n  jump\t// in\ntag_28:\n  pop\n  swap1\n  jump\t// out\ntag_8:\n  dup3\n  dup1\n  sload\n  dup3\n  dup3\n  sstore\n  swap1\n  0x00\n  mstore\n  keccak256(0x00, 0x20)\n  swap1\n  dup2\n  add\n  swap3\n  dup3\n  iszero\n  tag_30\n  jumpi\n  swap2\n  0x20\n  mul\n  dup3\n  add\ntag_31:\n  dup3\n  dup2\n  gt\n  iszero\n  tag_32\n  jumpi\n  dup3\n  mload\n  dup3\n  swap1\n  0x03\n  tag_33\n  swap3\n  swap2\n  swap1\n  tag_4\n  jump\t// in\ntag_33:\n  pop\n  swap2\n  0x20\n  add\n  swap2\n  swap1\n  0x01\n  add\n  swap1\n  jump(tag_31)\ntag_32:\ntag_30:\n  pop\n  swap1\n  pop\n  tag_34\n  swap2\n  swap1\n  tag_35\n  jump\t// in\ntag_34:\n  pop\n  swap1\n  jump\t// out\ntag_11:\n  dup3\n  dup1\n  sload\n  dup3\n  dup3\n  sstore\n  swap1\n  0x00\n  mstore\n  keccak256(0x00, 0x20)\n  swap1\n  dup2\n  add\n  swap3\n  dup3\n  iszero\n  tag_36\n  jumpi\n  swap2\n  0x20\n  mul\n  dup3\n  add\ntag_37:\n  dup3\n  dup2\n  gt\n  iszero\n  tag_38\n  jumpi\n  dup3\n  mload\n  dup3\n  swap1\n  0xff\n  and\n  swap1\n  sstore\n  swap2\n  0x20\n  add\n  swap2\n  swap1\n  0x01\n  add\n  swap1\n  jump(tag_37)\ntag_38:\ntag_36:\n  pop\n  swap1\n  pop\n  tag_39\n  swap2\n  swap1\n  tag_23\n  jump\t// in\ntag_39:\n  pop\n  swap1\n  jump\t// out\ntag_23:\ntag_40:\n  dup1\n  dup3\n  gt\n  iszero\n  tag_41\n  jumpi\n  0x00\n  dup2\n  0x00\n  swap1\n  sstore\n  pop\n  0x01\n  add\n  jump(tag_40)\ntag_41:\n  pop\n  swap1\n  jump\t// out\ntag_29:\ntag_42:\n  dup1\n  dup3\n  gt\n  iszero\n  tag_43\n  jumpi\n  0x00\n  dup2\n  dup2\n  tag_44\n  swap2\n  swap1\n  tag_45\n  jump\t// in\ntag_44:\n  pop\n  0x01\n  add\n  jump(tag_42)\ntag_43:\n  pop\n  swap1\n  jump\t// out\ntag_35:\ntag_46:\n  dup1\n  dup3\n  gt\n  iszero\n  tag_47\n  jumpi\n  0x00\n  dup2\n  dup2\n  tag_48\n  swap2\n  swap1\n  tag_49\n  jump\t// in\ntag_48:\n  pop\n  0x01\n  add\n  jump(tag_46)\ntag_47:\n  pop\n  swap1\n  jump\t// out\ntag_45:\n  pop\n  dup1\n  sload\n  tag_50\n  swap1\n  tag_51\n  jump\t// in\ntag_50:\n  0x00\n  dup3\n  sstore\n  dup1\n  0x1f\n  lt\n  tag_53\n  jumpi\n  pop\n  jump(tag_52)\ntag_53:\n  0x1f\n  add\n  0x20\n  swap1\n  div\n  swap1\n  0x00\n  mstore\n  keccak256(0x00, 0x20)\n  swap1\n  dup2\n  add\n  swap1\n  tag_54\n  swap2\n  swap1\n  tag_23\n  jump\t// in\ntag_54:\ntag_52:\n  pop\n  jump\t// out\ntag_49:\n  pop\n  dup1\n  sload\n  0x00\n  dup3\n  sstore\n  swap1\n  0x00\n  mstore\n  keccak256(0x00, 0x20)\n  swap1\n  dup2\n  add\n  swap1\n  tag_56\n  swap2\n  swap1\n  tag_23\n  jump\t// in\ntag_56:\n  pop\n  jump\t// out\n    /* \"#utility.yul\":7:106   */\ntag_57:\n    /* \"#utility.yul\":59:65   */\n  0x00\n    /* \"#utility.yul\":93:98   */\n  dup2\n    /* \"#utility.yul\":87:99   */\n  mload\n    /* \"#utility.yul\":77:99   */\n  swap1\n  pop\n    /* \"#utility.yul\":7:106   */\n  swap2\n  swap1\n  pop\n  jump\t// out\n    /* \"#utility.yul\":112:292   */\ntag_58:\n    /* \"#utility.yul\":160:237   */\n  0x4e487b7100000000000000000000000000000000000000000000000000000000\n    /* \"#utility.yul\":157:158   */\n  0x00\n    /* \"#utility.yul\":150:238   */\n  mstore\n    /* \"#utility.yul\":257:261   */\n  0x41\n    /* \"#utility.yul\":254:255   */\n  0x04\n    /* \"#utility.yul\":247:262   */\n  mstore\n    /* \"#utility.yul\":281:285   */\n  0x24\n    /* \"#utility.yul\":278:279   */\n  0x00\n    /* \"#utility.yul\":271:286   */\n  revert\n    /* \"#utility.yul\":298:478   */\ntag_59:\n    /* \"#utility.yul\":346:423   */\n  0x4e487b7100000000000000000000000000000000000000000000000000000000\n    /* \"#utility.yul\":343:344   */\n  0x00\n    /* \"#utility.yul\":336:424   */\n  mstore\n    /* \"#utility.yul\":443:447   */\n  0x22\n    /* \"#utility.yul\":440:441   */\n  0x04\n    /* \"#utility.yul\":433:448   */\n  mstore\n    /* \"#utility.yul\":467:471   */\n  0x24\n    /* \"#utility.yul\":464:465   */\n  0x00\n    /* \"#utility.yul\":457:472   */\n  revert\n    /* \"#utility.yul\":484:804   */\ntag_51:\n    /* \"#utility.yul\":528:534   */\n  0x00\n    /* \"#utility.yul\":565:566   */\n  0x02\n    /* \"#utility.yul\":559:563   */\n  dup3\n    /* \"#utility.yul\":555:567   */\n  div\n    /* \"#utility.yul\":545:567   */\n  swap1\n  pop\n    /* \"#utility.yul\":612:613   */\n  0x01\n    /* \"#utility.yul\":606:610   */\n  dup3\n    /* \"#utility.yul\":602:614   */\n  and\n    /* \"#utility.yul\":633:651   */\n  dup1\n    /* \"#utility.yul\":623:704   */\n  tag_81\n  jumpi\n    /* \"#utility.yul\":689:693   */\n  0x7f\n    /* \"#utility.yul\":681:687   */\n  dup3\n    /* \"#utility.yul\":677:694   */\n  and\n    /* \"#utility.yul\":667:694   */\n  swap2\n  pop\n    /* \"#utility.yul\":623:704   */\ntag_81:\n    /* \"#utility.yul\":751:753   */\n  0x20\n    /* \"#utility.yul\":743:749   */\n  dup3\n    /* \"#utility.yul\":740:754   */\n  lt\n    /* \"#utility.yul\":720:738   */\n  dup2\n    /* \"#utility.yul\":717:755   */\n  sub\n    /* \"#utility.yul\":714:798   */\n  tag_82\n  jumpi\n    /* \"#utility.yul\":770:788   */\n  tag_83\n  tag_59\n  jump\t// in\ntag_83:\n    /* \"#utility.yul\":714:798   */\ntag_82:\n    /* \"#utility.yul\":535:804   */\n  pop\n    /* \"#utility.yul\":484:804   */\n  swap2\n  swap1\n  pop\n  jump\t// out\n    /* \"#utility.yul\":810:951   */\ntag_60:\n    /* \"#utility.yul\":859:863   */\n  0x00\n    /* \"#utility.yul\":882:885   */\n  dup2\n    /* \"#utility.yul\":874:885   */\n  swap1\n  pop\n    /* \"#utility.yul\":905:908   */\n  dup2\n    /* \"#utility.yul\":902:903   */\n  0x00\n    /* \"#utility.yul\":895:909   */\n  mstore\n    /* \"#utility.yul\":939:943   */\n  0x20\n    /* \"#utility.yul\":936:937   */\n  0x00\n    /* \"#utility.yul\":926:944   */\n  keccak256\n    /* \"#utility.yul\":918:944   */\n  swap1\n  pop\n    /* \"#utility.yul\":810:951   */\n  swap2\n  swap1\n  pop\n  jump\t// out\n    /* \"#utility.yul\":957:1050   */\ntag_61:\n    /* \"#utility.yul\":994:1000   */\n  0x00\n    /* \"#utility.yul\":1041:1043   */\n  0x20\n    /* \"#utility.yul\":1036:1038   */\n  0x1f\n    /* \"#utility.yul\":1029:1034   */\n  dup4\n    /* \"#utility.yul\":1025:1039   */\n  add\n    /* \"#utility.yul\":1021:1044   */\n  div\n    /* \"#utility.yul\":1011:1044   */\n  swap1\n  pop\n    /* \"#utility.yul\":957:1050   */\n  swap2\n  swap1\n  pop\n  jump\t// out\n    /* \"#utility.yul\":1056:1163   */\ntag_62:\n    /* \"#utility.yul\":1100:1108   */\n  0x00\n    /* \"#utility.yul\":1150:1155   */\n  dup3\n    /* \"#utility.yul\":1144:1148   */\n  dup3\n    /* \"#utility.yul\":1140:1156   */\n  shl\n    /* \"#utility.yul\":1119:1156   */\n  swap1\n  pop\n    /* \"#utility.yul\":1056:1163   */\n  swap3\n  swap2\n  pop\n  pop\n  jump\t// out\n    /* \"#utility.yul\":1169:1562   */\ntag_63:\n    /* \"#utility.yul\":1238:1244   */\n  0x00\n    /* \"#utility.yul\":1288:1289   */\n  0x08\n    /* \"#utility.yul\":1276:1286   */\n  dup4\n    /* \"#utility.yul\":1272:1290   */\n  mul\n    /* \"#utility.yul\":1311:1408   */\n  tag_88\n    /* \"#utility.yul\":1341:1407   */\n  0xffffffffffffffffffffffffffffffffffffffffffffffffffffffffffffffff\n    /* \"#utility.yul\":1330:1339   */\n  dup3\n    /* \"#utility.yul\":1311:1408   */\n  tag_62\n  jump\t// in\ntag_88:\n    /* \"#utility.yul\":1429:1468   */\n  tag_89\n    /* \"#utility.yul\":1459:1467   */\n  dup7\n    /* \"#utility.yul\":1448:1457   */\n  dup4\n    /* \"#utility.yul\":1429:1468   */\n  tag_62\n  jump\t// in\ntag_89:\n    /* \"#utility.yul\":1417:1468   */\n  swap6\n  pop\n    /* \"#utility.yul\":1501:1505   */\n  dup1\n    /* \"#utility.yul\":1497:1506   */\n  not\n    /* \"#utility.yul\":1490:1495   */\n  dup5\n    /* \"#utility.yul\":1486:1507   */\n  and\n    /* \"#utility.yul\":1477:1507   */\n  swap4\n  pop\n    /* \"#utility.yul\":1550:1554   */\n  dup1\n    /* \"#utility.yul\":1540:1548   */\n  dup7\n    /* \"#utility.yul\":1536:1555   */\n  and\n    /* \"#utility.yul\":1529:1534   */\n  dup5\n    /* \"#utility.yul\":1526:1556   */\n  or\n    /* \"#utility.yul\":1516:1556   */\n  swap3\n  pop\n    /* \"#utility.yul\":1245:1562   */\n  pop\n  pop\n    /* \"#utility.yul\":1169:1562   */\n  swap4\n  swap3\n  pop\n  pop\n  pop\n  jump\t// out\n    /* \"#utility.yul\":1568:1645   */\ntag_64:\n    /* \"#utility.yul\":1605:1612   */\n  0x00\n    /* \"#utility.yul\":1634:1639   */\n  dup2\n    /* \"#utility.yul\":1623:1639   */\n  swap1\n  pop\n    /* \"#utility.yul\":1568:1645   */\n  swap2\n  swap1\n  pop\n  jump\t// out\n    /* \"#utility.yul\":1651:1711   */\ntag_65:\n    /* \"#utility.yul\":1679:1682   */\n  0x00\n    /* \"#utility.yul\":1700:1705   */\n  dup2\n    /* \"#utility.yul\":1693:1705   */\n  swap1\n  pop\n    /* \"#utility.yul\":1651:1711   */\n  swap2\n  swap1\n  pop\n  jump\t// out\n    /* \"#utility.yul\":1717:1859   */\ntag_66:\n    /* \"#utility.yul\":1767:1776   */\n  0x00\n    /* \"#utility.yul\":1800:1853   */\n  tag_93\n    /* \"#utility.yul\":1818:1852   */\n  tag_94\n    /* \"#utility.yul\":1827:1851   */\n  tag_95\n    /* \"#utility.yul\":1845:1850   */\n  dup5\n    /* \"#utility.yul\":1827:1851   */\n  tag_64\n  jump\t// in\ntag_95:\n    /* \"#utility.yul\":1818:1852   */\n  tag_65\n  jump\t// in\ntag_94:\n    /* \"#utility.yul\":1800:1853   */\n  tag_64\n  jump\t// in\ntag_93:\n    /* \"#utility.yul\":1787:1853   */\n  swap1\n  pop\n    /* \"#utility.yul\":1717:1859   */\n  swap2\n  swap1\n  pop\n  jump\t// out\n    /* \"#utility.yul\":1865:1940   */\ntag_67:\n    /* \"#utility.yul\":1908:1911   */\n  0x00\n    /* \"#utility.yul\":1929:1934   */\n  dup2\n    /* \"#utility.yul\":1922:1934   */\n  swap1\n  pop\n    /* \"#utility.yul\":1865:1940   */\n  swap2\n  swap1\n  pop\n  jump\t// out\n    /* \"#utility.yul\":1946:2215   */\ntag_68:\n    /* \"#utility.yul\":2056:2095   */\n  tag_98\n    /* \"#utility.yul\":2087:2094   */\n  dup4\n    /* \"#utility.yul\":2056:2095   */\n  tag_66\n  jump\t// in\ntag_98:\n    /* \"#utility.yul\":2117:2208   */\n  tag_99\n    /* \"#utility.yul\":2166:2207   */\n  tag_100\n    /* \"#utility.yul\":2190:2206   */\n  dup3\n    /* \"#utility.yul\":2166:2207   */\n  tag_67\n  jump\t// in\ntag_100:\n    /* \"#utility.yul\":2158:2164   */\n  dup5\n    /* \"#utility.yul\":2151:2155   */\n  dup5\n    /* \"#utility.yul\":2145:2156   */\n  sload\n    /* \"#utility.yul\":2117:2208   */\n  tag_63\n  jump\t// in\ntag_99:\n    /* \"#utility.yul\":2111:2115   */\n  dup3\n    /* \"#utility.yul\":2104:2209   */\n  sstore\n    /* \"#utility.yul\":2022:2215   */\n  pop\n    /* \"#utility.yul\":1946:2215   */\n  pop\n  pop\n  pop\n  jump\t// out\n    /* \"#utility.yul\":2221:2294   */\ntag_69:\n    /* \"#utility.yul\":2266:2269   */\n  0x00\n    /* \"#utility.yul\":2221:2294   */\n  swap1\n  jump\t// out\n    /* \"#utility.yul\":2300:2489   */\ntag_70:\n    /* \"#utility.yul\":2377:2409   */\n  tag_103\n  tag_69\n  jump\t// in\ntag_103:\n    /* \"#utility.yul\":2418:2483   */\n  tag_104\n    /* \"#utility.yul\":2476:2482   */\n  dup2\n    /* \"#utility.yul\":2468:2474   */\n  dup5\n    /* \"#utility.yul\":2462:2466   */\n  dup5\n    /* \"#utility.yul\":2418:2483   */\n  tag_68\n  jump\t// in\ntag_104:\n    /* \"#utility.yul\":2353:2489   */\n  pop\n    /* \"#utility.yul\":2300:2489   */\n  pop\n  pop\n  jump\t// out\n    /* \"#utility.yul\":2495:2681   */\ntag_71:\n    /* \"#utility.yul\":2555:2675   */\ntag_106:\n    /* \"#utility.yul\":2572:2575   */\n  dup2\n    /* \"#utility.yul\":2565:2570   */\n  dup2\n    /* \"#utility.yul\":2562:2576   */\n  lt\n    /* \"#utility.yul\":2555:2675   */\n  iszero\n  tag_108\n  jumpi\n    /* \"#utility.yul\":2626:2665   */\n  tag_109\n    /* \"#utility.yul\":2663:2664   */\n  0x00\n    /* \"#utility.yul\":2656:2661   */\n  dup3\n    /* \"#utility.yul\":2626:2665   */\n  tag_70\n  jump\t// in\ntag_109:\n    /* \"#utility.yul\":2599:2600   */\n  0x01\n    /* \"#utility.yul\":2592:2597   */\n  dup2\n    /* \"#utility.yul\":2588:2601   */\n  add\n    /* \"#utility.yul\":2579:2601   */\n  swap1\n  pop\n    /* \"#utility.yul\":2555:2675   */\n  jump(tag_106)\ntag_108:\n    /* \"#utility.yul\":2495:2681   */\n  pop\n  pop\n  jump\t// out\n    /* \"#utility.yul\":2687:3230   */\ntag_72:\n    /* \"#utility.yul\":2788:2790   */\n  0x1f\n    /* \"#utility.yul\":2783:2786   */\n  dup3\n    /* \"#utility.yul\":2780:2791   */\n  gt\n    /* \"#utility.yul\":2777:3223   */\n  iszero\n  tag_111\n  jumpi\n    /* \"#utility.yul\":2822:2860   */\n  tag_112\n    /* \"#utility.yul\":2854:2859   */\n  dup2\n    /* \"#utility.yul\":2822:2860   */\n  tag_60\n  jump\t// in\ntag_112:\n    /* \"#utility.yul\":2906:2935   */\n  tag_113\n    /* \"#utility.yul\":2924:2934   */\n  dup5\n    /* \"#utility.yul\":2906:2935   */\n  tag_61\n  jump\t// in\ntag_113:\n    /* \"#utility.yul\":2896:2904   */\n  dup2\n    /* \"#utility.yul\":2892:2936   */\n  add\n    /* \"#utility.yul\":3089:3091   */\n  0x20\n    /* \"#utility.yul\":3077:3087   */\n  dup6\n    /* \"#utility.yul\":3074:3092   */\n  lt\n    /* \"#utility.yul\":3071:3120   */\n  iszero\n  tag_114\n  jumpi\n    /* \"#utility.yul\":3110:3118   */\n  dup2\n    /* \"#utility.yul\":3095:3118   */\n  swap1\n  pop\n    /* \"#utility.yul\":3071:3120   */\ntag_114:\n    /* \"#utility.yul\":3133:3213   */\n  tag_115\n    /* \"#utility.yul\":3189:3211   */\n  tag_116\n    /* \"#utility.yul\":3207:3210   */\n  dup6\n    /* \"#utility.yul\":3189:3211   */\n  tag_61\n  jump\t// in\ntag_116:\n    /* \"#utility.yul\":3179:3187   */\n  dup4\n    /* \"#utility.yul\":3175:3212   */\n  add\n    /* \"#utility.yul\":3162:3173   */\n  dup3\n    /* \"#utility.yul\":3133:3213   */\n  tag_71\n  jump\t// in\ntag_115:\n    /* \"#utility.yul\":2792:3223   */\n  pop\n  pop\n    /* \"#utility.yul\":2777:3223   */\ntag_111:\n    /* \"#utility.yul\":2687:3230   */\n  pop\n  pop\n  pop\n  jump\t// out\n    /* \"#utility.yul\":3236:3353   */\ntag_73:\n    /* \"#utility.yul\":3290:3298   */\n  0x00\n    /* \"#utility.yul\":3340:3345   */\n  dup3\n    /* \"#utility.yul\":3334:3338   */\n  dup3\n    /* \"#utility.yul\":3330:3346   */\n  shr\n    /* \"#utility.yul\":3309:3346   */\n  swap1\n  pop\n    /* \"#utility.yul\":3236:3353   */\n  swap3\n  swap2\n  pop\n  pop\n  jump\t// out\n    /* \"#utility.yul\":3359:3528   */\ntag_74:\n    /* \"#utility.yul\":3403:3409   */\n  0x00\n    /* \"#utility.yul\":3436:3487   */\n  tag_119\n    /* \"#utility.yul\":3484:3485   */\n  0x00\n    /* \"#utility.yul\":3480:3486   */\n  not\n    /* \"#utility.yul\":3472:3477   */\n  dup5\n    /* \"#utility.yul\":3469:3470   */\n  0x08\n    /* \"#utility.yul\":3465:3478   */\n  mul\n    /* \"#utility.yul\":3436:3487   */\n  tag_73\n  jump\t// in\ntag_119:\n    /* \"#utility.yul\":3432:3488   */\n  not\n    /* \"#utility.yul\":3517:3521   */\n  dup1\n    /* \"#utility.yul\":3511:3515   */\n  dup4\n    /* \"#utility.yul\":3507:3522   */\n  and\n    /* \"#utility.yul\":3497:3522   */\n  swap2\n  pop\n    /* \"#utility.yul\":3410:3528   */\n  pop\n    /* \"#utility.yul\":3359:3528   */\n  swap3\n  swap2\n  pop\n  pop\n  jump\t// out\n    /* \"#utility.yul\":3533:3828   */\ntag_75:\n    /* \"#utility.yul\":3609:3613   */\n  0x00\n    /* \"#utility.yul\":3755:3784   */\n  tag_121\n    /* \"#utility.yul\":3780:3783   */\n  dup4\n    /* \"#utility.yul\":3774:3778   */\n  dup4\n    /* \"#utility.yul\":3755:3784   */\n  tag_74\n  jump\t// in\ntag_121:\n    /* \"#utility.yul\":3747:3784   */\n  swap2\n  pop\n    /* \"#utility.yul\":3817:3820   */\n  dup3\n    /* \"#utility.yul\":3814:3815   */\n  0x02\n    /* \"#utility.yul\":3810:3821   */\n  mul\n    /* \"#utility.yul\":3804:3808   */\n  dup3\n    /* \"#utility.yul\":3801:3822   */\n  or\n    /* \"#utility.yul\":3793:3822   */\n  swap1\n  pop\n    /* \"#utility.yul\":3533:3828   */\n  swap3\n  swap2\n  pop\n  pop\n  jump\t// out\n    /* \"#utility.yul\":3833:5228   */\ntag_2:\n    /* \"#utility.yul\":3950:3987   */\n  tag_123\n    /* \"#utility.yul\":3983:3986   */\n  dup3\n    /* \"#utility.yul\":3950:3987   */\n  tag_57\n  jump\t// in\ntag_123:\n    /* \"#utility.yul\":4052:4070   */\n  0xffffffffffffffff\n    /* \"#utility.yul\":4044:4050   */\n  dup2\n    /* \"#utility.yul\":4041:4071   */\n  gt\n    /* \"#utility.yul\":4038:4094   */\n  iszero\n  tag_124\n  jumpi\n    /* \"#utility.yul\":4074:4092   */\n  tag_125\n  tag_58\n  jump\t// in\ntag_125:\n    /* \"#utility.yul\":4038:4094   */\ntag_124:\n    /* \"#utility.yul\":4118:4156   */\n  tag_126\n    /* \"#utility.yul\":4150:4154   */\n  dup3\n    /* \"#utility.yul\":4144:4155   */\n  sload\n    /* \"#utility.yul\":4118:4156   */\n  tag_51\n  jump\t// in\ntag_126:\n    /* \"#utility.yul\":4203:4270   */\n  tag_127\n    /* \"#utility.yul\":4263:4269   */\n  dup3\n    /* \"#utility.yul\":4255:4261   */\n  dup3\n    /* \"#utility.yul\":4249:4253   */\n  dup6\n    /* \"#utility.yul\":4203:4270   */\n  tag_72\n  jump\t// in\ntag_127:\n    /* \"#utility.yul\":4297:4298   */\n  0x00\n    /* \"#utility.yul\":4321:4325   */\n  0x20\n    /* \"#utility.yul\":4308:4325   */\n  swap1\n  pop\n    /* \"#utility.yul\":4353:4355   */\n  0x1f\n    /* \"#utility.yul\":4345:4351   */\n  dup4\n    /* \"#utility.yul\":4342:4356   */\n  gt\n    /* \"#utility.yul\":4370:4371   */\n  0x01\n    /* \"#utility.yul\":4365:4983   */\n  dup2\n  eq\n  tag_129\n  jumpi\n    /* \"#utility.yul\":5027:5028   */\n  0x00\n    /* \"#utility.yul\":5044:5050   */\n  dup5\n    /* \"#utility.yul\":5041:5118   */\n  iszero\n  tag_130\n  jumpi\n    /* \"#utility.yul\":5093:5102   */\n  dup3\n    /* \"#utility.yul\":5088:5091   */\n  dup8\n    /* \"#utility.yul\":5084:5103   */\n  add\n    /* \"#utility.yul\":5078:5104   */\n  mload\n    /* \"#utility.yul\":5069:5104   */\n  swap1\n  pop\n    /* \"#utility.yul\":5041:5118   */\ntag_130:\n    /* \"#utility.yul\":5144:5211   */\n  tag_131\n    /* \"#utility.yul\":5204:5210   */\n  dup6\n    /* \"#utility.yul\":5197:5202   */\n  dup3\n    /* \"#utility.yul\":5144:5211   */\n  tag_75\n  jump\t// in\ntag_131:\n    /* \"#utility.yul\":5138:5142   */\n  dup7\n    /* \"#utility.yul\":5131:5212   */\n  sstore\n    /* \"#utility.yul\":5000:5222   */\n  pop\n    /* \"#utility.yul\":4335:5222   */\n  jump(tag_128)\n    /* \"#utility.yul\":4365:4983   */\ntag_129:\n    /* \"#utility.yul\":4417:4421   */\n  0x1f\n    /* \"#utility.yul\":4413:4422   */\n  not\n    /* \"#utility.yul\":4405:4411   */\n  dup5\n    /* \"#utility.yul\":4401:4423   */\n  and\n    /* \"#utility.yul\":4451:4488   */\n  tag_132\n    /* \"#utility.yul\":4483:4487   */\n  dup7\n    /* \"#utility.yul\":4451:4488   */\n  tag_60\n  jump\t// in\ntag_132:\n    /* \"#utility.yul\":4510:4511   */\n  0x00\n    /* \"#utility.yul\":4524:4732   */\ntag_133:\n    /* \"#utility.yul\":4538:4545   */\n  dup3\n    /* \"#utility.yul\":4535:4536   */\n  dup2\n    /* \"#utility.yul\":4532:4546   */\n  lt\n    /* \"#utility.yul\":4524:4732   */\n  iszero\n  tag_135\n  jumpi\n    /* \"#utility.yul\":4617:4626   */\n  dup5\n    /* \"#utility.yul\":4612:4615   */\n  dup10\n    /* \"#utility.yul\":4608:4627   */\n  add\n    /* \"#utility.yul\":4602:4628   */\n  mload\n    /* \"#utility.yul\":4594:4600   */\n  dup3\n    /* \"#utility.yul\":4587:4629   */\n  sstore\n    /* \"#utility.yul\":4668:4669   */\n  0x01\n    /* \"#utility.yul\":4660:4666   */\n  dup3\n    /* \"#utility.yul\":4656:4670   */\n  add\n    /* \"#utility.yul\":4646:4670   */\n  swap2\n  pop\n    /* \"#utility.yul\":4715:4717   */\n  0x20\n    /* \"#utility.yul\":4704:4713   */\n  dup6\n    /* \"#utility.yul\":4700:4718   */\n  add\n    /* \"#utility.yul\":4687:4718   */\n  swap5\n  pop\n    /* \"#utility.yul\":4561:4565   */\n  0x20\n    /* \"#utility.yul\":4558:4559   */\n  dup2\n    /* \"#utility.yul\":4554:4566   */\n  add\n    /* \"#utility.yul\":4549:4566   */\n  swap1\n  pop\n    /* \"#utility.yul\":4524:4732   */\n  jump(tag_133)\ntag_135:\n    /* \"#utility.yul\":4760:4766   */\n  dup7\n    /* \"#utility.yul\":4751:4758   */\n  dup4\n    /* \"#utility.yul\":4748:4767   */\n  lt\n    /* \"#utility.yul\":4745:4924   */\n  iszero\n  tag_136\n  jumpi\n    /* \"#utility.yul\":4818:4827   */\n  dup5\n    /* \"#utility.yul\":4813:4816   */\n  dup10\n    /* \"#utility.yul\":4809:4828   */\n  add\n    /* \"#utility.yul\":4803:4829   */\n  mload\n    /* \"#utility.yul\":4861:4909   */\n  tag_137\n    /* \"#utility.yul\":4903:4907   */\n  0x1f\n    /* \"#utility.yul\":4895:4901   */\n  dup10\n    /* \"#utility.yul\":4891:4908   */\n  and\n    /* \"#utility.yul\":4880:4889   */\n  dup3\n    /* \"#utility.yul\":4861:4909   */\n  tag_74\n  jump\t// in\ntag_137:\n    /* \"#utility.yul\":4853:4859   */\n  dup4\n    /* \"#utility.yul\":4846:4910   */\n  sstore\n    /* \"#utility.yul\":4768:4924   */\n  pop\n    /* \"#utility.yul\":4745:4924   */\ntag_136:\n    /* \"#utility.yul\":4970:4971   */\n  0x01\n    /* \"#utility.yul\":4966:4967   */\n  0x02\n    /* \"#utility.yul\":4958:4964   */\n  dup9\n    /* \"#utility.yul\":4954:4968   */\n  mul\n    /* \"#utility.yul\":4950:4972   */\n  add\n    /* \"#utility.yul\":4944:4948   */\n  dup9\n    /* \"#utility.yul\":4937:4973   */\n  sstore\n    /* \"#utility.yul\":4372:4983   */\n  pop\n  pop\n  pop\n    /* \"#utility.yul\":4335:5222   */\ntag_128:\n  pop\n    /* \"#utility.yul\":3925:5228   */\n  pop\n  pop\n  pop\n    /* \"#utility.yul\":3833:5228   */\n  pop\n  pop\n  jump\t// out\n    /* \"contracts/MyContract.sol\":57:2369  contract MyContract {... */\ntag_18:\n  dataSize(sub_0)\n  dup1\n  dataOffset(sub_0)\n  0x00\n  codecopy\n  0x00\n  return\nstop\n\nsub_0: assembly {\n        /* \"contracts/MyContract.sol\":57:2369  contract MyContract {... */\n      mstore(0x40, 0x80)\n      callvalue\n      dup1\n      iszero\n      tag_1\n      jumpi\n      0x00\n      dup1\n      revert\n    tag_1:\n      pop\n      jumpi(tag_2, lt(calldatasize, 0x04))\n      shr(0xe0, calldataload(0x00))\n      dup1\n      0x5e383d21\n      gt\n      tag_26\n      jumpi\n      dup1\n      0x9ae918c7\n      gt\n      tag_27\n      jumpi\n      dup1\n      0x9ae918c7\n      eq\n      tag_20\n      jumpi\n      dup1\n      0xa7dbce1c\n      eq\n      tag_21\n      jumpi\n      dup1\n      0xd3268fc1\n      eq\n      tag_22\n      jumpi\n      dup1\n      0xd39fa233\n      eq\n      tag_23\n      jumpi\n      dup1\n      0xe5054c69\n      eq\n      tag_24\n      jumpi\n      dup1\n      0xf3710a44\n      eq\n      tag_25\n      jumpi\n      jump(tag_2)\n    tag_27:\n      dup1\n      0x5e383d21\n      eq\n      tag_14\n      jumpi\n      dup1\n      0x6422c4c8\n      eq\n      tag_15\n      jumpi\n      dup1\n      0x68744046\n      eq\n      tag_16\n      jumpi\n      dup1\n      0x8bc9fe6c\n      eq\n      tag_17\n      jumpi\n      dup1\n      0x8da5cb5b\n      eq\n      tag_18\n      jumpi\n      dup1\n      0x8f32d59b\n      eq\n      tag_19\n      jumpi\n      jump(tag_2)\n    tag_26:\n      dup1\n      0x27d3553f\n      gt\n      tag_28\n      jumpi\n      dup1\n      0x27d3553f\n      eq\n      tag_8\n      jumpi\n      dup1\n      0x3a5fbaaa\n      eq\n      tag_9\n      jumpi\n      dup1\n      0x4622ab03\n      eq\n      tag_10\n      jumpi\n      dup1\n      0x492bfa18\n      eq\n      tag_11\n      jumpi\n      dup1\n      0x493ec707\n      eq\n      tag_12\n      jumpi\n      dup1\n      0x4b3e7e0c\n      eq\n      tag_13\n      jumpi\n      jump(tag_2)\n    tag_28:\n      dup1\n      0x028414f2\n      eq\n      tag_3\n      jumpi\n      dup1\n      0x06540f7e\n      eq\n      tag_4\n      jumpi\n      dup1\n      0x20965255\n      eq\n      tag_5\n      jumpi\n      dup1\n      0x26b85ee1\n      eq\n      tag_6\n      jumpi\n      dup1\n      0x26eb4dbb\n      eq\n      tag_7\n      jumpi\n    tag_2:\n      0x00\n      dup1\n      revert\n        /* \"contracts/MyContract.sol\":1216:1374  function addBook(... */\n    tag_3:\n      tag_29\n      0x04\n      dup1\n      calldatasize\n      sub\n      dup2\n      add\n      swap1\n      tag_30\n      swap2\n      swap1\n      tag_31\n      jump\t// in\n    tag_30:\n      tag_32\n      jump\t// in\n    tag_29:\n      stop\n        /* \"contracts/MyContract.sol\":101:123  uint public myUint = 1 */\n    tag_4:\n      tag_33\n      tag_34\n      jump\t// in\n    tag_33:\n      mload(0x40)\n      tag_35\n      swap2\n      swap1\n      tag_36\n      jump\t// in\n    tag_35:\n      mload(0x40)\n      dup1\n      swap2\n      sub\n      swap1\n      return\n        /* \"contracts/MyContract.sol\":1639:1738  function getValue() public pure returns(uint) {... */\n    tag_5:\n      tag_37\n      tag_38\n      jump\t// in\n    tag_37:\n      mload(0x40)\n      tag_39\n      swap2\n      swap1\n      tag_36\n      jump\t// in\n    tag_39:\n      mload(0x40)\n      dup1\n      swap2\n      sub\n      swap1\n      return\n        /* \"contracts/MyContract.sol\":257:326  address public myAddress = 0x958022786C530a428be5407E05345A8675CAfCB6 */\n    tag_6:\n      tag_40\n      tag_41\n      jump\t// in\n    tag_40:\n      mload(0x40)\n      tag_42\n      swap2\n      swap1\n      tag_43\n      jump\t// in\n    tag_42:\n      mload(0x40)\n      dup1\n      swap2\n      sub\n      swap1\n      return\n        /* \"contracts/MyContract.sol\":704:788  function valueCount() public view returns(uint){... */\n    tag_7:\n      tag_44\n      tag_45\n      jump\t// in\n    tag_44:\n      mload(0x40)\n      tag_46\n      swap2\n      swap1\n      tag_36\n      jump\t// in\n    tag_46:\n      mload(0x40)\n      dup1\n      swap2\n      sub\n      swap1\n      return\n        /* \"contracts/MyContract.sol\":914:970  mapping(address => mapping(uint => Book)) public myBooks */\n    tag_8:\n      tag_47\n      0x04\n      dup1\n      calldatasize\n      sub\n      dup2\n      add\n      swap1\n      tag_48\n      swap2\n      swap1\n      tag_49\n      jump\t// in\n    tag_48:\n      tag_50\n      jump\t// in\n    tag_47:\n      mload(0x40)\n      tag_51\n      swap3\n      swap2\n      swap1\n      tag_52\n      jump\t// in\n    tag_51:\n      mload(0x40)\n      dup1\n      swap2\n      sub\n      swap1\n      return\n        /* \"contracts/MyContract.sol\":615:698  function addValue(string memory _value) public {... */\n    tag_9:\n      tag_53\n      0x04\n      dup1\n      calldatasize\n      sub\n      dup2\n      add\n      swap1\n      tag_54\n      swap2\n      swap1\n      tag_55\n      jump\t// in\n    tag_54:\n      tag_56\n      jump\t// in\n    tag_53:\n      stop\n        /* \"contracts/MyContract.sol\":806:842  mapping(uint => string) public names */\n    tag_10:\n      tag_57\n      0x04\n      dup1\n      calldatasize\n      sub\n      dup2\n      add\n      swap1\n      tag_58\n      swap2\n      swap1\n      tag_59\n      jump\t// in\n    tag_58:\n      tag_60\n      jump\t// in\n    tag_57:\n      mload(0x40)\n      tag_61\n      swap2\n      swap1\n      tag_62\n      jump\t// in\n    tag_61:\n      mload(0x40)\n      dup1\n      swap2\n      sub\n      swap1\n      return\n        /* \"contracts/MyContract.sol\":165:204  string public myString = \"Hello World!\" */\n    tag_11:\n      tag_63\n      tag_64\n      jump\t// in\n    tag_63:\n      mload(0x40)\n      tag_65\n      swap2\n      swap1\n      tag_62\n      jump\t// in\n    tag_65:\n      mload(0x40)\n      dup1\n      swap2\n      sub\n      swap1\n      return\n        /* \"contracts/MyContract.sol\":1380:1554  function addMyBook(... */\n    tag_12:\n      tag_66\n      0x04\n      dup1\n      calldatasize\n      sub\n      dup2\n      add\n      swap1\n      tag_67\n      swap2\n      swap1\n      tag_31\n      jump\t// in\n    tag_67:\n      tag_68\n      jump\t// in\n    tag_66:\n      stop\n        /* \"contracts/MyContract.sol\":210:250  bytes32 public myBytes32 = \"hello world\" */\n    tag_13:\n      tag_69\n      tag_70\n      jump\t// in\n    tag_69:\n      mload(0x40)\n      tag_71\n      swap2\n      swap1\n      tag_72\n      jump\t// in\n    tag_71:\n      mload(0x40)\n      dup1\n      swap2\n      sub\n      swap1\n      return\n        /* \"contracts/MyContract.sol\":533:555  string[] public values */\n    tag_14:\n      tag_73\n      0x04\n      dup1\n      calldatasize\n      sub\n      dup2\n      add\n      swap1\n      tag_74\n      swap2\n      swap1\n      tag_59\n      jump\t// in\n    tag_74:\n      tag_75\n      jump\t// in\n    tag_73:\n      mload(0x40)\n      tag_76\n      swap2\n      swap1\n      tag_62\n      jump\t// in\n    tag_76:\n      mload(0x40)\n      dup1\n      swap2\n      sub\n      swap1\n      return\n        /* \"contracts/MyContract.sol\":467:527  string[] public stringArray = [\"apple\", \"orange\", \"bananna\"] */\n    tag_15:\n      tag_77\n      0x04\n      dup1\n      calldatasize\n      sub\n      dup2\n      add\n      swap1\n      tag_78\n      swap2\n      swap1\n      tag_59\n      jump\t// in\n    tag_78:\n      tag_79\n      jump\t// in\n    tag_77:\n      mload(0x40)\n      tag_80\n      swap2\n      swap1\n      tag_62\n      jump\t// in\n    tag_80:\n      mload(0x40)\n      dup1\n      swap2\n      sub\n      swap1\n      return\n        /* \"contracts/MyContract.sol\":848:882  mapping(uint => Book) public books */\n    tag_16:\n      tag_81\n      0x04\n      dup1\n      calldatasize\n      sub\n      dup2\n      add\n      swap1\n      tag_82\n      swap2\n      swap1\n      tag_59\n      jump\t// in\n    tag_82:\n      tag_83\n      jump\t// in\n    tag_81:\n      mload(0x40)\n      tag_84\n      swap3\n      swap2\n      swap1\n      tag_52\n      jump\t// in\n    tag_84:\n      mload(0x40)\n      dup1\n      swap2\n      sub\n      swap1\n      return\n        /* \"contracts/MyContract.sol\":1560:1614  MyStruct public myStruct = MyStruct(1, \"Hello world!\") */\n    tag_17:\n      tag_85\n      tag_86\n      jump\t// in\n    tag_85:\n      mload(0x40)\n      tag_87\n      swap3\n      swap2\n      swap1\n      tag_88\n      jump\t// in\n    tag_87:\n      mload(0x40)\n      dup1\n      swap2\n      sub\n      swap1\n      return\n        /* \"contracts/MyContract.sol\":1047:1067  address public owner */\n    tag_18:\n      tag_89\n      tag_90\n      jump\t// in\n    tag_89:\n      mload(0x40)\n      tag_91\n      swap2\n      swap1\n      tag_43\n      jump\t// in\n    tag_91:\n      mload(0x40)\n      dup1\n      swap2\n      sub\n      swap1\n      return\n        /* \"contracts/MyContract.sol\":2278:2367  function isOwner() public view returns(bool) {... */\n    tag_19:\n      tag_92\n      tag_93\n      jump\t// in\n    tag_92:\n      mload(0x40)\n      tag_94\n      swap2\n      swap1\n      tag_95\n      jump\t// in\n    tag_94:\n      mload(0x40)\n      dup1\n      swap2\n      sub\n      swap1\n      return\n        /* \"contracts/MyContract.sol\":428:461  uint[] public uintArray = [1,2,3] */\n    tag_20:\n      tag_96\n      0x04\n      dup1\n      calldatasize\n      sub\n      dup2\n      add\n      swap1\n      tag_97\n      swap2\n      swap1\n      tag_59\n      jump\t// in\n    tag_97:\n      tag_98\n      jump\t// in\n    tag_96:\n      mload(0x40)\n      tag_99\n      swap2\n      swap1\n      tag_36\n      jump\t// in\n    tag_99:\n      mload(0x40)\n      dup1\n      swap2\n      sub\n      swap1\n      return\n        /* \"contracts/MyContract.sol\":129:158  uint256 public myUint256  = 1 */\n    tag_21:\n      tag_100\n      tag_101\n      jump\t// in\n    tag_100:\n      mload(0x40)\n      tag_102\n      swap2\n      swap1\n      tag_36\n      jump\t// in\n    tag_102:\n      mload(0x40)\n      dup1\n      swap2\n      sub\n      swap1\n      return\n        /* \"contracts/MyContract.sol\":561:608  uint256[][] public array2D = [[1,2,3], [4,5,6]] */\n    tag_22:\n      tag_103\n      0x04\n      dup1\n      calldatasize\n      sub\n      dup2\n      add\n      swap1\n      tag_104\n      swap2\n      swap1\n      tag_105\n      jump\t// in\n    tag_104:\n      tag_106\n      jump\t// in\n    tag_103:\n      mload(0x40)\n      tag_107\n      swap2\n      swap1\n      tag_36\n      jump\t// in\n    tag_107:\n      mload(0x40)\n      dup1\n      swap2\n      sub\n      swap1\n      return\n        /* \"contracts/MyContract.sol\":1774:1829  uint[] public numbers = [1, 2, 3, 4, 5, 6, 7, 8, 9, 10] */\n    tag_23:\n      tag_108\n      0x04\n      dup1\n      calldatasize\n      sub\n      dup2\n      add\n      swap1\n      tag_109\n      swap2\n      swap1\n      tag_59\n      jump\t// in\n    tag_109:\n      tag_110\n      jump\t// in\n    tag_108:\n      mload(0x40)\n      tag_111\n      swap2\n      swap1\n      tag_36\n      jump\t// in\n    tag_111:\n      mload(0x40)\n      dup1\n      swap2\n      sub\n      swap1\n      return\n        /* \"contracts/MyContract.sol\":2096:2272  function isEvenNumber(uint _number) public pure returns(bool){... */\n    tag_24:\n      tag_112\n      0x04\n      dup1\n      calldatasize\n      sub\n      dup2\n      add\n      swap1\n      tag_113\n      swap2\n      swap1\n      tag_59\n      jump\t// in\n    tag_113:\n      tag_114\n      jump\t// in\n    tag_112:\n      mload(0x40)\n      tag_115\n      swap2\n      swap1\n      tag_95\n      jump\t// in\n    tag_115:\n      mload(0x40)\n      dup1\n      swap2\n      sub\n      swap1\n      return\n        /* \"contracts/MyContract.sol\":1836:2090  function countEventNumbers() public view returns(uint) {... */\n    tag_25:\n      tag_116\n      tag_117\n      jump\t// in\n    tag_116:\n      mload(0x40)\n      tag_118\n      swap2\n      swap1\n      tag_36\n      jump\t// in\n    tag_118:\n      mload(0x40)\n      dup1\n      swap2\n      sub\n      swap1\n      return\n        /* \"contracts/MyContract.sol\":1216:1374  function addBook(... */\n    tag_32:\n        /* \"contracts/MyContract.sol\":1346:1367  Book(_title, _author) */\n      mload(0x40)\n      dup1\n      0x40\n      add\n      0x40\n      mstore\n      dup1\n        /* \"contracts/MyContract.sol\":1351:1357  _title */\n      dup4\n        /* \"contracts/MyContract.sol\":1346:1367  Book(_title, _author) */\n      dup2\n      mstore\n      0x20\n      add\n        /* \"contracts/MyContract.sol\":1359:1366  _author */\n      dup3\n        /* \"contracts/MyContract.sol\":1346:1367  Book(_title, _author) */\n      dup2\n      mstore\n      pop\n        /* \"contracts/MyContract.sol\":1333:1338  books */\n      0x0a\n        /* \"contracts/MyContract.sol\":1333:1343  books[_id] */\n      0x00\n        /* \"contracts/MyContract.sol\":1339:1342  _id */\n      dup6\n        /* \"contracts/MyContract.sol\":1333:1343  books[_id] */\n      dup2\n      mstore\n      0x20\n      add\n      swap1\n      dup2\n      mstore\n      0x20\n      add\n      0x00\n      keccak256\n        /* \"contracts/MyContract.sol\":1333:1367  books[_id] = Book(_title, _author) */\n      0x00\n      dup3\n      add\n      mload\n      dup2\n      0x00\n      add\n      swap1\n      dup2\n      tag_120\n      swap2\n      swap1\n      tag_121\n      jump\t// in\n    tag_120:\n      pop\n      0x20\n      dup3\n      add\n      mload\n      dup2\n      0x01\n      add\n      swap1\n      dup2\n      tag_122\n      swap2\n      swap1\n      tag_121\n      jump\t// in\n    tag_122:\n      pop\n      swap1\n      pop\n      pop\n        /* \"contracts/MyContract.sol\":1216:1374  function addBook(... */\n      pop\n      pop\n      pop\n      jump\t// out\n        /* \"contracts/MyContract.sol\":101:123  uint public myUint = 1 */\n    tag_34:\n      sload(0x00)\n      dup2\n      jump\t// out\n        /* \"contracts/MyContract.sol\":1639:1738  function getValue() public pure returns(uint) {... */\n    tag_38:\n        /* \"contracts/MyContract.sol\":1679:1683  uint */\n      0x00\n        /* \"contracts/MyContract.sol\":1695:1705  uint value */\n      dup1\n        /* \"contracts/MyContract.sol\":1708:1709  1 */\n      0x01\n        /* \"contracts/MyContract.sol\":1695:1709  uint value = 1 */\n      swap1\n      pop\n        /* \"contracts/MyContract.sol\":1726:1731  value */\n      dup1\n        /* \"contracts/MyContract.sol\":1719:1731  return value */\n      swap2\n      pop\n      pop\n        /* \"contracts/MyContract.sol\":1639:1738  function getValue() public pure returns(uint) {... */\n      swap1\n      jump\t// out\n        /* \"contracts/MyContract.sol\":257:326  address public myAddress = 0x958022786C530a428be5407E05345A8675CAfCB6 */\n    tag_41:\n      0x04\n      0x00\n      swap1\n      sload\n      swap1\n      0x0100\n      exp\n      swap1\n      div\n      0xffffffffffffffffffffffffffffffffffffffff\n      and\n      dup2\n      jump\t// out\n        /* \"contracts/MyContract.sol\":704:788  function valueCount() public view returns(uint){... */\n    tag_45:\n        /* \"contracts/MyContract.sol\":746:750  uint */\n      0x00\n        /* \"contracts/MyContract.sol\":768:774  values */\n      0x07\n        /* \"contracts/MyContract.sol\":768:781  values.length */\n      dup1\n      sload\n      swap1\n      pop\n        /* \"contracts/MyContract.sol\":761:781  return values.length */\n      swap1\n      pop\n        /* \"contracts/MyContract.sol\":704:788  function valueCount() public view returns(uint){... */\n      swap1\n      jump\t// out\n        /* \"contracts/MyContract.sol\":914:970  mapping(address => mapping(uint => Book)) public myBooks */\n    tag_50:\n      mstore(0x20, 0x0b)\n      dup2\n      0x00\n      mstore\n      mstore(0x20, keccak256(0x00, 0x40))\n      dup1\n      0x00\n      mstore\n      keccak256(0x00, 0x40)\n      0x00\n      swap2\n      pop\n      swap2\n      pop\n      pop\n      dup1\n      0x00\n      add\n      dup1\n      sload\n      tag_125\n      swap1\n      tag_126\n      jump\t// in\n    tag_125:\n      dup1\n      0x1f\n      add\n      0x20\n      dup1\n      swap2\n      div\n      mul\n      0x20\n      add\n      mload(0x40)\n      swap1\n      dup2\n      add\n      0x40\n      mstore\n      dup1\n      swap3\n      swap2\n      swap1\n      dup2\n      dup2\n      mstore\n      0x20\n      add\n      dup3\n      dup1\n      sload\n      tag_127\n      swap1\n      tag_126\n      jump\t// in\n    tag_127:\n      dup1\n      iszero\n      tag_128\n      jumpi\n      dup1\n      0x1f\n      lt\n      tag_129\n      jumpi\n      0x0100\n      dup1\n      dup4\n      sload\n      div\n      mul\n      dup4\n      mstore\n      swap2\n      0x20\n      add\n      swap2\n      jump(tag_128)\n    tag_129:\n      dup3\n      add\n      swap2\n      swap1\n      0x00\n      mstore\n      keccak256(0x00, 0x20)\n      swap1\n    tag_130:\n      dup2\n      sload\n      dup2\n      mstore\n      swap1\n      0x01\n      add\n      swap1\n      0x20\n      add\n      dup1\n      dup4\n      gt\n      tag_130\n      jumpi\n      dup3\n      swap1\n      sub\n      0x1f\n      and\n      dup3\n      add\n      swap2\n    tag_128:\n      pop\n      pop\n      pop\n      pop\n      pop\n      swap1\n      dup1\n      0x01\n      add\n      dup1\n      sload\n      tag_131\n      swap1\n      tag_126\n      jump\t// in\n    tag_131:\n      dup1\n      0x1f\n      add\n      0x20\n      dup1\n      swap2\n      div\n      mul\n      0x20\n      add\n      mload(0x40)\n      swap1\n      dup2\n      add\n      0x40\n      mstore\n      dup1\n      swap3\n      swap2\n      swap1\n      dup2\n      dup2\n      mstore\n      0x20\n      add\n      dup3\n      dup1\n      sload\n      tag_132\n      swap1\n      tag_126\n      jump\t// in\n    tag_132:\n      dup1\n      iszero\n      tag_133\n      jumpi\n      dup1\n      0x1f\n      lt\n      tag_134\n      jumpi\n      0x0100\n      dup1\n      dup4\n      sload\n      div\n      mul\n      dup4\n      mstore\n      swap2\n      0x20\n      add\n      swap2\n      jump(tag_133)\n    tag_134:\n      dup3\n      add\n      swap2\n      swap1\n      0x00\n      mstore\n      keccak256(0x00, 0x20)\n      swap1\n    tag_135:\n      dup2\n      sload\n      dup2\n      mstore\n      swap1\n      0x01\n      add\n      swap1\n      0x20\n      add\n      dup1\n      dup4\n      gt\n      tag_135\n      jumpi\n      dup3\n      swap1\n      sub\n      0x1f\n      and\n      dup3\n      add\n      swap2\n    tag_133:\n      pop\n      pop\n      pop\n      pop\n      pop\n      swap1\n      pop\n      dup3\n      jump\t// out\n        /* \"contracts/MyContract.sol\":615:698  function addValue(string memory _value) public {... */\n    tag_56:\n        /* \"contracts/MyContract.sol\":672:678  values */\n      0x07\n        /* \"contracts/MyContract.sol\":684:690  _value */\n      dup2\n        /* \"contracts/MyContract.sol\":672:691  values.push(_value) */\n      swap1\n      dup1\n      0x01\n      dup2\n      sload\n      add\n      dup1\n      dup3\n      sstore\n      dup1\n      swap2\n      pop\n      pop\n      0x01\n      swap1\n      sub\n      swap1\n      0x00\n      mstore\n      keccak256(0x00, 0x20)\n      add\n      0x00\n      swap1\n      swap2\n      swap1\n      swap2\n      swap1\n      swap2\n      pop\n      swap1\n      dup2\n      tag_138\n      swap2\n      swap1\n      tag_121\n      jump\t// in\n    tag_138:\n      pop\n        /* \"contracts/MyContract.sol\":615:698  function addValue(string memory _value) public {... */\n      pop\n      jump\t// out\n        /* \"contracts/MyContract.sol\":806:842  mapping(uint => string) public names */\n    tag_60:\n      mstore(0x20, 0x09)\n      dup1\n      0x00\n      mstore\n      keccak256(0x00, 0x40)\n      0x00\n      swap2\n      pop\n      swap1\n      pop\n      dup1\n      sload\n      tag_139\n      swap1\n      tag_126\n      jump\t// in\n    tag_139:\n      dup1\n      0x1f\n      add\n      0x20\n      dup1\n      swap2\n      div\n      mul\n      0x20\n      add\n      mload(0x40)\n      swap1\n      dup2\n      add\n      0x40\n      mstore\n      dup1\n      swap3\n      swap2\n      swap1\n      dup2\n      dup2\n      mstore\n      0x20\n      add\n      dup3\n      dup1\n      sload\n      tag_140\n      swap1\n      tag_126\n      jump\t// in\n    tag_140:\n      dup1\n      iszero\n      tag_141\n      jumpi\n      dup1\n      0x1f\n      lt\n      tag_142\n      jumpi\n      0x0100\n      dup1\n      dup4\n      sload\n      div\n      mul\n      dup4\n      mstore\n      swap2\n      0x20\n      add\n      swap2\n      jump(tag_141)\n    tag_142:\n      dup3\n      add\n      swap2\n      swap1\n      0x00\n      mstore\n      keccak256(0x00, 0x20)\n      swap1\n    tag_143:\n      dup2\n      sload\n      dup2\n      mstore\n      swap1\n      0x01\n      add\n      swap1\n      0x20\n      add\n      dup1\n      dup4\n      gt\n      tag_143\n      jumpi\n      dup3\n      swap1\n      sub\n      0x1f\n      and\n      dup3\n      add\n      swap2\n    tag_141:\n      pop\n      pop\n      pop\n      pop\n      pop\n      dup2\n      jump\t// out\n        /* \"contracts/MyContract.sol\":165:204  string public myString = \"Hello World!\" */\n    tag_64:\n      0x02\n      dup1\n      sload\n      tag_144\n      swap1\n      tag_126\n      jump\t// in\n    tag_144:\n      dup1\n      0x1f\n      add\n      0x20\n      dup1\n      swap2\n      div\n      mul\n      0x20\n      add\n      mload(0x40)\n      swap1\n      dup2\n      add\n      0x40\n      mstore\n      dup1\n      swap3\n      swap2\n      swap1\n      dup2\n      dup2\n      mstore\n      0x20\n      add\n      dup3\n      dup1\n      sload\n      tag_145\n      swap1\n      tag_126\n      jump\t// in\n    tag_145:\n      dup1\n      iszero\n      tag_146\n      jumpi\n      dup1\n      0x1f\n      lt\n      tag_147\n      jumpi\n      0x0100\n      dup1\n      dup4\n      sload\n      div\n      mul\n      dup4\n      mstore\n      swap2\n      0x20\n      add\n      swap2\n      jump(tag_146)\n    tag_147:\n      dup3\n      add\n      swap2\n      swap1\n      0x00\n      mstore\n      keccak256(0x00, 0x20)\n      swap1\n    tag_148:\n      dup2\n      sload\n      dup2\n      mstore\n      swap1\n      0x01\n      add\n      swap1\n      0x20\n      add\n      dup1\n      dup4\n      gt\n      tag_148\n      jumpi\n      dup3\n      swap1\n      sub\n      0x1f\n      and\n      dup3\n      add\n      swap2\n    tag_146:\n      pop\n      pop\n      pop\n      pop\n      pop\n      dup2\n      jump\t// out\n        /* \"contracts/MyContract.sol\":1380:1554  function addMyBook(... */\n    tag_68:\n        /* \"contracts/MyContract.sol\":1526:1547  Book(_title, _author) */\n      mload(0x40)\n      dup1\n      0x40\n      add\n      0x40\n      mstore\n      dup1\n        /* \"contracts/MyContract.sol\":1531:1537  _title */\n      dup4\n        /* \"contracts/MyContract.sol\":1526:1547  Book(_title, _author) */\n      dup2\n      mstore\n      0x20\n      add\n        /* \"contracts/MyContract.sol\":1539:1546  _author */\n      dup3\n        /* \"contracts/MyContract.sol\":1526:1547  Book(_title, _author) */\n      dup2\n      mstore\n      pop\n        /* \"contracts/MyContract.sol\":1499:1506  myBooks */\n      0x0b\n        /* \"contracts/MyContract.sol\":1499:1518  myBooks[msg.sender] */\n      0x00\n        /* \"contracts/MyContract.sol\":1507:1517  msg.sender */\n      caller\n        /* \"contracts/MyContract.sol\":1499:1518  myBooks[msg.sender] */\n      0xffffffffffffffffffffffffffffffffffffffff\n      and\n      0xffffffffffffffffffffffffffffffffffffffff\n      and\n      dup2\n      mstore\n      0x20\n      add\n      swap1\n      dup2\n      mstore\n      0x20\n      add\n      0x00\n      keccak256\n        /* \"contracts/MyContract.sol\":1499:1523  myBooks[msg.sender][_id] */\n      0x00\n        /* \"contracts/MyContract.sol\":1519:1522  _id */\n      dup6\n        /* \"contracts/MyContract.sol\":1499:1523  myBooks[msg.sender][_id] */\n      dup2\n      mstore\n      0x20\n      add\n      swap1\n      dup2\n      mstore\n      0x20\n      add\n      0x00\n      keccak256\n        /* \"contracts/MyContract.sol\":1499:1547  myBooks[msg.sender][_id] = Book(_title, _author) */\n      0x00\n      dup3\n      add\n      mload\n      dup2\n      0x00\n      add\n      swap1\n      dup2\n      tag_150\n      swap2\n      swap1\n      tag_121\n      jump\t// in\n    tag_150:\n      pop\n      0x20\n      dup3\n      add\n      mload\n      dup2\n      0x01\n      add\n      swap1\n      dup2\n      tag_151\n      swap2\n      swap1\n      tag_121\n      jump\t// in\n    tag_151:\n      pop\n      swap1\n      pop\n      pop\n        /* \"contracts/MyContract.sol\":1380:1554  function addMyBook(... */\n      pop\n      pop\n      pop\n      jump\t// out\n        /* \"contracts/MyContract.sol\":210:250  bytes32 public myBytes32 = \"hello world\" */\n    tag_70:\n      sload(0x03)\n      dup2\n      jump\t// out\n        /* \"contracts/MyContract.sol\":533:555  string[] public values */\n    tag_75:\n      0x07\n      dup2\n      dup2\n      sload\n      dup2\n      lt\n      tag_152\n      jumpi\n      0x00\n      dup1\n      revert\n    tag_152:\n      swap1\n      0x00\n      mstore\n      keccak256(0x00, 0x20)\n      add\n      0x00\n      swap2\n      pop\n      swap1\n      pop\n      dup1\n      sload\n      tag_154\n      swap1\n      tag_126\n      jump\t// in\n    tag_154:\n      dup1\n      0x1f\n      add\n      0x20\n      dup1\n      swap2\n      div\n      mul\n      0x20\n      add\n      mload(0x40)\n      swap1\n      dup2\n      add\n      0x40\n      mstore\n      dup1\n      swap3\n      swap2\n      swap1\n      dup2\n      dup2\n      mstore\n      0x20\n      add\n      dup3\n      dup1\n      sload\n      tag_155\n      swap1\n      tag_126\n      jump\t// in\n    tag_155:\n      dup1\n      iszero\n      tag_156\n      jumpi\n      dup1\n      0x1f\n      lt\n      tag_157\n      jumpi\n      0x0100\n      dup1\n      dup4\n      sload\n      div\n      mul\n      dup4\n      mstore\n      swap2\n      0x20\n      add\n      swap2\n      jump(tag_156)\n    tag_157:\n      dup3\n      add\n      swap2\n      swap1\n      0x00\n      mstore\n      keccak256(0x00, 0x20)\n      swap1\n    tag_158:\n      dup2\n      sload\n      dup2\n      mstore\n      swap1\n      0x01\n      add\n      swap1\n      0x20\n      add\n      dup1\n      dup4\n      gt\n      tag_158\n      jumpi\n      dup3\n      swap1\n      sub\n      0x1f\n      and\n      dup3\n      add\n      swap2\n    tag_156:\n      pop\n      pop\n      pop\n      pop\n      pop\n      dup2\n      jump\t// out\n        /* \"contracts/MyContract.sol\":467:527  string[] public stringArray = [\"apple\", \"orange\", \"bananna\"] */\n    tag_79:\n      0x06\n      dup2\n      dup2\n      sload\n      dup2\n      lt\n      tag_159\n      jumpi\n      0x00\n      dup1\n      revert\n    tag_159:\n      swap1\n      0x00\n      mstore\n      keccak256(0x00, 0x20)\n      add\n      0x00\n      swap2\n      pop\n      swap1\n      pop\n      dup1\n      sload\n      tag_161\n      swap1\n      tag_126\n      jump\t// in\n    tag_161:\n      dup1\n      0x1f\n      add\n      0x20\n      dup1\n      swap2\n      div\n      mul\n      0x20\n      add\n      mload(0x40)\n      swap1\n      dup2\n      add\n      0x40\n      mstore\n      dup1\n      swap3\n      swap2\n      swap1\n      dup2\n      dup2\n      mstore\n      0x20\n      add\n      dup3\n      dup1\n      sload\n      tag_162\n      swap1\n      tag_126\n      jump\t// in\n    tag_162:\n      dup1\n      iszero\n      tag_163\n      jumpi\n      dup1\n      0x1f\n      lt\n      tag_164\n      jumpi\n      0x0100\n      dup1\n      dup4\n      sload\n      div\n      mul\n      dup4\n      mstore\n      swap2\n      0x20\n      add\n      swap2\n      jump(tag_163)\n    tag_164:\n      dup3\n      add\n      swap2\n      swap1\n      0x00\n      mstore\n      keccak256(0x00, 0x20)\n      swap1\n    tag_165:\n      dup2\n      sload\n      dup2\n      mstore\n      swap1\n      0x01\n      add\n      swap1\n      0x20\n      add\n      dup1\n      dup4\n      gt\n      tag_165\n      jumpi\n      dup3\n      swap1\n      sub\n      0x1f\n      and\n      dup3\n      add\n      swap2\n    tag_163:\n      pop\n      pop\n      pop\n      pop\n      pop\n      dup2\n      jump\t// out\n        /* \"contracts/MyContract.sol\":848:882  mapping(uint => Book) public books */\n    tag_83:\n      mstore(0x20, 0x0a)\n      dup1\n      0x00\n      mstore\n      keccak256(0x00, 0x40)\n      0x00\n      swap2\n      pop\n      swap1\n      pop\n      dup1\n      0x00\n      add\n      dup1\n      sload\n      tag_166\n      swap1\n      tag_126\n      jump\t// in\n    tag_166:\n      dup1\n      0x1f\n      add\n      0x20\n      dup1\n      swap2\n      div\n      mul\n      0x20\n      add\n      mload(0x40)\n      swap1\n      dup2\n      add\n      0x40\n      mstore\n      dup1\n      swap3\n      swap2\n      swap1\n      dup2\n      dup2\n      mstore\n      0x20\n      add\n      dup3\n      dup1\n      sload\n      tag_167\n      swap1\n      tag_126\n      jump\t// in\n    tag_167:\n      dup1\n      iszero\n      tag_168\n      jumpi\n      dup1\n      0x1f\n      lt\n      tag_169\n      jumpi\n      0x0100\n      dup1\n      dup4\n      sload\n      div\n      mul\n      dup4\n      mstore\n      swap2\n      0x20\n      add\n      swap2\n      jump(tag_168)\n    tag_169:\n      dup3\n      add\n      swap2\n      swap1\n      0x00\n      mstore\n      keccak256(0x00, 0x20)\n      swap1\n    tag_170:\n      dup2\n      sload\n      dup2\n      mstore\n      swap1\n      0x01\n      add\n      swap1\n      0x20\n      add\n      dup1\n      dup4\n      gt\n      tag_170\n      jumpi\n      dup3\n      swap1\n      sub\n      0x1f\n      and\n      dup3\n      add\n      swap2\n    tag_168:\n      pop\n      pop\n      pop\n      pop\n      pop\n      swap1\n      dup1\n      0x01\n      add\n      dup1\n      sload\n      tag_171\n      swap1\n      tag_126\n      jump\t// in\n    tag_171:\n      dup1\n      0x1f\n      add\n      0x20\n      dup1\n      swap2\n      div\n      mul\n      0x20\n      add\n      mload(0x40)\n      swap1\n      dup2\n      add\n      0x40\n      mstore\n      dup1\n      swap3\n      swap2\n      swap1\n      dup2\n      dup2\n      mstore\n      0x20\n      add\n      dup3\n      dup1\n      sload\n      tag_172\n      swap1\n      tag_126\n      jump\t// in\n    tag_172:\n      dup1\n      iszero\n      tag_173\n      jumpi\n      dup1\n      0x1f\n      lt\n      tag_174\n      jumpi\n      0x0100\n      dup1\n      dup4\n      sload\n      div\n      mul\n      dup4\n      mstore\n      swap2\n      0x20\n      add\n      swap2\n      jump(tag_173)\n    tag_174:\n      dup3\n      add\n      swap2\n      swap1\n      0x00\n      mstore\n      keccak256(0x00, 0x20)\n      swap1\n    tag_175:\n      dup2\n      sload\n      dup2\n      mstore\n      swap1\n      0x01\n      add\n      swap1\n      0x20\n      add\n      dup1\n      dup4\n      gt\n      tag_175\n      jumpi\n      dup3\n      swap1\n      sub\n      0x1f\n      and\n      dup3\n      add\n      swap2\n    tag_173:\n      pop\n      pop\n      pop\n      pop\n      pop\n      swap1\n      pop\n      dup3\n      jump\t// out\n        /* \"contracts/MyContract.sol\":1560:1614  MyStruct public myStruct = MyStruct(1, \"Hello world!\") */\n    tag_86:\n      0x0d\n      dup1\n      0x00\n      add\n      sload\n      swap1\n      dup1\n      0x01\n      add\n      dup1\n      sload\n      tag_176\n      swap1\n      tag_126\n      jump\t// in\n    tag_176:\n      dup1\n      0x1f\n      add\n      0x20\n      dup1\n      swap2\n      div\n      mul\n      0x20\n      add\n      mload(0x40)\n      swap1\n      dup2\n      add\n      0x40\n      mstore\n      dup1\n      swap3\n      swap2\n      swap1\n      dup2\n      dup2\n      mstore\n      0x20\n      add\n      dup3\n      dup1\n      sload\n      tag_177\n      swap1\n      tag_126\n      jump\t// in\n    tag_177:\n      dup1\n      iszero\n      tag_178\n      jumpi\n      dup1\n      0x1f\n      lt\n      tag_179\n      jumpi\n      0x0100\n      dup1\n      dup4\n      sload\n      div\n      mul\n      dup4\n      mstore\n      swap2\n      0x20\n      add\n      swap2\n      jump(tag_178)\n    tag_179:\n      dup3\n      add\n      swap2\n      swap1\n      0x00\n      mstore\n      keccak256(0x00, 0x20)\n      swap1\n    tag_180:\n      dup2\n      sload\n      dup2\n      mstore\n      swap1\n      0x01\n      add\n      swap1\n      0x20\n      add\n      dup1\n      dup4\n      gt\n      tag_180\n      jumpi\n      dup3\n      swap1\n      sub\n      0x1f\n      and\n      dup3\n      add\n      swap2\n    tag_178:\n      pop\n      pop\n      pop\n      pop\n      pop\n      swap1\n      pop\n      dup3\n      jump\t// out\n        /* \"contracts/MyContract.sol\":1047:1067  address public owner */\n    tag_90:\n      0x0c\n      0x00\n      swap1\n      sload\n      swap1\n      0x0100\n      exp\n      swap1\n      div\n      0xffffffffffffffffffffffffffffffffffffffff\n      and\n      dup2\n      jump\t// out\n        /* \"contracts/MyContract.sol\":2278:2367  function isOwner() public view returns(bool) {... */\n    tag_93:\n        /* \"contracts/MyContract.sol\":2317:2321  bool */\n      0x00\n        /* \"contracts/MyContract.sol\":2354:2359  owner */\n      0x0c\n      0x00\n      swap1\n      sload\n      swap1\n      0x0100\n      exp\n      swap1\n      div\n      0xffffffffffffffffffffffffffffffffffffffff\n      and\n        /* \"contracts/MyContract.sol\":2340:2359  msg.sender == owner */\n      0xffffffffffffffffffffffffffffffffffffffff\n      and\n        /* \"contracts/MyContract.sol\":2340:2350  msg.sender */\n      caller\n        /* \"contracts/MyContract.sol\":2340:2359  msg.sender == owner */\n      0xffffffffffffffffffffffffffffffffffffffff\n      and\n      eq\n        /* \"contracts/MyContract.sol\":2333:2360  return(msg.sender == owner) */\n      swap1\n      pop\n        /* \"contracts/MyContract.sol\":2278:2367  function isOwner() public view returns(bool) {... */\n      swap1\n      jump\t// out\n        /* \"contracts/MyContract.sol\":428:461  uint[] public uintArray = [1,2,3] */\n    tag_98:\n      0x05\n      dup2\n      dup2\n      sload\n      dup2\n      lt\n      tag_182\n      jumpi\n      0x00\n      dup1\n      revert\n    tag_182:\n      swap1\n      0x00\n      mstore\n      keccak256(0x00, 0x20)\n      add\n      0x00\n      swap2\n      pop\n      swap1\n      pop\n      sload\n      dup2\n      jump\t// out\n        /* \"contracts/MyContract.sol\":129:158  uint256 public myUint256  = 1 */\n    tag_101:\n      sload(0x01)\n      dup2\n      jump\t// out\n        /* \"contracts/MyContract.sol\":561:608  uint256[][] public array2D = [[1,2,3], [4,5,6]] */\n    tag_106:\n      0x08\n      dup3\n      dup2\n      sload\n      dup2\n      lt\n      tag_184\n      jumpi\n      0x00\n      dup1\n      revert\n    tag_184:\n      swap1\n      0x00\n      mstore\n      keccak256(0x00, 0x20)\n      add\n      dup2\n      dup2\n      sload\n      dup2\n      lt\n      tag_186\n      jumpi\n      0x00\n      dup1\n      revert\n    tag_186:\n      swap1\n      0x00\n      mstore\n      keccak256(0x00, 0x20)\n      add\n      0x00\n      swap2\n      pop\n      swap2\n      pop\n      pop\n      sload\n      dup2\n      jump\t// out\n        /* \"contracts/MyContract.sol\":1774:1829  uint[] public numbers = [1, 2, 3, 4, 5, 6, 7, 8, 9, 10] */\n    tag_110:\n      0x0f\n      dup2\n      dup2\n      sload\n      dup2\n      lt\n      tag_188\n      jumpi\n      0x00\n      dup1\n      revert\n    tag_188:\n      swap1\n      0x00\n      mstore\n      keccak256(0x00, 0x20)\n      add\n      0x00\n      swap2\n      pop\n      swap1\n      pop\n      sload\n      dup2\n      jump\t// out\n        /* \"contracts/MyContract.sol\":2096:2272  function isEvenNumber(uint _number) public pure returns(bool){... */\n    tag_114:\n        /* \"contracts/MyContract.sol\":2152:2156  bool */\n      0x00\n        /* \"contracts/MyContract.sol\":2185:2186  0 */\n      dup1\n        /* \"contracts/MyContract.sol\":2180:2181  2 */\n      0x02\n        /* \"contracts/MyContract.sol\":2170:2177  _number */\n      dup4\n        /* \"contracts/MyContract.sol\":2170:2181  _number % 2 */\n      tag_191\n      swap2\n      swap1\n      tag_192\n      jump\t// in\n    tag_191:\n        /* \"contracts/MyContract.sol\":2170:2186  _number % 2 == 0 */\n      sub\n        /* \"contracts/MyContract.sol\":2167:2266  if(_number % 2 == 0){... */\n      tag_193\n      jumpi\n        /* \"contracts/MyContract.sol\":2208:2212  true */\n      0x01\n        /* \"contracts/MyContract.sol\":2201:2212  return true */\n      swap1\n      pop\n      jump(tag_190)\n        /* \"contracts/MyContract.sol\":2167:2266  if(_number % 2 == 0){... */\n    tag_193:\n        /* \"contracts/MyContract.sol\":2250:2255  false */\n      0x00\n        /* \"contracts/MyContract.sol\":2243:2255  return false */\n      swap1\n      pop\n        /* \"contracts/MyContract.sol\":2096:2272  function isEvenNumber(uint _number) public pure returns(bool){... */\n    tag_190:\n      swap2\n      swap1\n      pop\n      jump\t// out\n        /* \"contracts/MyContract.sol\":1836:2090  function countEventNumbers() public view returns(uint) {... */\n    tag_117:\n        /* \"contracts/MyContract.sol\":1885:1889  uint */\n      0x00\n        /* \"contracts/MyContract.sol\":1901:1911  uint count */\n      dup1\n        /* \"contracts/MyContract.sol\":1914:1915  0 */\n      0x00\n        /* \"contracts/MyContract.sol\":1901:1915  uint count = 0 */\n      swap1\n      pop\n        /* \"contracts/MyContract.sol\":1930:1936  uint i */\n      0x00\n        /* \"contracts/MyContract.sol\":1926:2061  for(uint i = 0; i < numbers.length; i++) {... */\n    tag_196:\n        /* \"contracts/MyContract.sol\":1946:1953  numbers */\n      0x0f\n        /* \"contracts/MyContract.sol\":1946:1960  numbers.length */\n      dup1\n      sload\n      swap1\n      pop\n        /* \"contracts/MyContract.sol\":1942:1943  i */\n      dup2\n        /* \"contracts/MyContract.sol\":1942:1960  i < numbers.length */\n      lt\n        /* \"contracts/MyContract.sol\":1926:2061  for(uint i = 0; i < numbers.length; i++) {... */\n      iszero\n      tag_197\n      jumpi\n        /* \"contracts/MyContract.sol\":1984:2008  isEvenNumber(numbers[i]) */\n      tag_199\n        /* \"contracts/MyContract.sol\":1997:2004  numbers */\n      0x0f\n        /* \"contracts/MyContract.sol\":2005:2006  i */\n      dup3\n        /* \"contracts/MyContract.sol\":1997:2007  numbers[i] */\n      dup2\n      sload\n      dup2\n      lt\n      tag_200\n      jumpi\n      tag_201\n      tag_202\n      jump\t// in\n    tag_201:\n    tag_200:\n      swap1\n      0x00\n      mstore\n      keccak256(0x00, 0x20)\n      add\n      sload\n        /* \"contracts/MyContract.sol\":1984:1996  isEvenNumber */\n      tag_114\n        /* \"contracts/MyContract.sol\":1984:2008  isEvenNumber(numbers[i]) */\n      jump\t// in\n    tag_199:\n        /* \"contracts/MyContract.sol\":1981:2050  if(isEvenNumber(numbers[i])) {... */\n      iszero\n      tag_204\n      jumpi\n        /* \"contracts/MyContract.sol\":2028:2035  count++ */\n      dup2\n      dup1\n      tag_205\n      swap1\n      tag_206\n      jump\t// in\n    tag_205:\n      swap3\n      pop\n      pop\n        /* \"contracts/MyContract.sol\":1981:2050  if(isEvenNumber(numbers[i])) {... */\n    tag_204:\n        /* \"contracts/MyContract.sol\":1962:1965  i++ */\n      dup1\n      dup1\n      tag_207\n      swap1\n      tag_206\n      jump\t// in\n    tag_207:\n      swap2\n      pop\n      pop\n        /* \"contracts/MyContract.sol\":1926:2061  for(uint i = 0; i < numbers.length; i++) {... */\n      jump(tag_196)\n    tag_197:\n      pop\n        /* \"contracts/MyContract.sol\":2078:2083  count */\n      dup1\n        /* \"contracts/MyContract.sol\":2071:2083  return count */\n      swap2\n      pop\n      pop\n        /* \"contracts/MyContract.sol\":1836:2090  function countEventNumbers() public view returns(uint) {... */\n      swap1\n      jump\t// out\n        /* \"#utility.yul\":7:82   */\n    tag_208:\n        /* \"#utility.yul\":40:46   */\n      0x00\n        /* \"#utility.yul\":73:75   */\n      0x40\n        /* \"#utility.yul\":67:76   */\n      mload\n        /* \"#utility.yul\":57:76   */\n      swap1\n      pop\n        /* \"#utility.yul\":7:82   */\n      swap1\n      jump\t// out\n        /* \"#utility.yul\":88:205   */\n    tag_209:\n        /* \"#utility.yul\":197:198   */\n      0x00\n        /* \"#utility.yul\":194:195   */\n      dup1\n        /* \"#utility.yul\":187:199   */\n      revert\n        /* \"#utility.yul\":211:328   */\n    tag_210:\n        /* \"#utility.yul\":320:321   */\n      0x00\n        /* \"#utility.yul\":317:318   */\n      dup1\n        /* \"#utility.yul\":310:322   */\n      revert\n        /* \"#utility.yul\":334:411   */\n    tag_211:\n        /* \"#utility.yul\":371:378   */\n      0x00\n        /* \"#utility.yul\":400:405   */\n      dup2\n        /* \"#utility.yul\":389:405   */\n      swap1\n      pop\n        /* \"#utility.yul\":334:411   */\n      swap2\n      swap1\n      pop\n      jump\t// out\n        /* \"#utility.yul\":417:539   */\n    tag_212:\n        /* \"#utility.yul\":490:514   */\n      tag_262\n        /* \"#utility.yul\":508:513   */\n      dup2\n        /* \"#utility.yul\":490:514   */\n      tag_211\n      jump\t// in\n    tag_262:\n        /* \"#utility.yul\":483:488   */\n      dup2\n        /* \"#utility.yul\":480:515   */\n      eq\n        /* \"#utility.yul\":470:533   */\n      tag_263\n      jumpi\n        /* \"#utility.yul\":529:530   */\n      0x00\n        /* \"#utility.yul\":526:527   */\n      dup1\n        /* \"#utility.yul\":519:531   */\n      revert\n        /* \"#utility.yul\":470:533   */\n    tag_263:\n        /* \"#utility.yul\":417:539   */\n      pop\n      jump\t// out\n        /* \"#utility.yul\":545:684   */\n    tag_213:\n        /* \"#utility.yul\":591:596   */\n      0x00\n        /* \"#utility.yul\":629:635   */\n      dup2\n        /* \"#utility.yul\":616:636   */\n      calldataload\n        /* \"#utility.yul\":607:636   */\n      swap1\n      pop\n        /* \"#utility.yul\":645:678   */\n      tag_265\n        /* \"#utility.yul\":672:677   */\n      dup2\n        /* \"#utility.yul\":645:678   */\n      tag_212\n      jump\t// in\n    tag_265:\n        /* \"#utility.yul\":545:684   */\n      swap3\n      swap2\n      pop\n      pop\n      jump\t// out\n        /* \"#utility.yul\":690:807   */\n    tag_214:\n        /* \"#utility.yul\":799:800   */\n      0x00\n        /* \"#utility.yul\":796:797   */\n      dup1\n        /* \"#utility.yul\":789:801   */\n      revert\n        /* \"#utility.yul\":813:930   */\n    tag_215:\n        /* \"#utility.yul\":922:923   */\n      0x00\n        /* \"#utility.yul\":919:920   */\n      dup1\n        /* \"#utility.yul\":912:924   */\n      revert\n        /* \"#utility.yul\":936:1038   */\n    tag_216:\n        /* \"#utility.yul\":977:983   */\n      0x00\n        /* \"#utility.yul\":1028:1030   */\n      0x1f\n        /* \"#utility.yul\":1024:1031   */\n      not\n        /* \"#utility.yul\":1019:1021   */\n      0x1f\n        /* \"#utility.yul\":1012:1017   */\n      dup4\n        /* \"#utility.yul\":1008:1022   */\n      add\n        /* \"#utility.yul\":1004:1032   */\n      and\n        /* \"#utility.yul\":994:1032   */\n      swap1\n      pop\n        /* \"#utility.yul\":936:1038   */\n      swap2\n      swap1\n      pop\n      jump\t// out\n        /* \"#utility.yul\":1044:1224   */\n    tag_217:\n        /* \"#utility.yul\":1092:1169   */\n      0x4e487b7100000000000000000000000000000000000000000000000000000000\n        /* \"#utility.yul\":1089:1090   */\n      0x00\n        /* \"#utility.yul\":1082:1170   */\n      mstore\n        /* \"#utility.yul\":1189:1193   */\n      0x41\n        /* \"#utility.yul\":1186:1187   */\n      0x04\n        /* \"#utility.yul\":1179:1194   */\n      mstore\n        /* \"#utility.yul\":1213:1217   */\n      0x24\n        /* \"#utility.yul\":1210:1211   */\n      0x00\n        /* \"#utility.yul\":1203:1218   */\n      revert\n        /* \"#utility.yul\":1230:1511   */\n    tag_218:\n        /* \"#utility.yul\":1313:1340   */\n      tag_271\n        /* \"#utility.yul\":1335:1339   */\n      dup3\n        /* \"#utility.yul\":1313:1340   */\n      tag_216\n      jump\t// in\n    tag_271:\n        /* \"#utility.yul\":1305:1311   */\n      dup2\n        /* \"#utility.yul\":1301:1341   */\n      add\n        /* \"#utility.yul\":1443:1449   */\n      dup2\n        /* \"#utility.yul\":1431:1441   */\n      dup2\n        /* \"#utility.yul\":1428:1450   */\n      lt\n        /* \"#utility.yul\":1407:1425   */\n      0xffffffffffffffff\n        /* \"#utility.yul\":1395:1405   */\n      dup3\n        /* \"#utility.yul\":1392:1426   */\n      gt\n        /* \"#utility.yul\":1389:1451   */\n      or\n        /* \"#utility.yul\":1386:1474   */\n      iszero\n      tag_272\n      jumpi\n        /* \"#utility.yul\":1454:1472   */\n      tag_273\n      tag_217\n      jump\t// in\n    tag_273:\n        /* \"#utility.yul\":1386:1474   */\n    tag_272:\n        /* \"#utility.yul\":1494:1504   */\n      dup1\n        /* \"#utility.yul\":1490:1492   */\n      0x40\n        /* \"#utility.yul\":1483:1505   */\n      mstore\n        /* \"#utility.yul\":1273:1511   */\n      pop\n        /* \"#utility.yul\":1230:1511   */\n      pop\n      pop\n      jump\t// out\n        /* \"#utility.yul\":1517:1646   */\n    tag_219:\n        /* \"#utility.yul\":1551:1557   */\n      0x00\n        /* \"#utility.yul\":1578:1598   */\n      tag_275\n      tag_208\n      jump\t// in\n    tag_275:\n        /* \"#utility.yul\":1568:1598   */\n      swap1\n      pop\n        /* \"#utility.yul\":1607:1640   */\n      tag_276\n        /* \"#utility.yul\":1635:1639   */\n      dup3\n        /* \"#utility.yul\":1627:1633   */\n      dup3\n        /* \"#utility.yul\":1607:1640   */\n      tag_218\n      jump\t// in\n    tag_276:\n        /* \"#utility.yul\":1517:1646   */\n      swap2\n      swap1\n      pop\n      jump\t// out\n        /* \"#utility.yul\":1652:1960   */\n    tag_220:\n        /* \"#utility.yul\":1714:1718   */\n      0x00\n        /* \"#utility.yul\":1804:1822   */\n      0xffffffffffffffff\n        /* \"#utility.yul\":1796:1802   */\n      dup3\n        /* \"#utility.yul\":1793:1823   */\n      gt\n        /* \"#utility.yul\":1790:1846   */\n      iszero\n      tag_278\n      jumpi\n        /* \"#utility.yul\":1826:1844   */\n      tag_279\n      tag_217\n      jump\t// in\n    tag_279:\n        /* \"#utility.yul\":1790:1846   */\n    tag_278:\n        /* \"#utility.yul\":1864:1893   */\n      tag_280\n        /* \"#utility.yul\":1886:1892   */\n      dup3\n        /* \"#utility.yul\":1864:1893   */\n      tag_216\n      jump\t// in\n    tag_280:\n        /* \"#utility.yul\":1856:1893   */\n      swap1\n      pop\n        /* \"#utility.yul\":1948:1952   */\n      0x20\n        /* \"#utility.yul\":1942:1946   */\n      dup2\n        /* \"#utility.yul\":1938:1953   */\n      add\n        /* \"#utility.yul\":1930:1953   */\n      swap1\n      pop\n        /* \"#utility.yul\":1652:1960   */\n      swap2\n      swap1\n      pop\n      jump\t// out\n        /* \"#utility.yul\":1966:2112   */\n    tag_221:\n        /* \"#utility.yul\":2063:2069   */\n      dup3\n        /* \"#utility.yul\":2058:2061   */\n      dup2\n        /* \"#utility.yul\":2053:2056   */\n      dup4\n        /* \"#utility.yul\":2040:2070   */\n      calldatacopy\n        /* \"#utility.yul\":2104:2105   */\n      0x00\n        /* \"#utility.yul\":2095:2101   */\n      dup4\n        /* \"#utility.yul\":2090:2093   */\n      dup4\n        /* \"#utility.yul\":2086:2102   */\n      add\n        /* \"#utility.yul\":2079:2106   */\n      mstore\n        /* \"#utility.yul\":1966:2112   */\n      pop\n      pop\n      pop\n      jump\t// out\n        /* \"#utility.yul\":2118:2543   */\n    tag_222:\n        /* \"#utility.yul\":2196:2201   */\n      0x00\n        /* \"#utility.yul\":2221:2287   */\n      tag_283\n        /* \"#utility.yul\":2237:2286   */\n      tag_284\n        /* \"#utility.yul\":2279:2285   */\n      dup5\n        /* \"#utility.yul\":2237:2286   */\n      tag_220\n      jump\t// in\n    tag_284:\n        /* \"#utility.yul\":2221:2287   */\n      tag_219\n      jump\t// in\n    tag_283:\n        /* \"#utility.yul\":2212:2287   */\n      swap1\n      pop\n        /* \"#utility.yul\":2310:2316   */\n      dup3\n        /* \"#utility.yul\":2303:2308   */\n      dup2\n        /* \"#utility.yul\":2296:2317   */\n      mstore\n        /* \"#utility.yul\":2348:2352   */\n      0x20\n        /* \"#utility.yul\":2341:2346   */\n      dup2\n        /* \"#utility.yul\":2337:2353   */\n      add\n        /* \"#utility.yul\":2386:2389   */\n      dup5\n        /* \"#utility.yul\":2377:2383   */\n      dup5\n        /* \"#utility.yul\":2372:2375   */\n      dup5\n        /* \"#utility.yul\":2368:2384   */\n      add\n        /* \"#utility.yul\":2365:2390   */\n      gt\n        /* \"#utility.yul\":2362:2474   */\n      iszero\n      tag_285\n      jumpi\n        /* \"#utility.yul\":2393:2472   */\n      tag_286\n      tag_215\n      jump\t// in\n    tag_286:\n        /* \"#utility.yul\":2362:2474   */\n    tag_285:\n        /* \"#utility.yul\":2483:2537   */\n      tag_287\n        /* \"#utility.yul\":2530:2536   */\n      dup5\n        /* \"#utility.yul\":2525:2528   */\n      dup3\n        /* \"#utility.yul\":2520:2523   */\n      dup6\n        /* \"#utility.yul\":2483:2537   */\n      tag_221\n      jump\t// in\n    tag_287:\n        /* \"#utility.yul\":2202:2543   */\n      pop\n        /* \"#utility.yul\":2118:2543   */\n      swap4\n      swap3\n      pop\n      pop\n      pop\n      jump\t// out\n        /* \"#utility.yul\":2563:2903   */\n    tag_223:\n        /* \"#utility.yul\":2619:2624   */\n      0x00\n        /* \"#utility.yul\":2668:2671   */\n      dup3\n        /* \"#utility.yul\":2661:2665   */\n      0x1f\n        /* \"#utility.yul\":2653:2659   */\n      dup4\n        /* \"#utility.yul\":2649:2666   */\n      add\n        /* \"#utility.yul\":2645:2672   */\n      slt\n        /* \"#utility.yul\":2635:2757   */\n      tag_289\n      jumpi\n        /* \"#utility.yul\":2676:2755   */\n      tag_290\n      tag_214\n      jump\t// in\n    tag_290:\n        /* \"#utility.yul\":2635:2757   */\n    tag_289:\n        /* \"#utility.yul\":2793:2799   */\n      dup2\n        /* \"#utility.yul\":2780:2800   */\n      calldataload\n        /* \"#utility.yul\":2818:2897   */\n      tag_291\n        /* \"#utility.yul\":2893:2896   */\n      dup5\n        /* \"#utility.yul\":2885:2891   */\n      dup3\n        /* \"#utility.yul\":2878:2882   */\n      0x20\n        /* \"#utility.yul\":2870:2876   */\n      dup7\n        /* \"#utility.yul\":2866:2883   */\n      add\n        /* \"#utility.yul\":2818:2897   */\n      tag_222\n      jump\t// in\n    tag_291:\n        /* \"#utility.yul\":2809:2897   */\n      swap2\n      pop\n        /* \"#utility.yul\":2625:2903   */\n      pop\n        /* \"#utility.yul\":2563:2903   */\n      swap3\n      swap2\n      pop\n      pop\n      jump\t// out\n        /* \"#utility.yul\":2909:3888   */\n    tag_31:\n        /* \"#utility.yul\":3006:3012   */\n      0x00\n        /* \"#utility.yul\":3014:3020   */\n      dup1\n        /* \"#utility.yul\":3022:3028   */\n      0x00\n        /* \"#utility.yul\":3071:3073   */\n      0x60\n        /* \"#utility.yul\":3059:3068   */\n      dup5\n        /* \"#utility.yul\":3050:3057   */\n      dup7\n        /* \"#utility.yul\":3046:3069   */\n      sub\n        /* \"#utility.yul\":3042:3074   */\n      slt\n        /* \"#utility.yul\":3039:3158   */\n      iszero\n      tag_293\n      jumpi\n        /* \"#utility.yul\":3077:3156   */\n      tag_294\n      tag_209\n      jump\t// in\n    tag_294:\n        /* \"#utility.yul\":3039:3158   */\n    tag_293:\n        /* \"#utility.yul\":3197:3198   */\n      0x00\n        /* \"#utility.yul\":3222:3275   */\n      tag_295\n        /* \"#utility.yul\":3267:3274   */\n      dup7\n        /* \"#utility.yul\":3258:3264   */\n      dup3\n        /* \"#utility.yul\":3247:3256   */\n      dup8\n        /* \"#utility.yul\":3243:3265   */\n      add\n        /* \"#utility.yul\":3222:3275   */\n      tag_213\n      jump\t// in\n    tag_295:\n        /* \"#utility.yul\":3212:3275   */\n      swap4\n      pop\n        /* \"#utility.yul\":3168:3285   */\n      pop\n        /* \"#utility.yul\":3352:3354   */\n      0x20\n        /* \"#utility.yul\":3341:3350   */\n      dup5\n        /* \"#utility.yul\":3337:3355   */\n      add\n        /* \"#utility.yul\":3324:3356   */\n      calldataload\n        /* \"#utility.yul\":3383:3401   */\n      0xffffffffffffffff\n        /* \"#utility.yul\":3375:3381   */\n      dup2\n        /* \"#utility.yul\":3372:3402   */\n      gt\n        /* \"#utility.yul\":3369:3486   */\n      iszero\n      tag_296\n      jumpi\n        /* \"#utility.yul\":3405:3484   */\n      tag_297\n      tag_210\n      jump\t// in\n    tag_297:\n        /* \"#utility.yul\":3369:3486   */\n    tag_296:\n        /* \"#utility.yul\":3510:3573   */\n      tag_298\n        /* \"#utility.yul\":3565:3572   */\n      dup7\n        /* \"#utility.yul\":3556:3562   */\n      dup3\n        /* \"#utility.yul\":3545:3554   */\n      dup8\n        /* \"#utility.yul\":3541:3563   */\n      add\n        /* \"#utility.yul\":3510:3573   */\n      tag_223\n      jump\t// in\n    tag_298:\n        /* \"#utility.yul\":3500:3573   */\n      swap3\n      pop\n        /* \"#utility.yul\":3295:3583   */\n      pop\n        /* \"#utility.yul\":3650:3652   */\n      0x40\n        /* \"#utility.yul\":3639:3648   */\n      dup5\n        /* \"#utility.yul\":3635:3653   */\n      add\n        /* \"#utility.yul\":3622:3654   */\n      calldataload\n        /* \"#utility.yul\":3681:3699   */\n      0xffffffffffffffff\n        /* \"#utility.yul\":3673:3679   */\n      dup2\n        /* \"#utility.yul\":3670:3700   */\n      gt\n        /* \"#utility.yul\":3667:3784   */\n      iszero\n      tag_299\n      jumpi\n        /* \"#utility.yul\":3703:3782   */\n      tag_300\n      tag_210\n      jump\t// in\n    tag_300:\n        /* \"#utility.yul\":3667:3784   */\n    tag_299:\n        /* \"#utility.yul\":3808:3871   */\n      tag_301\n        /* \"#utility.yul\":3863:3870   */\n      dup7\n        /* \"#utility.yul\":3854:3860   */\n      dup3\n        /* \"#utility.yul\":3843:3852   */\n      dup8\n        /* \"#utility.yul\":3839:3861   */\n      add\n        /* \"#utility.yul\":3808:3871   */\n      tag_223\n      jump\t// in\n    tag_301:\n        /* \"#utility.yul\":3798:3871   */\n      swap2\n      pop\n        /* \"#utility.yul\":3593:3881   */\n      pop\n        /* \"#utility.yul\":2909:3888   */\n      swap3\n      pop\n      swap3\n      pop\n      swap3\n      jump\t// out\n        /* \"#utility.yul\":3894:4012   */\n    tag_224:\n        /* \"#utility.yul\":3981:4005   */\n      tag_303\n        /* \"#utility.yul\":3999:4004   */\n      dup2\n        /* \"#utility.yul\":3981:4005   */\n      tag_211\n      jump\t// in\n    tag_303:\n        /* \"#utility.yul\":3976:3979   */\n      dup3\n        /* \"#utility.yul\":3969:4006   */\n      mstore\n        /* \"#utility.yul\":3894:4012   */\n      pop\n      pop\n      jump\t// out\n        /* \"#utility.yul\":4018:4240   */\n    tag_36:\n        /* \"#utility.yul\":4111:4115   */\n      0x00\n        /* \"#utility.yul\":4149:4151   */\n      0x20\n        /* \"#utility.yul\":4138:4147   */\n      dup3\n        /* \"#utility.yul\":4134:4152   */\n      add\n        /* \"#utility.yul\":4126:4152   */\n      swap1\n      pop\n        /* \"#utility.yul\":4162:4233   */\n      tag_305\n        /* \"#utility.yul\":4230:4231   */\n      0x00\n        /* \"#utility.yul\":4219:4228   */\n      dup4\n        /* \"#utility.yul\":4215:4232   */\n      add\n        /* \"#utility.yul\":4206:4212   */\n      dup5\n        /* \"#utility.yul\":4162:4233   */\n      tag_224\n      jump\t// in\n    tag_305:\n        /* \"#utility.yul\":4018:4240   */\n      swap3\n      swap2\n      pop\n      pop\n      jump\t// out\n        /* \"#utility.yul\":4246:4372   */\n    tag_225:\n        /* \"#utility.yul\":4283:4290   */\n      0x00\n        /* \"#utility.yul\":4323:4365   */\n      0xffffffffffffffffffffffffffffffffffffffff\n        /* \"#utility.yul\":4316:4321   */\n      dup3\n        /* \"#utility.yul\":4312:4366   */\n      and\n        /* \"#utility.yul\":4301:4366   */\n      swap1\n      pop\n        /* \"#utility.yul\":4246:4372   */\n      swap2\n      swap1\n      pop\n      jump\t// out\n        /* \"#utility.yul\":4378:4474   */\n    tag_226:\n        /* \"#utility.yul\":4415:4422   */\n      0x00\n        /* \"#utility.yul\":4444:4468   */\n      tag_308\n        /* \"#utility.yul\":4462:4467   */\n      dup3\n        /* \"#utility.yul\":4444:4468   */\n      tag_225\n      jump\t// in\n    tag_308:\n        /* \"#utility.yul\":4433:4468   */\n      swap1\n      pop\n        /* \"#utility.yul\":4378:4474   */\n      swap2\n      swap1\n      pop\n      jump\t// out\n        /* \"#utility.yul\":4480:4598   */\n    tag_227:\n        /* \"#utility.yul\":4567:4591   */\n      tag_310\n        /* \"#utility.yul\":4585:4590   */\n      dup2\n        /* \"#utility.yul\":4567:4591   */\n      tag_226\n      jump\t// in\n    tag_310:\n        /* \"#utility.yul\":4562:4565   */\n      dup3\n        /* \"#utility.yul\":4555:4592   */\n      mstore\n        /* \"#utility.yul\":4480:4598   */\n      pop\n      pop\n      jump\t// out\n        /* \"#utility.yul\":4604:4826   */\n    tag_43:\n        /* \"#utility.yul\":4697:4701   */\n      0x00\n        /* \"#utility.yul\":4735:4737   */\n      0x20\n        /* \"#utility.yul\":4724:4733   */\n      dup3\n        /* \"#utility.yul\":4720:4738   */\n      add\n        /* \"#utility.yul\":4712:4738   */\n      swap1\n      pop\n        /* \"#utility.yul\":4748:4819   */\n      tag_312\n        /* \"#utility.yul\":4816:4817   */\n      0x00\n        /* \"#utility.yul\":4805:4814   */\n      dup4\n        /* \"#utility.yul\":4801:4818   */\n      add\n        /* \"#utility.yul\":4792:4798   */\n      dup5\n        /* \"#utility.yul\":4748:4819   */\n      tag_227\n      jump\t// in\n    tag_312:\n        /* \"#utility.yul\":4604:4826   */\n      swap3\n      swap2\n      pop\n      pop\n      jump\t// out\n        /* \"#utility.yul\":4832:4954   */\n    tag_228:\n        /* \"#utility.yul\":4905:4929   */\n      tag_314\n        /* \"#utility.yul\":4923:4928   */\n      dup2\n        /* \"#utility.yul\":4905:4929   */\n      tag_226\n      jump\t// in\n    tag_314:\n        /* \"#utility.yul\":4898:4903   */\n      dup2\n        /* \"#utility.yul\":4895:4930   */\n      eq\n        /* \"#utility.yul\":4885:4948   */\n      tag_315\n      jumpi\n        /* \"#utility.yul\":4944:4945   */\n      0x00\n        /* \"#utility.yul\":4941:4942   */\n      dup1\n        /* \"#utility.yul\":4934:4946   */\n      revert\n        /* \"#utility.yul\":4885:4948   */\n    tag_315:\n        /* \"#utility.yul\":4832:4954   */\n      pop\n      jump\t// out\n        /* \"#utility.yul\":4960:5099   */\n    tag_229:\n        /* \"#utility.yul\":5006:5011   */\n      0x00\n        /* \"#utility.yul\":5044:5050   */\n      dup2\n        /* \"#utility.yul\":5031:5051   */\n      calldataload\n        /* \"#utility.yul\":5022:5051   */\n      swap1\n      pop\n        /* \"#utility.yul\":5060:5093   */\n      tag_317\n        /* \"#utility.yul\":5087:5092   */\n      dup2\n        /* \"#utility.yul\":5060:5093   */\n      tag_228\n      jump\t// in\n    tag_317:\n        /* \"#utility.yul\":4960:5099   */\n      swap3\n      swap2\n      pop\n      pop\n      jump\t// out\n        /* \"#utility.yul\":5105:5579   */\n    tag_49:\n        /* \"#utility.yul\":5173:5179   */\n      0x00\n        /* \"#utility.yul\":5181:5187   */\n      dup1\n        /* \"#utility.yul\":5230:5232   */\n      0x40\n        /* \"#utility.yul\":5218:5227   */\n      dup4\n        /* \"#utility.yul\":5209:5216   */\n      dup6\n        /* \"#utility.yul\":5205:5228   */\n      sub\n        /* \"#utility.yul\":5201:5233   */\n      slt\n        /* \"#utility.yul\":5198:5317   */\n      iszero\n      tag_319\n      jumpi\n        /* \"#utility.yul\":5236:5315   */\n      tag_320\n      tag_209\n      jump\t// in\n    tag_320:\n        /* \"#utility.yul\":5198:5317   */\n    tag_319:\n        /* \"#utility.yul\":5356:5357   */\n      0x00\n        /* \"#utility.yul\":5381:5434   */\n      tag_321\n        /* \"#utility.yul\":5426:5433   */\n      dup6\n        /* \"#utility.yul\":5417:5423   */\n      dup3\n        /* \"#utility.yul\":5406:5415   */\n      dup7\n        /* \"#utility.yul\":5402:5424   */\n      add\n        /* \"#utility.yul\":5381:5434   */\n      tag_229\n      jump\t// in\n    tag_321:\n        /* \"#utility.yul\":5371:5434   */\n      swap3\n      pop\n        /* \"#utility.yul\":5327:5444   */\n      pop\n        /* \"#utility.yul\":5483:5485   */\n      0x20\n        /* \"#utility.yul\":5509:5562   */\n      tag_322\n        /* \"#utility.yul\":5554:5561   */\n      dup6\n        /* \"#utility.yul\":5545:5551   */\n      dup3\n        /* \"#utility.yul\":5534:5543   */\n      dup7\n        /* \"#utility.yul\":5530:5552   */\n      add\n        /* \"#utility.yul\":5509:5562   */\n      tag_213\n      jump\t// in\n    tag_322:\n        /* \"#utility.yul\":5499:5562   */\n      swap2\n      pop\n        /* \"#utility.yul\":5454:5572   */\n      pop\n        /* \"#utility.yul\":5105:5579   */\n      swap3\n      pop\n      swap3\n      swap1\n      pop\n      jump\t// out\n        /* \"#utility.yul\":5585:5684   */\n    tag_230:\n        /* \"#utility.yul\":5637:5643   */\n      0x00\n        /* \"#utility.yul\":5671:5676   */\n      dup2\n        /* \"#utility.yul\":5665:5677   */\n      mload\n        /* \"#utility.yul\":5655:5677   */\n      swap1\n      pop\n        /* \"#utility.yul\":5585:5684   */\n      swap2\n      swap1\n      pop\n      jump\t// out\n        /* \"#utility.yul\":5690:5859   */\n    tag_231:\n        /* \"#utility.yul\":5774:5785   */\n      0x00\n        /* \"#utility.yul\":5808:5814   */\n      dup3\n        /* \"#utility.yul\":5803:5806   */\n      dup3\n        /* \"#utility.yul\":5796:5815   */\n      mstore\n        /* \"#utility.yul\":5848:5852   */\n      0x20\n        /* \"#utility.yul\":5843:5846   */\n      dup3\n        /* \"#utility.yul\":5839:5853   */\n      add\n        /* \"#utility.yul\":5824:5853   */\n      swap1\n      pop\n        /* \"#utility.yul\":5690:5859   */\n      swap3\n      swap2\n      pop\n      pop\n      jump\t// out\n        /* \"#utility.yul\":5865:6111   */\n    tag_232:\n        /* \"#utility.yul\":5946:5947   */\n      0x00\n        /* \"#utility.yul\":5956:6069   */\n    tag_326:\n        /* \"#utility.yul\":5970:5976   */\n      dup4\n        /* \"#utility.yul\":5967:5968   */\n      dup2\n        /* \"#utility.yul\":5964:5977   */\n      lt\n        /* \"#utility.yul\":5956:6069   */\n      iszero\n      tag_328\n      jumpi\n        /* \"#utility.yul\":6055:6056   */\n      dup1\n        /* \"#utility.yul\":6050:6053   */\n      dup3\n        /* \"#utility.yul\":6046:6057   */\n      add\n        /* \"#utility.yul\":6040:6058   */\n      mload\n        /* \"#utility.yul\":6036:6037   */\n      dup2\n        /* \"#utility.yul\":6031:6034   */\n      dup5\n        /* \"#utility.yul\":6027:6038   */\n      add\n        /* \"#utility.yul\":6020:6059   */\n      mstore\n        /* \"#utility.yul\":5992:5994   */\n      0x20\n        /* \"#utility.yul\":5989:5990   */\n      dup2\n        /* \"#utility.yul\":5985:5995   */\n      add\n        /* \"#utility.yul\":5980:5995   */\n      swap1\n      pop\n        /* \"#utility.yul\":5956:6069   */\n      jump(tag_326)\n    tag_328:\n        /* \"#utility.yul\":6103:6104   */\n      0x00\n        /* \"#utility.yul\":6094:6100   */\n      dup5\n        /* \"#utility.yul\":6089:6092   */\n      dup5\n        /* \"#utility.yul\":6085:6101   */\n      add\n        /* \"#utility.yul\":6078:6105   */\n      mstore\n        /* \"#utility.yul\":5927:6111   */\n      pop\n        /* \"#utility.yul\":5865:6111   */\n      pop\n      pop\n      pop\n      jump\t// out\n        /* \"#utility.yul\":6117:6494   */\n    tag_233:\n        /* \"#utility.yul\":6205:6208   */\n      0x00\n        /* \"#utility.yul\":6233:6272   */\n      tag_330\n        /* \"#utility.yul\":6266:6271   */\n      dup3\n        /* \"#utility.yul\":6233:6272   */\n      tag_230\n      jump\t// in\n    tag_330:\n        /* \"#utility.yul\":6288:6359   */\n      tag_331\n        /* \"#utility.yul\":6352:6358   */\n      dup2\n        /* \"#utility.yul\":6347:6350   */\n      dup6\n        /* \"#utility.yul\":6288:6359   */\n      tag_231\n      jump\t// in\n    tag_331:\n        /* \"#utility.yul\":6281:6359   */\n      swap4\n      pop\n        /* \"#utility.yul\":6368:6433   */\n      tag_332\n        /* \"#utility.yul\":6426:6432   */\n      dup2\n        /* \"#utility.yul\":6421:6424   */\n      dup6\n        /* \"#utility.yul\":6414:6418   */\n      0x20\n        /* \"#utility.yul\":6407:6412   */\n      dup7\n        /* \"#utility.yul\":6403:6419   */\n      add\n        /* \"#utility.yul\":6368:6433   */\n      tag_232\n      jump\t// in\n    tag_332:\n        /* \"#utility.yul\":6458:6487   */\n      tag_333\n        /* \"#utility.yul\":6480:6486   */\n      dup2\n        /* \"#utility.yul\":6458:6487   */\n      tag_216\n      jump\t// in\n    tag_333:\n        /* \"#utility.yul\":6453:6456   */\n      dup5\n        /* \"#utility.yul\":6449:6488   */\n      add\n        /* \"#utility.yul\":6442:6488   */\n      swap2\n      pop\n        /* \"#utility.yul\":6209:6494   */\n      pop\n        /* \"#utility.yul\":6117:6494   */\n      swap3\n      swap2\n      pop\n      pop\n      jump\t// out\n        /* \"#utility.yul\":6500:7014   */\n    tag_52:\n        /* \"#utility.yul\":6661:6665   */\n      0x00\n        /* \"#utility.yul\":6699:6701   */\n      0x40\n        /* \"#utility.yul\":6688:6697   */\n      dup3\n        /* \"#utility.yul\":6684:6702   */\n      add\n        /* \"#utility.yul\":6676:6702   */\n      swap1\n      pop\n        /* \"#utility.yul\":6748:6757   */\n      dup2\n        /* \"#utility.yul\":6742:6746   */\n      dup2\n        /* \"#utility.yul\":6738:6758   */\n      sub\n        /* \"#utility.yul\":6734:6735   */\n      0x00\n        /* \"#utility.yul\":6723:6732   */\n      dup4\n        /* \"#utility.yul\":6719:6736   */\n      add\n        /* \"#utility.yul\":6712:6759   */\n      mstore\n        /* \"#utility.yul\":6776:6854   */\n      tag_335\n        /* \"#utility.yul\":6849:6853   */\n      dup2\n        /* \"#utility.yul\":6840:6846   */\n      dup6\n        /* \"#utility.yul\":6776:6854   */\n      tag_233\n      jump\t// in\n    tag_335:\n        /* \"#utility.yul\":6768:6854   */\n      swap1\n      pop\n        /* \"#utility.yul\":6901:6910   */\n      dup2\n        /* \"#utility.yul\":6895:6899   */\n      dup2\n        /* \"#utility.yul\":6891:6911   */\n      sub\n        /* \"#utility.yul\":6886:6888   */\n      0x20\n        /* \"#utility.yul\":6875:6884   */\n      dup4\n        /* \"#utility.yul\":6871:6889   */\n      add\n        /* \"#utility.yul\":6864:6912   */\n      mstore\n        /* \"#utility.yul\":6929:7007   */\n      tag_336\n        /* \"#utility.yul\":7002:7006   */\n      dup2\n        /* \"#utility.yul\":6993:6999   */\n      dup5\n        /* \"#utility.yul\":6929:7007   */\n      tag_233\n      jump\t// in\n    tag_336:\n        /* \"#utility.yul\":6921:7007   */\n      swap1\n      pop\n        /* \"#utility.yul\":6500:7014   */\n      swap4\n      swap3\n      pop\n      pop\n      pop\n      jump\t// out\n        /* \"#utility.yul\":7020:7529   */\n    tag_55:\n        /* \"#utility.yul\":7089:7095   */\n      0x00\n        /* \"#utility.yul\":7138:7140   */\n      0x20\n        /* \"#utility.yul\":7126:7135   */\n      dup3\n        /* \"#utility.yul\":7117:7124   */\n      dup5\n        /* \"#utility.yul\":7113:7136   */\n      sub\n        /* \"#utility.yul\":7109:7141   */\n      slt\n        /* \"#utility.yul\":7106:7225   */\n      iszero\n      tag_338\n      jumpi\n        /* \"#utility.yul\":7144:7223   */\n      tag_339\n      tag_209\n      jump\t// in\n    tag_339:\n        /* \"#utility.yul\":7106:7225   */\n    tag_338:\n        /* \"#utility.yul\":7292:7293   */\n      0x00\n        /* \"#utility.yul\":7281:7290   */\n      dup3\n        /* \"#utility.yul\":7277:7294   */\n      add\n        /* \"#utility.yul\":7264:7295   */\n      calldataload\n        /* \"#utility.yul\":7322:7340   */\n      0xffffffffffffffff\n        /* \"#utility.yul\":7314:7320   */\n      dup2\n        /* \"#utility.yul\":7311:7341   */\n      gt\n        /* \"#utility.yul\":7308:7425   */\n      iszero\n      tag_340\n      jumpi\n        /* \"#utility.yul\":7344:7423   */\n      tag_341\n      tag_210\n      jump\t// in\n    tag_341:\n        /* \"#utility.yul\":7308:7425   */\n    tag_340:\n        /* \"#utility.yul\":7449:7512   */\n      tag_342\n        /* \"#utility.yul\":7504:7511   */\n      dup5\n        /* \"#utility.yul\":7495:7501   */\n      dup3\n        /* \"#utility.yul\":7484:7493   */\n      dup6\n        /* \"#utility.yul\":7480:7502   */\n      add\n        /* \"#utility.yul\":7449:7512   */\n      tag_223\n      jump\t// in\n    tag_342:\n        /* \"#utility.yul\":7439:7512   */\n      swap2\n      pop\n        /* \"#utility.yul\":7235:7522   */\n      pop\n        /* \"#utility.yul\":7020:7529   */\n      swap3\n      swap2\n      pop\n      pop\n      jump\t// out\n        /* \"#utility.yul\":7535:7864   */\n    tag_59:\n        /* \"#utility.yul\":7594:7600   */\n      0x00\n        /* \"#utility.yul\":7643:7645   */\n      0x20\n        /* \"#utility.yul\":7631:7640   */\n      dup3\n        /* \"#utility.yul\":7622:7629   */\n      dup5\n        /* \"#utility.yul\":7618:7641   */\n      sub\n        /* \"#utility.yul\":7614:7646   */\n      slt\n        /* \"#utility.yul\":7611:7730   */\n      iszero\n      tag_344\n      jumpi\n        /* \"#utility.yul\":7649:7728   */\n      tag_345\n      tag_209\n      jump\t// in\n    tag_345:\n        /* \"#utility.yul\":7611:7730   */\n    tag_344:\n        /* \"#utility.yul\":7769:7770   */\n      0x00\n        /* \"#utility.yul\":7794:7847   */\n      tag_346\n        /* \"#utility.yul\":7839:7846   */\n      dup5\n        /* \"#utility.yul\":7830:7836   */\n      dup3\n        /* \"#utility.yul\":7819:7828   */\n      dup6\n        /* \"#utility.yul\":7815:7837   */\n      add\n        /* \"#utility.yul\":7794:7847   */\n      tag_213\n      jump\t// in\n    tag_346:\n        /* \"#utility.yul\":7784:7847   */\n      swap2\n      pop\n        /* \"#utility.yul\":7740:7857   */\n      pop\n        /* \"#utility.yul\":7535:7864   */\n      swap3\n      swap2\n      pop\n      pop\n      jump\t// out\n        /* \"#utility.yul\":7870:8183   */\n    tag_62:\n        /* \"#utility.yul\":7983:7987   */\n      0x00\n        /* \"#utility.yul\":8021:8023   */\n      0x20\n        /* \"#utility.yul\":8010:8019   */\n      dup3\n        /* \"#utility.yul\":8006:8024   */\n      add\n        /* \"#utility.yul\":7998:8024   */\n      swap1\n      pop\n        /* \"#utility.yul\":8070:8079   */\n      dup2\n        /* \"#utility.yul\":8064:8068   */\n      dup2\n        /* \"#utility.yul\":8060:8080   */\n      sub\n        /* \"#utility.yul\":8056:8057   */\n      0x00\n        /* \"#utility.yul\":8045:8054   */\n      dup4\n        /* \"#utility.yul\":8041:8058   */\n      add\n        /* \"#utility.yul\":8034:8081   */\n      mstore\n        /* \"#utility.yul\":8098:8176   */\n      tag_348\n        /* \"#utility.yul\":8171:8175   */\n      dup2\n        /* \"#utility.yul\":8162:8168   */\n      dup5\n        /* \"#utility.yul\":8098:8176   */\n      tag_233\n      jump\t// in\n    tag_348:\n        /* \"#utility.yul\":8090:8176   */\n      swap1\n      pop\n        /* \"#utility.yul\":7870:8183   */\n      swap3\n      swap2\n      pop\n      pop\n      jump\t// out\n        /* \"#utility.yul\":8189:8266   */\n    tag_234:\n        /* \"#utility.yul\":8226:8233   */\n      0x00\n        /* \"#utility.yul\":8255:8260   */\n      dup2\n        /* \"#utility.yul\":8244:8260   */\n      swap1\n      pop\n        /* \"#utility.yul\":8189:8266   */\n      swap2\n      swap1\n      pop\n      jump\t// out\n        /* \"#utility.yul\":8272:8390   */\n    tag_235:\n        /* \"#utility.yul\":8359:8383   */\n      tag_351\n        /* \"#utility.yul\":8377:8382   */\n      dup2\n        /* \"#utility.yul\":8359:8383   */\n      tag_234\n      jump\t// in\n    tag_351:\n        /* \"#utility.yul\":8354:8357   */\n      dup3\n        /* \"#utility.yul\":8347:8384   */\n      mstore\n        /* \"#utility.yul\":8272:8390   */\n      pop\n      pop\n      jump\t// out\n        /* \"#utility.yul\":8396:8618   */\n    tag_72:\n        /* \"#utility.yul\":8489:8493   */\n      0x00\n        /* \"#utility.yul\":8527:8529   */\n      0x20\n        /* \"#utility.yul\":8516:8525   */\n      dup3\n        /* \"#utility.yul\":8512:8530   */\n      add\n        /* \"#utility.yul\":8504:8530   */\n      swap1\n      pop\n        /* \"#utility.yul\":8540:8611   */\n      tag_353\n        /* \"#utility.yul\":8608:8609   */\n      0x00\n        /* \"#utility.yul\":8597:8606   */\n      dup4\n        /* \"#utility.yul\":8593:8610   */\n      add\n        /* \"#utility.yul\":8584:8590   */\n      dup5\n        /* \"#utility.yul\":8540:8611   */\n      tag_235\n      jump\t// in\n    tag_353:\n        /* \"#utility.yul\":8396:8618   */\n      swap3\n      swap2\n      pop\n      pop\n      jump\t// out\n        /* \"#utility.yul\":8624:9047   */\n    tag_88:\n        /* \"#utility.yul\":8765:8769   */\n      0x00\n        /* \"#utility.yul\":8803:8805   */\n      0x40\n        /* \"#utility.yul\":8792:8801   */\n      dup3\n        /* \"#utility.yul\":8788:8806   */\n      add\n        /* \"#utility.yul\":8780:8806   */\n      swap1\n      pop\n        /* \"#utility.yul\":8816:8887   */\n      tag_355\n        /* \"#utility.yul\":8884:8885   */\n      0x00\n        /* \"#utility.yul\":8873:8882   */\n      dup4\n        /* \"#utility.yul\":8869:8886   */\n      add\n        /* \"#utility.yul\":8860:8866   */\n      dup6\n        /* \"#utility.yul\":8816:8887   */\n      tag_224\n      jump\t// in\n    tag_355:\n        /* \"#utility.yul\":8934:8943   */\n      dup2\n        /* \"#utility.yul\":8928:8932   */\n      dup2\n        /* \"#utility.yul\":8924:8944   */\n      sub\n        /* \"#utility.yul\":8919:8921   */\n      0x20\n        /* \"#utility.yul\":8908:8917   */\n      dup4\n        /* \"#utility.yul\":8904:8922   */\n      add\n        /* \"#utility.yul\":8897:8945   */\n      mstore\n        /* \"#utility.yul\":8962:9040   */\n      tag_356\n        /* \"#utility.yul\":9035:9039   */\n      dup2\n        /* \"#utility.yul\":9026:9032   */\n      dup5\n        /* \"#utility.yul\":8962:9040   */\n      tag_233\n      jump\t// in\n    tag_356:\n        /* \"#utility.yul\":8954:9040   */\n      swap1\n      pop\n        /* \"#utility.yul\":8624:9047   */\n      swap4\n      swap3\n      pop\n      pop\n      pop\n      jump\t// out\n        /* \"#utility.yul\":9053:9143   */\n    tag_236:\n        /* \"#utility.yul\":9087:9094   */\n      0x00\n        /* \"#utility.yul\":9130:9135   */\n      dup2\n        /* \"#utility.yul\":9123:9136   */\n      iszero\n        /* \"#utility.yul\":9116:9137   */\n      iszero\n        /* \"#utility.yul\":9105:9137   */\n      swap1\n      pop\n        /* \"#utility.yul\":9053:9143   */\n      swap2\n      swap1\n      pop\n      jump\t// out\n        /* \"#utility.yul\":9149:9258   */\n    tag_237:\n        /* \"#utility.yul\":9230:9251   */\n      tag_359\n        /* \"#utility.yul\":9245:9250   */\n      dup2\n        /* \"#utility.yul\":9230:9251   */\n      tag_236\n      jump\t// in\n    tag_359:\n        /* \"#utility.yul\":9225:9228   */\n      dup3\n        /* \"#utility.yul\":9218:9252   */\n      mstore\n        /* \"#utility.yul\":9149:9258   */\n      pop\n      pop\n      jump\t// out\n        /* \"#utility.yul\":9264:9474   */\n    tag_95:\n        /* \"#utility.yul\":9351:9355   */\n      0x00\n        /* \"#utility.yul\":9389:9391   */\n      0x20\n        /* \"#utility.yul\":9378:9387   */\n      dup3\n        /* \"#utility.yul\":9374:9392   */\n      add\n        /* \"#utility.yul\":9366:9392   */\n      swap1\n      pop\n        /* \"#utility.yul\":9402:9467   */\n      tag_361\n        /* \"#utility.yul\":9464:9465   */\n      0x00\n        /* \"#utility.yul\":9453:9462   */\n      dup4\n        /* \"#utility.yul\":9449:9466   */\n      add\n        /* \"#utility.yul\":9440:9446   */\n      dup5\n        /* \"#utility.yul\":9402:9467   */\n      tag_237\n      jump\t// in\n    tag_361:\n        /* \"#utility.yul\":9264:9474   */\n      swap3\n      swap2\n      pop\n      pop\n      jump\t// out\n        /* \"#utility.yul\":9480:9954   */\n    tag_105:\n        /* \"#utility.yul\":9548:9554   */\n      0x00\n        /* \"#utility.yul\":9556:9562   */\n      dup1\n        /* \"#utility.yul\":9605:9607   */\n      0x40\n        /* \"#utility.yul\":9593:9602   */\n      dup4\n        /* \"#utility.yul\":9584:9591   */\n      dup6\n        /* \"#utility.yul\":9580:9603   */\n      sub\n        /* \"#utility.yul\":9576:9608   */\n      slt\n        /* \"#utility.yul\":9573:9692   */\n      iszero\n      tag_363\n      jumpi\n        /* \"#utility.yul\":9611:9690   */\n      tag_364\n      tag_209\n      jump\t// in\n    tag_364:\n        /* \"#utility.yul\":9573:9692   */\n    tag_363:\n        /* \"#utility.yul\":9731:9732   */\n      0x00\n        /* \"#utility.yul\":9756:9809   */\n      tag_365\n        /* \"#utility.yul\":9801:9808   */\n      dup6\n        /* \"#utility.yul\":9792:9798   */\n      dup3\n        /* \"#utility.yul\":9781:9790   */\n      dup7\n        /* \"#utility.yul\":9777:9799   */\n      add\n        /* \"#utility.yul\":9756:9809   */\n      tag_213\n      jump\t// in\n    tag_365:\n        /* \"#utility.yul\":9746:9809   */\n      swap3\n      pop\n        /* \"#utility.yul\":9702:9819   */\n      pop\n        /* \"#utility.yul\":9858:9860   */\n      0x20\n        /* \"#utility.yul\":9884:9937   */\n      tag_366\n        /* \"#utility.yul\":9929:9936   */\n      dup6\n        /* \"#utility.yul\":9920:9926   */\n      dup3\n        /* \"#utility.yul\":9909:9918   */\n      dup7\n        /* \"#utility.yul\":9905:9927   */\n      add\n        /* \"#utility.yul\":9884:9937   */\n      tag_213\n      jump\t// in\n    tag_366:\n        /* \"#utility.yul\":9874:9937   */\n      swap2\n      pop\n        /* \"#utility.yul\":9829:9947   */\n      pop\n        /* \"#utility.yul\":9480:9954   */\n      swap3\n      pop\n      swap3\n      swap1\n      pop\n      jump\t// out\n        /* \"#utility.yul\":9960:10140   */\n    tag_238:\n        /* \"#utility.yul\":10008:10085   */\n      0x4e487b7100000000000000000000000000000000000000000000000000000000\n        /* \"#utility.yul\":10005:10006   */\n      0x00\n        /* \"#utility.yul\":9998:10086   */\n      mstore\n        /* \"#utility.yul\":10105:10109   */\n      0x22\n        /* \"#utility.yul\":10102:10103   */\n      0x04\n        /* \"#utility.yul\":10095:10110   */\n      mstore\n        /* \"#utility.yul\":10129:10133   */\n      0x24\n        /* \"#utility.yul\":10126:10127   */\n      0x00\n        /* \"#utility.yul\":10119:10134   */\n      revert\n        /* \"#utility.yul\":10146:10466   */\n    tag_126:\n        /* \"#utility.yul\":10190:10196   */\n      0x00\n        /* \"#utility.yul\":10227:10228   */\n      0x02\n        /* \"#utility.yul\":10221:10225   */\n      dup3\n        /* \"#utility.yul\":10217:10229   */\n      div\n        /* \"#utility.yul\":10207:10229   */\n      swap1\n      pop\n        /* \"#utility.yul\":10274:10275   */\n      0x01\n        /* \"#utility.yul\":10268:10272   */\n      dup3\n        /* \"#utility.yul\":10264:10276   */\n      and\n        /* \"#utility.yul\":10295:10313   */\n      dup1\n        /* \"#utility.yul\":10285:10366   */\n      tag_369\n      jumpi\n        /* \"#utility.yul\":10351:10355   */\n      0x7f\n        /* \"#utility.yul\":10343:10349   */\n      dup3\n        /* \"#utility.yul\":10339:10356   */\n      and\n        /* \"#utility.yul\":10329:10356   */\n      swap2\n      pop\n        /* \"#utility.yul\":10285:10366   */\n    tag_369:\n        /* \"#utility.yul\":10413:10415   */\n      0x20\n        /* \"#utility.yul\":10405:10411   */\n      dup3\n        /* \"#utility.yul\":10402:10416   */\n      lt\n        /* \"#utility.yul\":10382:10400   */\n      dup2\n        /* \"#utility.yul\":10379:10417   */\n      sub\n        /* \"#utility.yul\":10376:10460   */\n      tag_370\n      jumpi\n        /* \"#utility.yul\":10432:10450   */\n      tag_371\n      tag_238\n      jump\t// in\n    tag_371:\n        /* \"#utility.yul\":10376:10460   */\n    tag_370:\n        /* \"#utility.yul\":10197:10466   */\n      pop\n        /* \"#utility.yul\":10146:10466   */\n      swap2\n      swap1\n      pop\n      jump\t// out\n        /* \"#utility.yul\":10472:10613   */\n    tag_239:\n        /* \"#utility.yul\":10521:10525   */\n      0x00\n        /* \"#utility.yul\":10544:10547   */\n      dup2\n        /* \"#utility.yul\":10536:10547   */\n      swap1\n      pop\n        /* \"#utility.yul\":10567:10570   */\n      dup2\n        /* \"#utility.yul\":10564:10565   */\n      0x00\n        /* \"#utility.yul\":10557:10571   */\n      mstore\n        /* \"#utility.yul\":10601:10605   */\n      0x20\n        /* \"#utility.yul\":10598:10599   */\n      0x00\n        /* \"#utility.yul\":10588:10606   */\n      keccak256\n        /* \"#utility.yul\":10580:10606   */\n      swap1\n      pop\n        /* \"#utility.yul\":10472:10613   */\n      swap2\n      swap1\n      pop\n      jump\t// out\n        /* \"#utility.yul\":10619:10712   */\n    tag_240:\n        /* \"#utility.yul\":10656:10662   */\n      0x00\n        /* \"#utility.yul\":10703:10705   */\n      0x20\n        /* \"#utility.yul\":10698:10700   */\n      0x1f\n        /* \"#utility.yul\":10691:10696   */\n      dup4\n        /* \"#utility.yul\":10687:10701   */\n      add\n        /* \"#utility.yul\":10683:10706   */\n      div\n        /* \"#utility.yul\":10673:10706   */\n      swap1\n      pop\n        /* \"#utility.yul\":10619:10712   */\n      swap2\n      swap1\n      pop\n      jump\t// out\n        /* \"#utility.yul\":10718:10825   */\n    tag_241:\n        /* \"#utility.yul\":10762:10770   */\n      0x00\n        /* \"#utility.yul\":10812:10817   */\n      dup3\n        /* \"#utility.yul\":10806:10810   */\n      dup3\n        /* \"#utility.yul\":10802:10818   */\n      shl\n        /* \"#utility.yul\":10781:10818   */\n      swap1\n      pop\n        /* \"#utility.yul\":10718:10825   */\n      swap3\n      swap2\n      pop\n      pop\n      jump\t// out\n        /* \"#utility.yul\":10831:11224   */\n    tag_242:\n        /* \"#utility.yul\":10900:10906   */\n      0x00\n        /* \"#utility.yul\":10950:10951   */\n      0x08\n        /* \"#utility.yul\":10938:10948   */\n      dup4\n        /* \"#utility.yul\":10934:10952   */\n      mul\n        /* \"#utility.yul\":10973:11070   */\n      tag_376\n        /* \"#utility.yul\":11003:11069   */\n      0xffffffffffffffffffffffffffffffffffffffffffffffffffffffffffffffff\n        /* \"#utility.yul\":10992:11001   */\n      dup3\n        /* \"#utility.yul\":10973:11070   */\n      tag_241\n      jump\t// in\n    tag_376:\n        /* \"#utility.yul\":11091:11130   */\n      tag_377\n        /* \"#utility.yul\":11121:11129   */\n      dup7\n        /* \"#utility.yul\":11110:11119   */\n      dup4\n        /* \"#utility.yul\":11091:11130   */\n      tag_241\n      jump\t// in\n    tag_377:\n        /* \"#utility.yul\":11079:11130   */\n      swap6\n      pop\n        /* \"#utility.yul\":11163:11167   */\n      dup1\n        /* \"#utility.yul\":11159:11168   */\n      not\n        /* \"#utility.yul\":11152:11157   */\n      dup5\n        /* \"#utility.yul\":11148:11169   */\n      and\n        /* \"#utility.yul\":11139:11169   */\n      swap4\n      pop\n        /* \"#utility.yul\":11212:11216   */\n      dup1\n        /* \"#utility.yul\":11202:11210   */\n      dup7\n        /* \"#utility.yul\":11198:11217   */\n      and\n        /* \"#utility.yul\":11191:11196   */\n      dup5\n        /* \"#utility.yul\":11188:11218   */\n      or\n        /* \"#utility.yul\":11178:11218   */\n      swap3\n      pop\n        /* \"#utility.yul\":10907:11224   */\n      pop\n      pop\n        /* \"#utility.yul\":10831:11224   */\n      swap4\n      swap3\n      pop\n      pop\n      pop\n      jump\t// out\n        /* \"#utility.yul\":11230:11290   */\n    tag_243:\n        /* \"#utility.yul\":11258:11261   */\n      0x00\n        /* \"#utility.yul\":11279:11284   */\n      dup2\n        /* \"#utility.yul\":11272:11284   */\n      swap1\n      pop\n        /* \"#utility.yul\":11230:11290   */\n      swap2\n      swap1\n      pop\n      jump\t// out\n        /* \"#utility.yul\":11296:11438   */\n    tag_244:\n        /* \"#utility.yul\":11346:11355   */\n      0x00\n        /* \"#utility.yul\":11379:11432   */\n      tag_380\n        /* \"#utility.yul\":11397:11431   */\n      tag_381\n        /* \"#utility.yul\":11406:11430   */\n      tag_382\n        /* \"#utility.yul\":11424:11429   */\n      dup5\n        /* \"#utility.yul\":11406:11430   */\n      tag_211\n      jump\t// in\n    tag_382:\n        /* \"#utility.yul\":11397:11431   */\n      tag_243\n      jump\t// in\n    tag_381:\n        /* \"#utility.yul\":11379:11432   */\n      tag_211\n      jump\t// in\n    tag_380:\n        /* \"#utility.yul\":11366:11432   */\n      swap1\n      pop\n        /* \"#utility.yul\":11296:11438   */\n      swap2\n      swap1\n      pop\n      jump\t// out\n        /* \"#utility.yul\":11444:11519   */\n    tag_245:\n        /* \"#utility.yul\":11487:11490   */\n      0x00\n        /* \"#utility.yul\":11508:11513   */\n      dup2\n        /* \"#utility.yul\":11501:11513   */\n      swap1\n      pop\n        /* \"#utility.yul\":11444:11519   */\n      swap2\n      swap1\n      pop\n      jump\t// out\n        /* \"#utility.yul\":11525:11794   */\n    tag_246:\n        /* \"#utility.yul\":11635:11674   */\n      tag_385\n        /* \"#utility.yul\":11666:11673   */\n      dup4\n        /* \"#utility.yul\":11635:11674   */\n      tag_244\n      jump\t// in\n    tag_385:\n        /* \"#utility.yul\":11696:11787   */\n      tag_386\n        /* \"#utility.yul\":11745:11786   */\n      tag_387\n        /* \"#utility.yul\":11769:11785   */\n      dup3\n        /* \"#utility.yul\":11745:11786   */\n      tag_245\n      jump\t// in\n    tag_387:\n        /* \"#utility.yul\":11737:11743   */\n      dup5\n        /* \"#utility.yul\":11730:11734   */\n      dup5\n        /* \"#utility.yul\":11724:11735   */\n      sload\n        /* \"#utility.yul\":11696:11787   */\n      tag_242\n      jump\t// in\n    tag_386:\n        /* \"#utility.yul\":11690:11694   */\n      dup3\n        /* \"#utility.yul\":11683:11788   */\n      sstore\n        /* \"#utility.yul\":11601:11794   */\n      pop\n        /* \"#utility.yul\":11525:11794   */\n      pop\n      pop\n      pop\n      jump\t// out\n        /* \"#utility.yul\":11800:11873   */\n    tag_247:\n        /* \"#utility.yul\":11845:11848   */\n      0x00\n        /* \"#utility.yul\":11800:11873   */\n      swap1\n      jump\t// out\n        /* \"#utility.yul\":11879:12068   */\n    tag_248:\n        /* \"#utility.yul\":11956:11988   */\n      tag_390\n      tag_247\n      jump\t// in\n    tag_390:\n        /* \"#utility.yul\":11997:12062   */\n      tag_391\n        /* \"#utility.yul\":12055:12061   */\n      dup2\n        /* \"#utility.yul\":12047:12053   */\n      dup5\n        /* \"#utility.yul\":12041:12045   */\n      dup5\n        /* \"#utility.yul\":11997:12062   */\n      tag_246\n      jump\t// in\n    tag_391:\n        /* \"#utility.yul\":11932:12068   */\n      pop\n        /* \"#utility.yul\":11879:12068   */\n      pop\n      pop\n      jump\t// out\n        /* \"#utility.yul\":12074:12260   */\n    tag_249:\n        /* \"#utility.yul\":12134:12254   */\n    tag_393:\n        /* \"#utility.yul\":12151:12154   */\n      dup2\n        /* \"#utility.yul\":12144:12149   */\n      dup2\n        /* \"#utility.yul\":12141:12155   */\n      lt\n        /* \"#utility.yul\":12134:12254   */\n      iszero\n      tag_395\n      jumpi\n        /* \"#utility.yul\":12205:12244   */\n      tag_396\n        /* \"#utility.yul\":12242:12243   */\n      0x00\n        /* \"#utility.yul\":12235:12240   */\n      dup3\n        /* \"#utility.yul\":12205:12244   */\n      tag_248\n      jump\t// in\n    tag_396:\n        /* \"#utility.yul\":12178:12179   */\n      0x01\n        /* \"#utility.yul\":12171:12176   */\n      dup2\n        /* \"#utility.yul\":12167:12180   */\n      add\n        /* \"#utility.yul\":12158:12180   */\n      swap1\n      pop\n        /* \"#utility.yul\":12134:12254   */\n      jump(tag_393)\n    tag_395:\n        /* \"#utility.yul\":12074:12260   */\n      pop\n      pop\n      jump\t// out\n        /* \"#utility.yul\":12266:12809   */\n    tag_250:\n        /* \"#utility.yul\":12367:12369   */\n      0x1f\n        /* \"#utility.yul\":12362:12365   */\n      dup3\n        /* \"#utility.yul\":12359:12370   */\n      gt\n        /* \"#utility.yul\":12356:12802   */\n      iszero\n      tag_398\n      jumpi\n        /* \"#utility.yul\":12401:12439   */\n      tag_399\n        /* \"#utility.yul\":12433:12438   */\n      dup2\n        /* \"#utility.yul\":12401:12439   */\n      tag_239\n      jump\t// in\n    tag_399:\n        /* \"#utility.yul\":12485:12514   */\n      tag_400\n        /* \"#utility.yul\":12503:12513   */\n      dup5\n        /* \"#utility.yul\":12485:12514   */\n      tag_240\n      jump\t// in\n    tag_400:\n        /* \"#utility.yul\":12475:12483   */\n      dup2\n        /* \"#utility.yul\":12471:12515   */\n      add\n        /* \"#utility.yul\":12668:12670   */\n      0x20\n        /* \"#utility.yul\":12656:12666   */\n      dup6\n        /* \"#utility.yul\":12653:12671   */\n      lt\n        /* \"#utility.yul\":12650:12699   */\n      iszero\n      tag_401\n      jumpi\n        /* \"#utility.yul\":12689:12697   */\n      dup2\n        /* \"#utility.yul\":12674:12697   */\n      swap1\n      pop\n        /* \"#utility.yul\":12650:12699   */\n    tag_401:\n        /* \"#utility.yul\":12712:12792   */\n      tag_402\n        /* \"#utility.yul\":12768:12790   */\n      tag_403\n        /* \"#utility.yul\":12786:12789   */\n      dup6\n        /* \"#utility.yul\":12768:12790   */\n      tag_240\n      jump\t// in\n    tag_403:\n        /* \"#utility.yul\":12758:12766   */\n      dup4\n        /* \"#utility.yul\":12754:12791   */\n      add\n        /* \"#utility.yul\":12741:12752   */\n      dup3\n        /* \"#utility.yul\":12712:12792   */\n      tag_249\n      jump\t// in\n    tag_402:\n        /* \"#utility.yul\":12371:12802   */\n      pop\n      pop\n        /* \"#utility.yul\":12356:12802   */\n    tag_398:\n        /* \"#utility.yul\":12266:12809   */\n      pop\n      pop\n      pop\n      jump\t// out\n        /* \"#utility.yul\":12815:12932   */\n    tag_251:\n        /* \"#utility.yul\":12869:12877   */\n      0x00\n        /* \"#utility.yul\":12919:12924   */\n      dup3\n        /* \"#utility.yul\":12913:12917   */\n      dup3\n        /* \"#utility.yul\":12909:12925   */\n      shr\n        /* \"#utility.yul\":12888:12925   */\n      swap1\n      pop\n        /* \"#utility.yul\":12815:12932   */\n      swap3\n      swap2\n      pop\n      pop\n      jump\t// out\n        /* \"#utility.yul\":12938:13107   */\n    tag_252:\n        /* \"#utility.yul\":12982:12988   */\n      0x00\n        /* \"#utility.yul\":13015:13066   */\n      tag_406\n        /* \"#utility.yul\":13063:13064   */\n      0x00\n        /* \"#utility.yul\":13059:13065   */\n      not\n        /* \"#utility.yul\":13051:13056   */\n      dup5\n        /* \"#utility.yul\":13048:13049   */\n      0x08\n        /* \"#utility.yul\":13044:13057   */\n      mul\n        /* \"#utility.yul\":13015:13066   */\n      tag_251\n      jump\t// in\n    tag_406:\n        /* \"#utility.yul\":13011:13067   */\n      not\n        /* \"#utility.yul\":13096:13100   */\n      dup1\n        /* \"#utility.yul\":13090:13094   */\n      dup4\n        /* \"#utility.yul\":13086:13101   */\n      and\n        /* \"#utility.yul\":13076:13101   */\n      swap2\n      pop\n        /* \"#utility.yul\":12989:13107   */\n      pop\n        /* \"#utility.yul\":12938:13107   */\n      swap3\n      swap2\n      pop\n      pop\n      jump\t// out\n        /* \"#utility.yul\":13112:13407   */\n    tag_253:\n        /* \"#utility.yul\":13188:13192   */\n      0x00\n        /* \"#utility.yul\":13334:13363   */\n      tag_408\n        /* \"#utility.yul\":13359:13362   */\n      dup4\n        /* \"#utility.yul\":13353:13357   */\n      dup4\n        /* \"#utility.yul\":13334:13363   */\n      tag_252\n      jump\t// in\n    tag_408:\n        /* \"#utility.yul\":13326:13363   */\n      swap2\n      pop\n        /* \"#utility.yul\":13396:13399   */\n      dup3\n        /* \"#utility.yul\":13393:13394   */\n      0x02\n        /* \"#utility.yul\":13389:13400   */\n      mul\n        /* \"#utility.yul\":13383:13387   */\n      dup3\n        /* \"#utility.yul\":13380:13401   */\n      or\n        /* \"#utility.yul\":13372:13401   */\n      swap1\n      pop\n        /* \"#utility.yul\":13112:13407   */\n      swap3\n      swap2\n      pop\n      pop\n      jump\t// out\n        /* \"#utility.yul\":13412:14807   */\n    tag_121:\n        /* \"#utility.yul\":13529:13566   */\n      tag_410\n        /* \"#utility.yul\":13562:13565   */\n      dup3\n        /* \"#utility.yul\":13529:13566   */\n      tag_230\n      jump\t// in\n    tag_410:\n        /* \"#utility.yul\":13631:13649   */\n      0xffffffffffffffff\n        /* \"#utility.yul\":13623:13629   */\n      dup2\n        /* \"#utility.yul\":13620:13650   */\n      gt\n        /* \"#utility.yul\":13617:13673   */\n      iszero\n      tag_411\n      jumpi\n        /* \"#utility.yul\":13653:13671   */\n      tag_412\n      tag_217\n      jump\t// in\n    tag_412:\n        /* \"#utility.yul\":13617:13673   */\n    tag_411:\n        /* \"#utility.yul\":13697:13735   */\n      tag_413\n        /* \"#utility.yul\":13729:13733   */\n      dup3\n        /* \"#utility.yul\":13723:13734   */\n      sload\n        /* \"#utility.yul\":13697:13735   */\n      tag_126\n      jump\t// in\n    tag_413:\n        /* \"#utility.yul\":13782:13849   */\n      tag_414\n        /* \"#utility.yul\":13842:13848   */\n      dup3\n        /* \"#utility.yul\":13834:13840   */\n      dup3\n        /* \"#utility.yul\":13828:13832   */\n      dup6\n        /* \"#utility.yul\":13782:13849   */\n      tag_250\n      jump\t// in\n    tag_414:\n        /* \"#utility.yul\":13876:13877   */\n      0x00\n        /* \"#utility.yul\":13900:13904   */\n      0x20\n        /* \"#utility.yul\":13887:13904   */\n      swap1\n      pop\n        /* \"#utility.yul\":13932:13934   */\n      0x1f\n        /* \"#utility.yul\":13924:13930   */\n      dup4\n        /* \"#utility.yul\":13921:13935   */\n      gt\n        /* \"#utility.yul\":13949:13950   */\n      0x01\n        /* \"#utility.yul\":13944:14562   */\n      dup2\n      eq\n      tag_416\n      jumpi\n        /* \"#utility.yul\":14606:14607   */\n      0x00\n        /* \"#utility.yul\":14623:14629   */\n      dup5\n        /* \"#utility.yul\":14620:14697   */\n      iszero\n      tag_417\n      jumpi\n        /* \"#utility.yul\":14672:14681   */\n      dup3\n        /* \"#utility.yul\":14667:14670   */\n      dup8\n        /* \"#utility.yul\":14663:14682   */\n      add\n        /* \"#utility.yul\":14657:14683   */\n      mload\n        /* \"#utility.yul\":14648:14683   */\n      swap1\n      pop\n        /* \"#utility.yul\":14620:14697   */\n    tag_417:\n        /* \"#utility.yul\":14723:14790   */\n      tag_418\n        /* \"#utility.yul\":14783:14789   */\n      dup6\n        /* \"#utility.yul\":14776:14781   */\n      dup3\n        /* \"#utility.yul\":14723:14790   */\n      tag_253\n      jump\t// in\n    tag_418:\n        /* \"#utility.yul\":14717:14721   */\n      dup7\n        /* \"#utility.yul\":14710:14791   */\n      sstore\n        /* \"#utility.yul\":14579:14801   */\n      pop\n        /* \"#utility.yul\":13914:14801   */\n      jump(tag_415)\n        /* \"#utility.yul\":13944:14562   */\n    tag_416:\n        /* \"#utility.yul\":13996:14000   */\n      0x1f\n        /* \"#utility.yul\":13992:14001   */\n      not\n        /* \"#utility.yul\":13984:13990   */\n      dup5\n        /* \"#utility.yul\":13980:14002   */\n      and\n        /* \"#utility.yul\":14030:14067   */\n      tag_419\n        /* \"#utility.yul\":14062:14066   */\n      dup7\n        /* \"#utility.yul\":14030:14067   */\n      tag_239\n      jump\t// in\n    tag_419:\n        /* \"#utility.yul\":14089:14090   */\n      0x00\n        /* \"#utility.yul\":14103:14311   */\n    tag_420:\n        /* \"#utility.yul\":14117:14124   */\n      dup3\n        /* \"#utility.yul\":14114:14115   */\n      dup2\n        /* \"#utility.yul\":14111:14125   */\n      lt\n        /* \"#utility.yul\":14103:14311   */\n      iszero\n      tag_422\n      jumpi\n        /* \"#utility.yul\":14196:14205   */\n      dup5\n        /* \"#utility.yul\":14191:14194   */\n      dup10\n        /* \"#utility.yul\":14187:14206   */\n      add\n        /* \"#utility.yul\":14181:14207   */\n      mload\n        /* \"#utility.yul\":14173:14179   */\n      dup3\n        /* \"#utility.yul\":14166:14208   */\n      sstore\n        /* \"#utility.yul\":14247:14248   */\n      0x01\n        /* \"#utility.yul\":14239:14245   */\n      dup3\n        /* \"#utility.yul\":14235:14249   */\n      add\n        /* \"#utility.yul\":14225:14249   */\n      swap2\n      pop\n        /* \"#utility.yul\":14294:14296   */\n      0x20\n        /* \"#utility.yul\":14283:14292   */\n      dup6\n        /* \"#utility.yul\":14279:14297   */\n      add\n        /* \"#utility.yul\":14266:14297   */\n      swap5\n      pop\n        /* \"#utility.yul\":14140:14144   */\n      0x20\n        /* \"#utility.yul\":14137:14138   */\n      dup2\n        /* \"#utility.yul\":14133:14145   */\n      add\n        /* \"#utility.yul\":14128:14145   */\n      swap1\n      pop\n        /* \"#utility.yul\":14103:14311   */\n      jump(tag_420)\n    tag_422:\n        /* \"#utility.yul\":14339:14345   */\n      dup7\n        /* \"#utility.yul\":14330:14337   */\n      dup4\n        /* \"#utility.yul\":14327:14346   */\n      lt\n        /* \"#utility.yul\":14324:14503   */\n      iszero\n      tag_423\n      jumpi\n        /* \"#utility.yul\":14397:14406   */\n      dup5\n        /* \"#utility.yul\":14392:14395   */\n      dup10\n        /* \"#utility.yul\":14388:14407   */\n      add\n        /* \"#utility.yul\":14382:14408   */\n      mload\n        /* \"#utility.yul\":14440:14488   */\n      tag_424\n        /* \"#utility.yul\":14482:14486   */\n      0x1f\n        /* \"#utility.yul\":14474:14480   */\n      dup10\n        /* \"#utility.yul\":14470:14487   */\n      and\n        /* \"#utility.yul\":14459:14468   */\n      dup3\n        /* \"#utility.yul\":14440:14488   */\n      tag_252\n      jump\t// in\n    tag_424:\n        /* \"#utility.yul\":14432:14438   */\n      dup4\n        /* \"#utility.yul\":14425:14489   */\n      sstore\n        /* \"#utility.yul\":14347:14503   */\n      pop\n        /* \"#utility.yul\":14324:14503   */\n    tag_423:\n        /* \"#utility.yul\":14549:14550   */\n      0x01\n        /* \"#utility.yul\":14545:14546   */\n      0x02\n        /* \"#utility.yul\":14537:14543   */\n      dup9\n        /* \"#utility.yul\":14533:14547   */\n      mul\n        /* \"#utility.yul\":14529:14551   */\n      add\n        /* \"#utility.yul\":14523:14527   */\n      dup9\n        /* \"#utility.yul\":14516:14552   */\n      sstore\n        /* \"#utility.yul\":13951:14562   */\n      pop\n      pop\n      pop\n        /* \"#utility.yul\":13914:14801   */\n    tag_415:\n      pop\n        /* \"#utility.yul\":13504:14807   */\n      pop\n      pop\n      pop\n        /* \"#utility.yul\":13412:14807   */\n      pop\n      pop\n      jump\t// out\n        /* \"#utility.yul\":14813:14993   */\n    tag_254:\n        /* \"#utility.yul\":14861:14938   */\n      0x4e487b7100000000000000000000000000000000000000000000000000000000\n        /* \"#utility.yul\":14858:14859   */\n      0x00\n        /* \"#utility.yul\":14851:14939   */\n      mstore\n        /* \"#utility.yul\":14958:14962   */\n      0x12\n        /* \"#utility.yul\":14955:14956   */\n      0x04\n        /* \"#utility.yul\":14948:14963   */\n      mstore\n        /* \"#utility.yul\":14982:14986   */\n      0x24\n        /* \"#utility.yul\":14979:14980   */\n      0x00\n        /* \"#utility.yul\":14972:14987   */\n      revert\n        /* \"#utility.yul\":14999:15175   */\n    tag_192:\n        /* \"#utility.yul\":15031:15032   */\n      0x00\n        /* \"#utility.yul\":15048:15068   */\n      tag_427\n        /* \"#utility.yul\":15066:15067   */\n      dup3\n        /* \"#utility.yul\":15048:15068   */\n      tag_211\n      jump\t// in\n    tag_427:\n        /* \"#utility.yul\":15043:15068   */\n      swap2\n      pop\n        /* \"#utility.yul\":15082:15102   */\n      tag_428\n        /* \"#utility.yul\":15100:15101   */\n      dup4\n        /* \"#utility.yul\":15082:15102   */\n      tag_211\n      jump\t// in\n    tag_428:\n        /* \"#utility.yul\":15077:15102   */\n      swap3\n      pop\n        /* \"#utility.yul\":15121:15122   */\n      dup3\n        /* \"#utility.yul\":15111:15146   */\n      tag_429\n      jumpi\n        /* \"#utility.yul\":15126:15144   */\n      tag_430\n      tag_254\n      jump\t// in\n    tag_430:\n        /* \"#utility.yul\":15111:15146   */\n    tag_429:\n        /* \"#utility.yul\":15167:15168   */\n      dup3\n        /* \"#utility.yul\":15164:15165   */\n      dup3\n        /* \"#utility.yul\":15160:15169   */\n      mod\n        /* \"#utility.yul\":15155:15169   */\n      swap1\n      pop\n        /* \"#utility.yul\":14999:15175   */\n      swap3\n      swap2\n      pop\n      pop\n      jump\t// out\n        /* \"#utility.yul\":15181:15361   */\n    tag_202:\n        /* \"#utility.yul\":15229:15306   */\n      0x4e487b7100000000000000000000000000000000000000000000000000000000\n        /* \"#utility.yul\":15226:15227   */\n      0x00\n        /* \"#utility.yul\":15219:15307   */\n      mstore\n        /* \"#utility.yul\":15326:15330   */\n      0x32\n        /* \"#utility.yul\":15323:15324   */\n      0x04\n        /* \"#utility.yul\":15316:15331   */\n      mstore\n        /* \"#utility.yul\":15350:15354   */\n      0x24\n        /* \"#utility.yul\":15347:15348   */\n      0x00\n        /* \"#utility.yul\":15340:15355   */\n      revert\n        /* \"#utility.yul\":15367:15547   */\n    tag_255:\n        /* \"#utility.yul\":15415:15492   */\n      0x4e487b7100000000000000000000000000000000000000000000000000000000\n        /* \"#utility.yul\":15412:15413   */\n      0x00\n        /* \"#utility.yul\":15405:15493   */\n      mstore\n        /* \"#utility.yul\":15512:15516   */\n      0x11\n        /* \"#utility.yul\":15509:15510   */\n      0x04\n        /* \"#utility.yul\":15502:15517   */\n      mstore\n        /* \"#utility.yul\":15536:15540   */\n      0x24\n        /* \"#utility.yul\":15533:15534   */\n      0x00\n        /* \"#utility.yul\":15526:15541   */\n      revert\n        /* \"#utility.yul\":15553:15786   */\n    tag_206:\n        /* \"#utility.yul\":15592:15595   */\n      0x00\n        /* \"#utility.yul\":15615:15639   */\n      tag_434\n        /* \"#utility.yul\":15633:15638   */\n      dup3\n        /* \"#utility.yul\":15615:15639   */\n      tag_211\n      jump\t// in\n    tag_434:\n        /* \"#utility.yul\":15606:15639   */\n      swap2\n      pop\n        /* \"#utility.yul\":15661:15727   */\n      0xffffffffffffffffffffffffffffffffffffffffffffffffffffffffffffffff\n        /* \"#utility.yul\":15654:15659   */\n      dup3\n        /* \"#utility.yul\":15651:15728   */\n      sub\n        /* \"#utility.yul\":15648:15751   */\n      tag_435\n      jumpi\n        /* \"#utility.yul\":15731:15749   */\n      tag_436\n      tag_255\n      jump\t// in\n    tag_436:\n        /* \"#utility.yul\":15648:15751   */\n    tag_435:\n        /* \"#utility.yul\":15778:15779   */\n      0x01\n        /* \"#utility.yul\":15771:15776   */\n      dup3\n        /* \"#utility.yul\":15767:15780   */\n      add\n        /* \"#utility.yul\":15760:15780   */\n      swap1\n      pop\n        /* \"#utility.yul\":15553:15786   */\n      swap2\n      swap1\n      pop\n      jump\t// out\n\n    auxdata: 0xa2646970667358221220f438556cd2ef7770bfad6d6918f0759448e356976bcf09b9754ea01c7e9b2aff64736f6c63430008110033\n}\n",
				"bytecode": {
					"linkReferences": {},
					"object": "60806040526001600055600180556040518060400160405280600c81526020017f48656c6c6f20576f726c64210000000000000000000000000000000000000000815250600290816200005391906200095c565b507f68656c6c6f20776f726c6400000000000000000000000000000000000000000060035573958022786c530a428be5407e05345a8675cafcb6600460006101000a81548173ffffffffffffffffffffffffffffffffffffffff021916908373ffffffffffffffffffffffffffffffffffffffff1602179055506040518060600160405280600160ff168152602001600260ff168152602001600360ff168152506005906003620001069291906200049a565b5060405180606001604052806040518060400160405280600581526020017f6170706c6500000000000000000000000000000000000000000000000000000081525081526020016040518060400160405280600681526020017f6f72616e6765000000000000000000000000000000000000000000000000000081525081526020016040518060400160405280600781526020017f62616e616e6e61000000000000000000000000000000000000000000000000008152508152506006906003620001d3929190620004f1565b5060405180604001604052806040518060600160405280600160ff168152602001600260ff168152602001600360ff1681525081526020016040518060600160405280600460ff168152602001600560ff168152602001600660ff1681525081525060089060026200024792919062000551565b506040518060400160405280600181526020016040518060400160405280600c81526020017f48656c6c6f20776f726c64210000000000000000000000000000000000000000815250815250600d600082015181600001556020820151816001019081620002b691906200095c565b505050604051806101400160405280600160ff168152602001600260ff168152602001600360ff168152602001600460ff168152602001600560ff168152602001600660ff168152602001600760ff168152602001600860ff168152602001600960ff168152602001600a60ff16815250600f90600a62000339929190620005b3565b503480156200034757600080fd5b506040518060400160405280600381526020017f4c6f75000000000000000000000000000000000000000000000000000000000081525060096000600181526020019081526020016000209081620003a091906200095c565b506040518060400160405280600681526020017f487564736f6e000000000000000000000000000000000000000000000000000081525060096000600281526020019081526020016000209081620003f991906200095c565b506040518060400160405280600481526020017f4265616e00000000000000000000000000000000000000000000000000000000815250600960006003815260200190815260200160002090816200045291906200095c565b5033600c60006101000a81548173ffffffffffffffffffffffffffffffffffffffff021916908373ffffffffffffffffffffffffffffffffffffffff16021790555062000a43565b828054828255906000526020600020908101928215620004de579160200282015b82811115620004dd578251829060ff16905591602001919060010190620004bb565b5b509050620004ed91906200060a565b5090565b8280548282559060005260206000209081019282156200053e579160200282015b828111156200053d5782518290816200052c91906200095c565b509160200191906001019062000512565b5b5090506200054d919062000629565b5090565b828054828255906000526020600020908101928215620005a0579160200282015b828111156200059f578251829060036200058e9291906200049a565b509160200191906001019062000572565b5b509050620005af919062000651565b5090565b828054828255906000526020600020908101928215620005f7579160200282015b82811115620005f6578251829060ff16905591602001919060010190620005d4565b5b5090506200060691906200060a565b5090565b5b80821115620006255760008160009055506001016200060b565b5090565b5b808211156200064d576000818162000643919062000679565b506001016200062a565b5090565b5b808211156200067557600081816200066b9190620006bf565b5060010162000652565b5090565b50805462000687906200074b565b6000825580601f106200069b5750620006bc565b601f016020900490600052602060002090810190620006bb91906200060a565b5b50565b5080546000825590600052602060002090810190620006df91906200060a565b50565b600081519050919050565b7f4e487b7100000000000000000000000000000000000000000000000000000000600052604160045260246000fd5b7f4e487b7100000000000000000000000000000000000000000000000000000000600052602260045260246000fd5b600060028204905060018216806200076457607f821691505b6020821081036200077a57620007796200071c565b5b50919050565b60008190508160005260206000209050919050565b60006020601f8301049050919050565b600082821b905092915050565b600060088302620007e47fffffffffffffffffffffffffffffffffffffffffffffffffffffffffffffffff82620007a5565b620007f08683620007a5565b95508019841693508086168417925050509392505050565b6000819050919050565b6000819050919050565b60006200083d62000837620008318462000808565b62000812565b62000808565b9050919050565b6000819050919050565b62000859836200081c565b62000871620008688262000844565b848454620007b2565b825550505050565b600090565b6200088862000879565b620008958184846200084e565b505050565b5b81811015620008bd57620008b16000826200087e565b6001810190506200089b565b5050565b601f8211156200090c57620008d68162000780565b620008e18462000795565b81016020851015620008f1578190505b62000909620009008562000795565b8301826200089a565b50505b505050565b600082821c905092915050565b6000620009316000198460080262000911565b1980831691505092915050565b60006200094c83836200091e565b9150826002028217905092915050565b6200096782620006e2565b67ffffffffffffffff811115620009835762000982620006ed565b5b6200098f82546200074b565b6200099c828285620008c1565b600060209050601f831160018114620009d45760008415620009bf578287015190505b620009cb85826200093e565b86555062000a3b565b601f198416620009e48662000780565b60005b8281101562000a0e57848901518255600182019150602085019450602081019050620009e7565b8683101562000a2e578489015162000a2a601f8916826200091e565b8355505b6001600288020188555050505b505050505050565b61169f8062000a536000396000f3fe608060405234801561001057600080fd5b506004361061014d5760003560e01c80635e383d21116100c35780639ae918c71161007c5780639ae918c7146103a7578063a7dbce1c146103d7578063d3268fc1146103f5578063d39fa23314610425578063e5054c6914610455578063f3710a44146104855761014d565b80635e383d21146102bb5780636422c4c8146102eb578063687440461461031b5780638bc9fe6c1461034c5780638da5cb5b1461036b5780638f32d59b146103895761014d565b806327d3553f1161011557806327d3553f146101e65780633a5fbaaa146102175780634622ab0314610233578063492bfa1814610263578063493ec707146102815780634b3e7e0c1461029d5761014d565b8063028414f21461015257806306540f7e1461016e578063209652551461018c57806326b85ee1146101aa57806326eb4dbb146101c8575b600080fd5b61016c60048036038101906101679190610ee0565b6104a3565b005b6101766104ff565b6040516101839190610f7a565b60405180910390f35b610194610505565b6040516101a19190610f7a565b60405180910390f35b6101b2610513565b6040516101bf9190610fd6565b60405180910390f35b6101d0610539565b6040516101dd9190610f7a565b60405180910390f35b61020060048036038101906101fb919061101d565b610546565b60405161020e9291906110dc565b60405180910390f35b610231600480360381019061022c9190611113565b610687565b005b61024d6004803603810190610248919061115c565b6106bf565b60405161025a9190611189565b60405180910390f35b61026b61075f565b6040516102789190611189565b60405180910390f35b61029b60048036038101906102969190610ee0565b6107ed565b005b6102a5610886565b6040516102b291906111c4565b60405180910390f35b6102d560048036038101906102d0919061115c565b61088c565b6040516102e29190611189565b60405180910390f35b6103056004803603810190610300919061115c565b610938565b6040516103129190611189565b60405180910390f35b6103356004803603810190610330919061115c565b6109e4565b6040516103439291906110dc565b60405180910390f35b610354610b18565b6040516103629291906111df565b60405180910390f35b610373610bb2565b6040516103809190610fd6565b60405180910390f35b610391610bd8565b60405161039e919061122a565b60405180910390f35b6103c160048036038101906103bc919061115c565b610c30565b6040516103ce9190610f7a565b60405180910390f35b6103df610c54565b6040516103ec9190610f7a565b60405180910390f35b61040f600480360381019061040a9190611245565b610c5a565b60405161041c9190610f7a565b60405180910390f35b61043f600480360381019061043a919061115c565b610c97565b60405161044c9190610f7a565b60405180910390f35b61046f600480360381019061046a919061115c565b610cbb565b60405161047c919061122a565b60405180910390f35b61048d610ce3565b60405161049a9190610f7a565b60405180910390f35b604051806040016040528083815260200182815250600a600085815260200190815260200160002060008201518160000190816104e09190611491565b5060208201518160010190816104f69190611491565b50905050505050565b60005481565b600080600190508091505090565b600460009054906101000a900473ffffffffffffffffffffffffffffffffffffffff1681565b6000600780549050905090565b600b60205281600052604060002060205280600052604060002060009150915050806000018054610576906112b4565b80601f01602080910402602001604051908101604052809291908181526020018280546105a2906112b4565b80156105ef5780601f106105c4576101008083540402835291602001916105ef565b820191906000526020600020905b8154815290600101906020018083116105d257829003601f168201915b505050505090806001018054610604906112b4565b80601f0160208091040260200160405190810160405280929190818152602001828054610630906112b4565b801561067d5780601f106106525761010080835404028352916020019161067d565b820191906000526020600020905b81548152906001019060200180831161066057829003601f168201915b5050505050905082565b6007819080600181540180825580915050600190039060005260206000200160009091909190915090816106bb9190611491565b5050565b600960205280600052604060002060009150905080546106de906112b4565b80601f016020809104026020016040519081016040528092919081815260200182805461070a906112b4565b80156107575780601f1061072c57610100808354040283529160200191610757565b820191906000526020600020905b81548152906001019060200180831161073a57829003601f168201915b505050505081565b6002805461076c906112b4565b80601f0160208091040260200160405190810160405280929190818152602001828054610798906112b4565b80156107e55780601f106107ba576101008083540402835291602001916107e5565b820191906000526020600020905b8154815290600101906020018083116107c857829003601f168201915b505050505081565b604051806040016040528083815260200182815250600b60003373ffffffffffffffffffffffffffffffffffffffff1673ffffffffffffffffffffffffffffffffffffffff168152602001908152602001600020600085815260200190815260200160002060008201518160000190816108679190611491565b50602082015181600101908161087d9190611491565b50905050505050565b60035481565b6007818154811061089c57600080fd5b9060005260206000200160009150905080546108b7906112b4565b80601f01602080910402602001604051908101604052809291908181526020018280546108e3906112b4565b80156109305780601f1061090557610100808354040283529160200191610930565b820191906000526020600020905b81548152906001019060200180831161091357829003601f168201915b505050505081565b6006818154811061094857600080fd5b906000526020600020016000915090508054610963906112b4565b80601f016020809104026020016040519081016040528092919081815260200182805461098f906112b4565b80156109dc5780601f106109b1576101008083540402835291602001916109dc565b820191906000526020600020905b8154815290600101906020018083116109bf57829003601f168201915b505050505081565b600a602052806000526040600020600091509050806000018054610a07906112b4565b80601f0160208091040260200160405190810160405280929190818152602001828054610a33906112b4565b8015610a805780601f10610a5557610100808354040283529160200191610a80565b820191906000526020600020905b815481529060010190602001808311610a6357829003601f168201915b505050505090806001018054610a95906112b4565b80601f0160208091040260200160405190810160405280929190818152602001828054610ac1906112b4565b8015610b0e5780601f10610ae357610100808354040283529160200191610b0e565b820191906000526020600020905b815481529060010190602001808311610af157829003601f168201915b5050505050905082565b600d806000015490806001018054610b2f906112b4565b80601f0160208091040260200160405190810160405280929190818152602001828054610b5b906112b4565b8015610ba85780601f10610b7d57610100808354040283529160200191610ba8565b820191906000526020600020905b815481529060010190602001808311610b8b57829003601f168201915b5050505050905082565b600c60009054906101000a900473ffffffffffffffffffffffffffffffffffffffff1681565b6000600c60009054906101000a900473ffffffffffffffffffffffffffffffffffffffff1673ffffffffffffffffffffffffffffffffffffffff163373ffffffffffffffffffffffffffffffffffffffff1614905090565b60058181548110610c4057600080fd5b906000526020600020016000915090505481565b60015481565b60088281548110610c6a57600080fd5b906000526020600020018181548110610c8257600080fd5b90600052602060002001600091509150505481565b600f8181548110610ca757600080fd5b906000526020600020016000915090505481565b600080600283610ccb9190611592565b03610cd95760019050610cde565b600090505b919050565b6000806000905060005b600f80549050811015610d4857610d21600f8281548110610d1157610d106115c3565b5b9060005260206000200154610cbb565b15610d35578180610d3190611621565b9250505b8080610d4090611621565b915050610ced565b508091505090565b6000604051905090565b600080fd5b600080fd5b6000819050919050565b610d7781610d64565b8114610d8257600080fd5b50565b600081359050610d9481610d6e565b92915050565b600080fd5b600080fd5b6000601f19601f8301169050919050565b7f4e487b7100000000000000000000000000000000000000000000000000000000600052604160045260246000fd5b610ded82610da4565b810181811067ffffffffffffffff82111715610e0c57610e0b610db5565b5b80604052505050565b6000610e1f610d50565b9050610e2b8282610de4565b919050565b600067ffffffffffffffff821115610e4b57610e4a610db5565b5b610e5482610da4565b9050602081019050919050565b82818337600083830152505050565b6000610e83610e7e84610e30565b610e15565b905082815260208101848484011115610e9f57610e9e610d9f565b5b610eaa848285610e61565b509392505050565b600082601f830112610ec757610ec6610d9a565b5b8135610ed7848260208601610e70565b91505092915050565b600080600060608486031215610ef957610ef8610d5a565b5b6000610f0786828701610d85565b935050602084013567ffffffffffffffff811115610f2857610f27610d5f565b5b610f3486828701610eb2565b925050604084013567ffffffffffffffff811115610f5557610f54610d5f565b5b610f6186828701610eb2565b9150509250925092565b610f7481610d64565b82525050565b6000602082019050610f8f6000830184610f6b565b92915050565b600073ffffffffffffffffffffffffffffffffffffffff82169050919050565b6000610fc082610f95565b9050919050565b610fd081610fb5565b82525050565b6000602082019050610feb6000830184610fc7565b92915050565b610ffa81610fb5565b811461100557600080fd5b50565b60008135905061101781610ff1565b92915050565b6000806040838503121561103457611033610d5a565b5b600061104285828601611008565b925050602061105385828601610d85565b9150509250929050565b600081519050919050565b600082825260208201905092915050565b60005b8381101561109757808201518184015260208101905061107c565b60008484015250505050565b60006110ae8261105d565b6110b88185611068565b93506110c8818560208601611079565b6110d181610da4565b840191505092915050565b600060408201905081810360008301526110f681856110a3565b9050818103602083015261110a81846110a3565b90509392505050565b60006020828403121561112957611128610d5a565b5b600082013567ffffffffffffffff81111561114757611146610d5f565b5b61115384828501610eb2565b91505092915050565b60006020828403121561117257611171610d5a565b5b600061118084828501610d85565b91505092915050565b600060208201905081810360008301526111a381846110a3565b905092915050565b6000819050919050565b6111be816111ab565b82525050565b60006020820190506111d960008301846111b5565b92915050565b60006040820190506111f46000830185610f6b565b818103602083015261120681846110a3565b90509392505050565b60008115159050919050565b6112248161120f565b82525050565b600060208201905061123f600083018461121b565b92915050565b6000806040838503121561125c5761125b610d5a565b5b600061126a85828601610d85565b925050602061127b85828601610d85565b9150509250929050565b7f4e487b7100000000000000000000000000000000000000000000000000000000600052602260045260246000fd5b600060028204905060018216806112cc57607f821691505b6020821081036112df576112de611285565b5b50919050565b60008190508160005260206000209050919050565b60006020601f8301049050919050565b600082821b905092915050565b6000600883026113477fffffffffffffffffffffffffffffffffffffffffffffffffffffffffffffffff8261130a565b611351868361130a565b95508019841693508086168417925050509392505050565b6000819050919050565b600061138e61138961138484610d64565b611369565b610d64565b9050919050565b6000819050919050565b6113a883611373565b6113bc6113b482611395565b848454611317565b825550505050565b600090565b6113d16113c4565b6113dc81848461139f565b505050565b5b81811015611400576113f56000826113c9565b6001810190506113e2565b5050565b601f82111561144557611416816112e5565b61141f846112fa565b8101602085101561142e578190505b61144261143a856112fa565b8301826113e1565b50505b505050565b600082821c905092915050565b60006114686000198460080261144a565b1980831691505092915050565b60006114818383611457565b9150826002028217905092915050565b61149a8261105d565b67ffffffffffffffff8111156114b3576114b2610db5565b5b6114bd82546112b4565b6114c8828285611404565b600060209050601f8311600181146114fb57600084156114e9578287015190505b6114f38582611475565b86555061155b565b601f198416611509866112e5565b60005b828110156115315784890151825560018201915060208501945060208101905061150c565b8683101561154e578489015161154a601f891682611457565b8355505b6001600288020188555050505b505050505050565b7f4e487b7100000000000000000000000000000000000000000000000000000000600052601260045260246000fd5b600061159d82610d64565b91506115a883610d64565b9250826115b8576115b7611563565b5b828206905092915050565b7f4e487b7100000000000000000000000000000000000000000000000000000000600052603260045260246000fd5b7f4e487b7100000000000000000000000000000000000000000000000000000000600052601160045260246000fd5b600061162c82610d64565b91507fffffffffffffffffffffffffffffffffffffffffffffffffffffffffffffffff820361165e5761165d6115f2565b5b60018201905091905056fea2646970667358221220f438556cd2ef7770bfad6d6918f0759448e356976bcf09b9754ea01c7e9b2aff64736f6c63430008110033",
					"opcodes": "PUSH1 0x80 PUSH1 0x40 MSTORE PUSH1 0x1 PUSH1 0x0 SSTORE PUSH1 0x1 DUP1 SSTORE PUSH1 0x40 MLOAD DUP1 PUSH1 0x40 ADD PUSH1 0x40 MSTORE DUP1 PUSH1 0xC DUP2 MSTORE PUSH1 0x20 ADD PUSH32 0x48656C6C6F20576F726C64210000000000000000000000000000000000000000 DUP2 MSTORE POP PUSH1 0x2 SWAP1 DUP2 PUSH3 0x53 SWAP2 SWAP1 PUSH3 0x95C JUMP JUMPDEST POP PUSH32 0x68656C6C6F20776F726C64000000000000000000000000000000000000000000 PUSH1 0x3 SSTORE PUSH20 0x958022786C530A428BE5407E05345A8675CAFCB6 PUSH1 0x4 PUSH1 0x0 PUSH2 0x100 EXP DUP2 SLOAD DUP2 PUSH20 0xFFFFFFFFFFFFFFFFFFFFFFFFFFFFFFFFFFFFFFFF MUL NOT AND SWAP1 DUP4 PUSH20 0xFFFFFFFFFFFFFFFFFFFFFFFFFFFFFFFFFFFFFFFF AND MUL OR SWAP1 SSTORE POP PUSH1 0x40 MLOAD DUP1 PUSH1 0x60 ADD PUSH1 0x40 MSTORE DUP1 PUSH1 0x1 PUSH1 0xFF AND DUP2 MSTORE PUSH1 0x20 ADD PUSH1 0x2 PUSH1 0xFF AND DUP2 MSTORE PUSH1 0x20 ADD PUSH1 0x3 PUSH1 0xFF AND DUP2 MSTORE POP PUSH1 0x5 SWAP1 PUSH1 0x3 PUSH3 0x106 SWAP3 SWAP2 SWAP1 PUSH3 0x49A JUMP JUMPDEST POP PUSH1 0x40 MLOAD DUP1 PUSH1 0x60 ADD PUSH1 0x40 MSTORE DUP1 PUSH1 0x40 MLOAD DUP1 PUSH1 0x40 ADD PUSH1 0x40 MSTORE DUP1 PUSH1 0x5 DUP2 MSTORE PUSH1 0x20 ADD PUSH32 0x6170706C65000000000000000000000000000000000000000000000000000000 DUP2 MSTORE POP DUP2 MSTORE PUSH1 0x20 ADD PUSH1 0x40 MLOAD DUP1 PUSH1 0x40 ADD PUSH1 0x40 MSTORE DUP1 PUSH1 0x6 DUP2 MSTORE PUSH1 0x20 ADD PUSH32 0x6F72616E67650000000000000000000000000000000000000000000000000000 DUP2 MSTORE POP DUP2 MSTORE PUSH1 0x20 ADD PUSH1 0x40 MLOAD DUP1 PUSH1 0x40 ADD PUSH1 0x40 MSTORE DUP1 PUSH1 0x7 DUP2 MSTORE PUSH1 0x20 ADD PUSH32 0x62616E616E6E6100000000000000000000000000000000000000000000000000 DUP2 MSTORE POP DUP2 MSTORE POP PUSH1 0x6 SWAP1 PUSH1 0x3 PUSH3 0x1D3 SWAP3 SWAP2 SWAP1 PUSH3 0x4F1 JUMP JUMPDEST POP PUSH1 0x40 MLOAD DUP1 PUSH1 0x40 ADD PUSH1 0x40 MSTORE DUP1 PUSH1 0x40 MLOAD DUP1 PUSH1 0x60 ADD PUSH1 0x40 MSTORE DUP1 PUSH1 0x1 PUSH1 0xFF AND DUP2 MSTORE PUSH1 0x20 ADD PUSH1 0x2 PUSH1 0xFF AND DUP2 MSTORE PUSH1 0x20 ADD PUSH1 0x3 PUSH1 0xFF AND DUP2 MSTORE POP DUP2 MSTORE PUSH1 0x20 ADD PUSH1 0x40 MLOAD DUP1 PUSH1 0x60 ADD PUSH1 0x40 MSTORE DUP1 PUSH1 0x4 PUSH1 0xFF AND DUP2 MSTORE PUSH1 0x20 ADD PUSH1 0x5 PUSH1 0xFF AND DUP2 MSTORE PUSH1 0x20 ADD PUSH1 0x6 PUSH1 0xFF AND DUP2 MSTORE POP DUP2 MSTORE POP PUSH1 0x8 SWAP1 PUSH1 0x2 PUSH3 0x247 SWAP3 SWAP2 SWAP1 PUSH3 0x551 JUMP JUMPDEST POP PUSH1 0x40 MLOAD DUP1 PUSH1 0x40 ADD PUSH1 0x40 MSTORE DUP1 PUSH1 0x1 DUP2 MSTORE PUSH1 0x20 ADD PUSH1 0x40 MLOAD DUP1 PUSH1 0x40 ADD PUSH1 0x40 MSTORE DUP1 PUSH1 0xC DUP2 MSTORE PUSH1 0x20 ADD PUSH32 0x48656C6C6F20776F726C64210000000000000000000000000000000000000000 DUP2 MSTORE POP DUP2 MSTORE POP PUSH1 0xD PUSH1 0x0 DUP3 ADD MLOAD DUP2 PUSH1 0x0 ADD SSTORE PUSH1 0x20 DUP3 ADD MLOAD DUP2 PUSH1 0x1 ADD SWAP1 DUP2 PUSH3 0x2B6 SWAP2 SWAP1 PUSH3 0x95C JUMP JUMPDEST POP POP POP PUSH1 0x40 MLOAD DUP1 PUSH2 0x140 ADD PUSH1 0x40 MSTORE DUP1 PUSH1 0x1 PUSH1 0xFF AND DUP2 MSTORE PUSH1 0x20 ADD PUSH1 0x2 PUSH1 0xFF AND DUP2 MSTORE PUSH1 0x20 ADD PUSH1 0x3 PUSH1 0xFF AND DUP2 MSTORE PUSH1 0x20 ADD PUSH1 0x4 PUSH1 0xFF AND DUP2 MSTORE PUSH1 0x20 ADD PUSH1 0x5 PUSH1 0xFF AND DUP2 MSTORE PUSH1 0x20 ADD PUSH1 0x6 PUSH1 0xFF AND DUP2 MSTORE PUSH1 0x20 ADD PUSH1 0x7 PUSH1 0xFF AND DUP2 MSTORE PUSH1 0x20 ADD PUSH1 0x8 PUSH1 0xFF AND DUP2 MSTORE PUSH1 0x20 ADD PUSH1 0x9 PUSH1 0xFF AND DUP2 MSTORE PUSH1 0x20 ADD PUSH1 0xA PUSH1 0xFF AND DUP2 MSTORE POP PUSH1 0xF SWAP1 PUSH1 0xA PUSH3 0x339 SWAP3 SWAP2 SWAP1 PUSH3 0x5B3 JUMP JUMPDEST POP CALLVALUE DUP1 ISZERO PUSH3 0x347 JUMPI PUSH1 0x0 DUP1 REVERT JUMPDEST POP PUSH1 0x40 MLOAD DUP1 PUSH1 0x40 ADD PUSH1 0x40 MSTORE DUP1 PUSH1 0x3 DUP2 MSTORE PUSH1 0x20 ADD PUSH32 0x4C6F750000000000000000000000000000000000000000000000000000000000 DUP2 MSTORE POP PUSH1 0x9 PUSH1 0x0 PUSH1 0x1 DUP2 MSTORE PUSH1 0x20 ADD SWAP1 DUP2 MSTORE PUSH1 0x20 ADD PUSH1 0x0 KECCAK256 SWAP1 DUP2 PUSH3 0x3A0 SWAP2 SWAP1 PUSH3 0x95C JUMP JUMPDEST POP PUSH1 0x40 MLOAD DUP1 PUSH1 0x40 ADD PUSH1 0x40 MSTORE DUP1 PUSH1 0x6 DUP2 MSTORE PUSH1 0x20 ADD PUSH32 0x487564736F6E0000000000000000000000000000000000000000000000000000 DUP2 MSTORE POP PUSH1 0x9 PUSH1 0x0 PUSH1 0x2 DUP2 MSTORE PUSH1 0x20 ADD SWAP1 DUP2 MSTORE PUSH1 0x20 ADD PUSH1 0x0 KECCAK256 SWAP1 DUP2 PUSH3 0x3F9 SWAP2 SWAP1 PUSH3 0x95C JUMP JUMPDEST POP PUSH1 0x40 MLOAD DUP1 PUSH1 0x40 ADD PUSH1 0x40 MSTORE DUP1 PUSH1 0x4 DUP2 MSTORE PUSH1 0x20 ADD PUSH32 0x4265616E00000000000000000000000000000000000000000000000000000000 DUP2 MSTORE POP PUSH1 0x9 PUSH1 0x0 PUSH1 0x3 DUP2 MSTORE PUSH1 0x20 ADD SWAP1 DUP2 MSTORE PUSH1 0x20 ADD PUSH1 0x0 KECCAK256 SWAP1 DUP2 PUSH3 0x452 SWAP2 SWAP1 PUSH3 0x95C JUMP JUMPDEST POP CALLER PUSH1 0xC PUSH1 0x0 PUSH2 0x100 EXP DUP2 SLOAD DUP2 PUSH20 0xFFFFFFFFFFFFFFFFFFFFFFFFFFFFFFFFFFFFFFFF MUL NOT AND SWAP1 DUP4 PUSH20 0xFFFFFFFFFFFFFFFFFFFFFFFFFFFFFFFFFFFFFFFF AND MUL OR SWAP1 SSTORE POP PUSH3 0xA43 JUMP JUMPDEST DUP3 DUP1 SLOAD DUP3 DUP3 SSTORE SWAP1 PUSH1 0x0 MSTORE PUSH1 0x20 PUSH1 0x0 KECCAK256 SWAP1 DUP2 ADD SWAP3 DUP3 ISZERO PUSH3 0x4DE JUMPI SWAP2 PUSH1 0x20 MUL DUP3 ADD JUMPDEST DUP3 DUP2 GT ISZERO PUSH3 0x4DD JUMPI DUP3 MLOAD DUP3 SWAP1 PUSH1 0xFF AND SWAP1 SSTORE SWAP2 PUSH1 0x20 ADD SWAP2 SWAP1 PUSH1 0x1 ADD SWAP1 PUSH3 0x4BB JUMP JUMPDEST JUMPDEST POP SWAP1 POP PUSH3 0x4ED SWAP2 SWAP1 PUSH3 0x60A JUMP JUMPDEST POP SWAP1 JUMP JUMPDEST DUP3 DUP1 SLOAD DUP3 DUP3 SSTORE SWAP1 PUSH1 0x0 MSTORE PUSH1 0x20 PUSH1 0x0 KECCAK256 SWAP1 DUP2 ADD SWAP3 DUP3 ISZERO PUSH3 0x53E JUMPI SWAP2 PUSH1 0x20 MUL DUP3 ADD JUMPDEST DUP3 DUP2 GT ISZERO PUSH3 0x53D JUMPI DUP3 MLOAD DUP3 SWAP1 DUP2 PUSH3 0x52C SWAP2 SWAP1 PUSH3 0x95C JUMP JUMPDEST POP SWAP2 PUSH1 0x20 ADD SWAP2 SWAP1 PUSH1 0x1 ADD SWAP1 PUSH3 0x512 JUMP JUMPDEST JUMPDEST POP SWAP1 POP PUSH3 0x54D SWAP2 SWAP1 PUSH3 0x629 JUMP JUMPDEST POP SWAP1 JUMP JUMPDEST DUP3 DUP1 SLOAD DUP3 DUP3 SSTORE SWAP1 PUSH1 0x0 MSTORE PUSH1 0x20 PUSH1 0x0 KECCAK256 SWAP1 DUP2 ADD SWAP3 DUP3 ISZERO PUSH3 0x5A0 JUMPI SWAP2 PUSH1 0x20 MUL DUP3 ADD JUMPDEST DUP3 DUP2 GT ISZERO PUSH3 0x59F JUMPI DUP3 MLOAD DUP3 SWAP1 PUSH1 0x3 PUSH3 0x58E SWAP3 SWAP2 SWAP1 PUSH3 0x49A JUMP JUMPDEST POP SWAP2 PUSH1 0x20 ADD SWAP2 SWAP1 PUSH1 0x1 ADD SWAP1 PUSH3 0x572 JUMP JUMPDEST JUMPDEST POP SWAP1 POP PUSH3 0x5AF SWAP2 SWAP1 PUSH3 0x651 JUMP JUMPDEST POP SWAP1 JUMP JUMPDEST DUP3 DUP1 SLOAD DUP3 DUP3 SSTORE SWAP1 PUSH1 0x0 MSTORE PUSH1 0x20 PUSH1 0x0 KECCAK256 SWAP1 DUP2 ADD SWAP3 DUP3 ISZERO PUSH3 0x5F7 JUMPI SWAP2 PUSH1 0x20 MUL DUP3 ADD JUMPDEST DUP3 DUP2 GT ISZERO PUSH3 0x5F6 JUMPI DUP3 MLOAD DUP3 SWAP1 PUSH1 0xFF AND SWAP1 SSTORE SWAP2 PUSH1 0x20 ADD SWAP2 SWAP1 PUSH1 0x1 ADD SWAP1 PUSH3 0x5D4 JUMP JUMPDEST JUMPDEST POP SWAP1 POP PUSH3 0x606 SWAP2 SWAP1 PUSH3 0x60A JUMP JUMPDEST POP SWAP1 JUMP JUMPDEST JUMPDEST DUP1 DUP3 GT ISZERO PUSH3 0x625 JUMPI PUSH1 0x0 DUP2 PUSH1 0x0 SWAP1 SSTORE POP PUSH1 0x1 ADD PUSH3 0x60B JUMP JUMPDEST POP SWAP1 JUMP JUMPDEST JUMPDEST DUP1 DUP3 GT ISZERO PUSH3 0x64D JUMPI PUSH1 0x0 DUP2 DUP2 PUSH3 0x643 SWAP2 SWAP1 PUSH3 0x679 JUMP JUMPDEST POP PUSH1 0x1 ADD PUSH3 0x62A JUMP JUMPDEST POP SWAP1 JUMP JUMPDEST JUMPDEST DUP1 DUP3 GT ISZERO PUSH3 0x675 JUMPI PUSH1 0x0 DUP2 DUP2 PUSH3 0x66B SWAP2 SWAP1 PUSH3 0x6BF JUMP JUMPDEST POP PUSH1 0x1 ADD PUSH3 0x652 JUMP JUMPDEST POP SWAP1 JUMP JUMPDEST POP DUP1 SLOAD PUSH3 0x687 SWAP1 PUSH3 0x74B JUMP JUMPDEST PUSH1 0x0 DUP3 SSTORE DUP1 PUSH1 0x1F LT PUSH3 0x69B JUMPI POP PUSH3 0x6BC JUMP JUMPDEST PUSH1 0x1F ADD PUSH1 0x20 SWAP1 DIV SWAP1 PUSH1 0x0 MSTORE PUSH1 0x20 PUSH1 0x0 KECCAK256 SWAP1 DUP2 ADD SWAP1 PUSH3 0x6BB SWAP2 SWAP1 PUSH3 0x60A JUMP JUMPDEST JUMPDEST POP JUMP JUMPDEST POP DUP1 SLOAD PUSH1 0x0 DUP3 SSTORE SWAP1 PUSH1 0x0 MSTORE PUSH1 0x20 PUSH1 0x0 KECCAK256 SWAP1 DUP2 ADD SWAP1 PUSH3 0x6DF SWAP2 SWAP1 PUSH3 0x60A JUMP JUMPDEST POP JUMP JUMPDEST PUSH1 0x0 DUP2 MLOAD SWAP1 POP SWAP2 SWAP1 POP JUMP JUMPDEST PUSH32 0x4E487B7100000000000000000000000000000000000000000000000000000000 PUSH1 0x0 MSTORE PUSH1 0x41 PUSH1 0x4 MSTORE PUSH1 0x24 PUSH1 0x0 REVERT JUMPDEST PUSH32 0x4E487B7100000000000000000000000000000000000000000000000000000000 PUSH1 0x0 MSTORE PUSH1 0x22 PUSH1 0x4 MSTORE PUSH1 0x24 PUSH1 0x0 REVERT JUMPDEST PUSH1 0x0 PUSH1 0x2 DUP3 DIV SWAP1 POP PUSH1 0x1 DUP3 AND DUP1 PUSH3 0x764 JUMPI PUSH1 0x7F DUP3 AND SWAP2 POP JUMPDEST PUSH1 0x20 DUP3 LT DUP2 SUB PUSH3 0x77A JUMPI PUSH3 0x779 PUSH3 0x71C JUMP JUMPDEST JUMPDEST POP SWAP2 SWAP1 POP JUMP JUMPDEST PUSH1 0x0 DUP2 SWAP1 POP DUP2 PUSH1 0x0 MSTORE PUSH1 0x20 PUSH1 0x0 KECCAK256 SWAP1 POP SWAP2 SWAP1 POP JUMP JUMPDEST PUSH1 0x0 PUSH1 0x20 PUSH1 0x1F DUP4 ADD DIV SWAP1 POP SWAP2 SWAP1 POP JUMP JUMPDEST PUSH1 0x0 DUP3 DUP3 SHL SWAP1 POP SWAP3 SWAP2 POP POP JUMP JUMPDEST PUSH1 0x0 PUSH1 0x8 DUP4 MUL PUSH3 0x7E4 PUSH32 0xFFFFFFFFFFFFFFFFFFFFFFFFFFFFFFFFFFFFFFFFFFFFFFFFFFFFFFFFFFFFFFFF DUP3 PUSH3 0x7A5 JUMP JUMPDEST PUSH3 0x7F0 DUP7 DUP4 PUSH3 0x7A5 JUMP JUMPDEST SWAP6 POP DUP1 NOT DUP5 AND SWAP4 POP DUP1 DUP7 AND DUP5 OR SWAP3 POP POP POP SWAP4 SWAP3 POP POP POP JUMP JUMPDEST PUSH1 0x0 DUP2 SWAP1 POP SWAP2 SWAP1 POP JUMP JUMPDEST PUSH1 0x0 DUP2 SWAP1 POP SWAP2 SWAP1 POP JUMP JUMPDEST PUSH1 0x0 PUSH3 0x83D PUSH3 0x837 PUSH3 0x831 DUP5 PUSH3 0x808 JUMP JUMPDEST PUSH3 0x812 JUMP JUMPDEST PUSH3 0x808 JUMP JUMPDEST SWAP1 POP SWAP2 SWAP1 POP JUMP JUMPDEST PUSH1 0x0 DUP2 SWAP1 POP SWAP2 SWAP1 POP JUMP JUMPDEST PUSH3 0x859 DUP4 PUSH3 0x81C JUMP JUMPDEST PUSH3 0x871 PUSH3 0x868 DUP3 PUSH3 0x844 JUMP JUMPDEST DUP5 DUP5 SLOAD PUSH3 0x7B2 JUMP JUMPDEST DUP3 SSTORE POP POP POP POP JUMP JUMPDEST PUSH1 0x0 SWAP1 JUMP JUMPDEST PUSH3 0x888 PUSH3 0x879 JUMP JUMPDEST PUSH3 0x895 DUP2 DUP5 DUP5 PUSH3 0x84E JUMP JUMPDEST POP POP POP JUMP JUMPDEST JUMPDEST DUP2 DUP2 LT ISZERO PUSH3 0x8BD JUMPI PUSH3 0x8B1 PUSH1 0x0 DUP3 PUSH3 0x87E JUMP JUMPDEST PUSH1 0x1 DUP2 ADD SWAP1 POP PUSH3 0x89B JUMP JUMPDEST POP POP JUMP JUMPDEST PUSH1 0x1F DUP3 GT ISZERO PUSH3 0x90C JUMPI PUSH3 0x8D6 DUP2 PUSH3 0x780 JUMP JUMPDEST PUSH3 0x8E1 DUP5 PUSH3 0x795 JUMP JUMPDEST DUP2 ADD PUSH1 0x20 DUP6 LT ISZERO PUSH3 0x8F1 JUMPI DUP2 SWAP1 POP JUMPDEST PUSH3 0x909 PUSH3 0x900 DUP6 PUSH3 0x795 JUMP JUMPDEST DUP4 ADD DUP3 PUSH3 0x89A JUMP JUMPDEST POP POP JUMPDEST POP POP POP JUMP JUMPDEST PUSH1 0x0 DUP3 DUP3 SHR SWAP1 POP SWAP3 SWAP2 POP POP JUMP JUMPDEST PUSH1 0x0 PUSH3 0x931 PUSH1 0x0 NOT DUP5 PUSH1 0x8 MUL PUSH3 0x911 JUMP JUMPDEST NOT DUP1 DUP4 AND SWAP2 POP POP SWAP3 SWAP2 POP POP JUMP JUMPDEST PUSH1 0x0 PUSH3 0x94C DUP4 DUP4 PUSH3 0x91E JUMP JUMPDEST SWAP2 POP DUP3 PUSH1 0x2 MUL DUP3 OR SWAP1 POP SWAP3 SWAP2 POP POP JUMP JUMPDEST PUSH3 0x967 DUP3 PUSH3 0x6E2 JUMP JUMPDEST PUSH8 0xFFFFFFFFFFFFFFFF DUP2 GT ISZERO PUSH3 0x983 JUMPI PUSH3 0x982 PUSH3 0x6ED JUMP JUMPDEST JUMPDEST PUSH3 0x98F DUP3 SLOAD PUSH3 0x74B JUMP JUMPDEST PUSH3 0x99C DUP3 DUP3 DUP6 PUSH3 0x8C1 JUMP JUMPDEST PUSH1 0x0 PUSH1 0x20 SWAP1 POP PUSH1 0x1F DUP4 GT PUSH1 0x1 DUP2 EQ PUSH3 0x9D4 JUMPI PUSH1 0x0 DUP5 ISZERO PUSH3 0x9BF JUMPI DUP3 DUP8 ADD MLOAD SWAP1 POP JUMPDEST PUSH3 0x9CB DUP6 DUP3 PUSH3 0x93E JUMP JUMPDEST DUP7 SSTORE POP PUSH3 0xA3B JUMP JUMPDEST PUSH1 0x1F NOT DUP5 AND PUSH3 0x9E4 DUP7 PUSH3 0x780 JUMP JUMPDEST PUSH1 0x0 JUMPDEST DUP3 DUP2 LT ISZERO PUSH3 0xA0E JUMPI DUP5 DUP10 ADD MLOAD DUP3 SSTORE PUSH1 0x1 DUP3 ADD SWAP2 POP PUSH1 0x20 DUP6 ADD SWAP5 POP PUSH1 0x20 DUP2 ADD SWAP1 POP PUSH3 0x9E7 JUMP JUMPDEST DUP7 DUP4 LT ISZERO PUSH3 0xA2E JUMPI DUP5 DUP10 ADD MLOAD PUSH3 0xA2A PUSH1 0x1F DUP10 AND DUP3 PUSH3 0x91E JUMP JUMPDEST DUP4 SSTORE POP JUMPDEST PUSH1 0x1 PUSH1 0x2 DUP9 MUL ADD DUP9 SSTORE POP POP POP JUMPDEST POP POP POP POP POP POP JUMP JUMPDEST PUSH2 0x169F DUP1 PUSH3 0xA53 PUSH1 0x0 CODECOPY PUSH1 0x0 RETURN INVALID PUSH1 0x80 PUSH1 0x40 MSTORE CALLVALUE DUP1 ISZERO PUSH2 0x10 JUMPI PUSH1 0x0 DUP1 REVERT JUMPDEST POP PUSH1 0x4 CALLDATASIZE LT PUSH2 0x14D JUMPI PUSH1 0x0 CALLDATALOAD PUSH1 0xE0 SHR DUP1 PUSH4 0x5E383D21 GT PUSH2 0xC3 JUMPI DUP1 PUSH4 0x9AE918C7 GT PUSH2 0x7C JUMPI DUP1 PUSH4 0x9AE918C7 EQ PUSH2 0x3A7 JUMPI DUP1 PUSH4 0xA7DBCE1C EQ PUSH2 0x3D7 JUMPI DUP1 PUSH4 0xD3268FC1 EQ PUSH2 0x3F5 JUMPI DUP1 PUSH4 0xD39FA233 EQ PUSH2 0x425 JUMPI DUP1 PUSH4 0xE5054C69 EQ PUSH2 0x455 JUMPI DUP1 PUSH4 0xF3710A44 EQ PUSH2 0x485 JUMPI PUSH2 0x14D JUMP JUMPDEST DUP1 PUSH4 0x5E383D21 EQ PUSH2 0x2BB JUMPI DUP1 PUSH4 0x6422C4C8 EQ PUSH2 0x2EB JUMPI DUP1 PUSH4 0x68744046 EQ PUSH2 0x31B JUMPI DUP1 PUSH4 0x8BC9FE6C EQ PUSH2 0x34C JUMPI DUP1 PUSH4 0x8DA5CB5B EQ PUSH2 0x36B JUMPI DUP1 PUSH4 0x8F32D59B EQ PUSH2 0x389 JUMPI PUSH2 0x14D JUMP JUMPDEST DUP1 PUSH4 0x27D3553F GT PUSH2 0x115 JUMPI DUP1 PUSH4 0x27D3553F EQ PUSH2 0x1E6 JUMPI DUP1 PUSH4 0x3A5FBAAA EQ PUSH2 0x217 JUMPI DUP1 PUSH4 0x4622AB03 EQ PUSH2 0x233 JUMPI DUP1 PUSH4 0x492BFA18 EQ PUSH2 0x263 JUMPI DUP1 PUSH4 0x493EC707 EQ PUSH2 0x281 JUMPI DUP1 PUSH4 0x4B3E7E0C EQ PUSH2 0x29D JUMPI PUSH2 0x14D JUMP JUMPDEST DUP1 PUSH4 0x28414F2 EQ PUSH2 0x152 JUMPI DUP1 PUSH4 0x6540F7E EQ PUSH2 0x16E JUMPI DUP1 PUSH4 0x20965255 EQ PUSH2 0x18C JUMPI DUP1 PUSH4 0x26B85EE1 EQ PUSH2 0x1AA JUMPI DUP1 PUSH4 0x26EB4DBB EQ PUSH2 0x1C8 JUMPI JUMPDEST PUSH1 0x0 DUP1 REVERT JUMPDEST PUSH2 0x16C PUSH1 0x4 DUP1 CALLDATASIZE SUB DUP2 ADD SWAP1 PUSH2 0x167 SWAP2 SWAP1 PUSH2 0xEE0 JUMP JUMPDEST PUSH2 0x4A3 JUMP JUMPDEST STOP JUMPDEST PUSH2 0x176 PUSH2 0x4FF JUMP JUMPDEST PUSH1 0x40 MLOAD PUSH2 0x183 SWAP2 SWAP1 PUSH2 0xF7A JUMP JUMPDEST PUSH1 0x40 MLOAD DUP1 SWAP2 SUB SWAP1 RETURN JUMPDEST PUSH2 0x194 PUSH2 0x505 JUMP JUMPDEST PUSH1 0x40 MLOAD PUSH2 0x1A1 SWAP2 SWAP1 PUSH2 0xF7A JUMP JUMPDEST PUSH1 0x40 MLOAD DUP1 SWAP2 SUB SWAP1 RETURN JUMPDEST PUSH2 0x1B2 PUSH2 0x513 JUMP JUMPDEST PUSH1 0x40 MLOAD PUSH2 0x1BF SWAP2 SWAP1 PUSH2 0xFD6 JUMP JUMPDEST PUSH1 0x40 MLOAD DUP1 SWAP2 SUB SWAP1 RETURN JUMPDEST PUSH2 0x1D0 PUSH2 0x539 JUMP JUMPDEST PUSH1 0x40 MLOAD PUSH2 0x1DD SWAP2 SWAP1 PUSH2 0xF7A JUMP JUMPDEST PUSH1 0x40 MLOAD DUP1 SWAP2 SUB SWAP1 RETURN JUMPDEST PUSH2 0x200 PUSH1 0x4 DUP1 CALLDATASIZE SUB DUP2 ADD SWAP1 PUSH2 0x1FB SWAP2 SWAP1 PUSH2 0x101D JUMP JUMPDEST PUSH2 0x546 JUMP JUMPDEST PUSH1 0x40 MLOAD PUSH2 0x20E SWAP3 SWAP2 SWAP1 PUSH2 0x10DC JUMP JUMPDEST PUSH1 0x40 MLOAD DUP1 SWAP2 SUB SWAP1 RETURN JUMPDEST PUSH2 0x231 PUSH1 0x4 DUP1 CALLDATASIZE SUB DUP2 ADD SWAP1 PUSH2 0x22C SWAP2 SWAP1 PUSH2 0x1113 JUMP JUMPDEST PUSH2 0x687 JUMP JUMPDEST STOP JUMPDEST PUSH2 0x24D PUSH1 0x4 DUP1 CALLDATASIZE SUB DUP2 ADD SWAP1 PUSH2 0x248 SWAP2 SWAP1 PUSH2 0x115C JUMP JUMPDEST PUSH2 0x6BF JUMP JUMPDEST PUSH1 0x40 MLOAD PUSH2 0x25A SWAP2 SWAP1 PUSH2 0x1189 JUMP JUMPDEST PUSH1 0x40 MLOAD DUP1 SWAP2 SUB SWAP1 RETURN JUMPDEST PUSH2 0x26B PUSH2 0x75F JUMP JUMPDEST PUSH1 0x40 MLOAD PUSH2 0x278 SWAP2 SWAP1 PUSH2 0x1189 JUMP JUMPDEST PUSH1 0x40 MLOAD DUP1 SWAP2 SUB SWAP1 RETURN JUMPDEST PUSH2 0x29B PUSH1 0x4 DUP1 CALLDATASIZE SUB DUP2 ADD SWAP1 PUSH2 0x296 SWAP2 SWAP1 PUSH2 0xEE0 JUMP JUMPDEST PUSH2 0x7ED JUMP JUMPDEST STOP JUMPDEST PUSH2 0x2A5 PUSH2 0x886 JUMP JUMPDEST PUSH1 0x40 MLOAD PUSH2 0x2B2 SWAP2 SWAP1 PUSH2 0x11C4 JUMP JUMPDEST PUSH1 0x40 MLOAD DUP1 SWAP2 SUB SWAP1 RETURN JUMPDEST PUSH2 0x2D5 PUSH1 0x4 DUP1 CALLDATASIZE SUB DUP2 ADD SWAP1 PUSH2 0x2D0 SWAP2 SWAP1 PUSH2 0x115C JUMP JUMPDEST PUSH2 0x88C JUMP JUMPDEST PUSH1 0x40 MLOAD PUSH2 0x2E2 SWAP2 SWAP1 PUSH2 0x1189 JUMP JUMPDEST PUSH1 0x40 MLOAD DUP1 SWAP2 SUB SWAP1 RETURN JUMPDEST PUSH2 0x305 PUSH1 0x4 DUP1 CALLDATASIZE SUB DUP2 ADD SWAP1 PUSH2 0x300 SWAP2 SWAP1 PUSH2 0x115C JUMP JUMPDEST PUSH2 0x938 JUMP JUMPDEST PUSH1 0x40 MLOAD PUSH2 0x312 SWAP2 SWAP1 PUSH2 0x1189 JUMP JUMPDEST PUSH1 0x40 MLOAD DUP1 SWAP2 SUB SWAP1 RETURN JUMPDEST PUSH2 0x335 PUSH1 0x4 DUP1 CALLDATASIZE SUB DUP2 ADD SWAP1 PUSH2 0x330 SWAP2 SWAP1 PUSH2 0x115C JUMP JUMPDEST PUSH2 0x9E4 JUMP JUMPDEST PUSH1 0x40 MLOAD PUSH2 0x343 SWAP3 SWAP2 SWAP1 PUSH2 0x10DC JUMP JUMPDEST PUSH1 0x40 MLOAD DUP1 SWAP2 SUB SWAP1 RETURN JUMPDEST PUSH2 0x354 PUSH2 0xB18 JUMP JUMPDEST PUSH1 0x40 MLOAD PUSH2 0x362 SWAP3 SWAP2 SWAP1 PUSH2 0x11DF JUMP JUMPDEST PUSH1 0x40 MLOAD DUP1 SWAP2 SUB SWAP1 RETURN JUMPDEST PUSH2 0x373 PUSH2 0xBB2 JUMP JUMPDEST PUSH1 0x40 MLOAD PUSH2 0x380 SWAP2 SWAP1 PUSH2 0xFD6 JUMP JUMPDEST PUSH1 0x40 MLOAD DUP1 SWAP2 SUB SWAP1 RETURN JUMPDEST PUSH2 0x391 PUSH2 0xBD8 JUMP JUMPDEST PUSH1 0x40 MLOAD PUSH2 0x39E SWAP2 SWAP1 PUSH2 0x122A JUMP JUMPDEST PUSH1 0x40 MLOAD DUP1 SWAP2 SUB SWAP1 RETURN JUMPDEST PUSH2 0x3C1 PUSH1 0x4 DUP1 CALLDATASIZE SUB DUP2 ADD SWAP1 PUSH2 0x3BC SWAP2 SWAP1 PUSH2 0x115C JUMP JUMPDEST PUSH2 0xC30 JUMP JUMPDEST PUSH1 0x40 MLOAD PUSH2 0x3CE SWAP2 SWAP1 PUSH2 0xF7A JUMP JUMPDEST PUSH1 0x40 MLOAD DUP1 SWAP2 SUB SWAP1 RETURN JUMPDEST PUSH2 0x3DF PUSH2 0xC54 JUMP JUMPDEST PUSH1 0x40 MLOAD PUSH2 0x3EC SWAP2 SWAP1 PUSH2 0xF7A JUMP JUMPDEST PUSH1 0x40 MLOAD DUP1 SWAP2 SUB SWAP1 RETURN JUMPDEST PUSH2 0x40F PUSH1 0x4 DUP1 CALLDATASIZE SUB DUP2 ADD SWAP1 PUSH2 0x40A SWAP2 SWAP1 PUSH2 0x1245 JUMP JUMPDEST PUSH2 0xC5A JUMP JUMPDEST PUSH1 0x40 MLOAD PUSH2 0x41C SWAP2 SWAP1 PUSH2 0xF7A JUMP JUMPDEST PUSH1 0x40 MLOAD DUP1 SWAP2 SUB SWAP1 RETURN JUMPDEST PUSH2 0x43F PUSH1 0x4 DUP1 CALLDATASIZE SUB DUP2 ADD SWAP1 PUSH2 0x43A SWAP2 SWAP1 PUSH2 0x115C JUMP JUMPDEST PUSH2 0xC97 JUMP JUMPDEST PUSH1 0x40 MLOAD PUSH2 0x44C SWAP2 SWAP1 PUSH2 0xF7A JUMP JUMPDEST PUSH1 0x40 MLOAD DUP1 SWAP2 SUB SWAP1 RETURN JUMPDEST PUSH2 0x46F PUSH1 0x4 DUP1 CALLDATASIZE SUB DUP2 ADD SWAP1 PUSH2 0x46A SWAP2 SWAP1 PUSH2 0x115C JUMP JUMPDEST PUSH2 0xCBB JUMP JUMPDEST PUSH1 0x40 MLOAD PUSH2 0x47C SWAP2 SWAP1 PUSH2 0x122A JUMP JUMPDEST PUSH1 0x40 MLOAD DUP1 SWAP2 SUB SWAP1 RETURN JUMPDEST PUSH2 0x48D PUSH2 0xCE3 JUMP JUMPDEST PUSH1 0x40 MLOAD PUSH2 0x49A SWAP2 SWAP1 PUSH2 0xF7A JUMP JUMPDEST PUSH1 0x40 MLOAD DUP1 SWAP2 SUB SWAP1 RETURN JUMPDEST PUSH1 0x40 MLOAD DUP1 PUSH1 0x40 ADD PUSH1 0x40 MSTORE DUP1 DUP4 DUP2 MSTORE PUSH1 0x20 ADD DUP3 DUP2 MSTORE POP PUSH1 0xA PUSH1 0x0 DUP6 DUP2 MSTORE PUSH1 0x20 ADD SWAP1 DUP2 MSTORE PUSH1 0x20 ADD PUSH1 0x0 KECCAK256 PUSH1 0x0 DUP3 ADD MLOAD DUP2 PUSH1 0x0 ADD SWAP1 DUP2 PUSH2 0x4E0 SWAP2 SWAP1 PUSH2 0x1491 JUMP JUMPDEST POP PUSH1 0x20 DUP3 ADD MLOAD DUP2 PUSH1 0x1 ADD SWAP1 DUP2 PUSH2 0x4F6 SWAP2 SWAP1 PUSH2 0x1491 JUMP JUMPDEST POP SWAP1 POP POP POP POP POP JUMP JUMPDEST PUSH1 0x0 SLOAD DUP2 JUMP JUMPDEST PUSH1 0x0 DUP1 PUSH1 0x1 SWAP1 POP DUP1 SWAP2 POP POP SWAP1 JUMP JUMPDEST PUSH1 0x4 PUSH1 0x0 SWAP1 SLOAD SWAP1 PUSH2 0x100 EXP SWAP1 DIV PUSH20 0xFFFFFFFFFFFFFFFFFFFFFFFFFFFFFFFFFFFFFFFF AND DUP2 JUMP JUMPDEST PUSH1 0x0 PUSH1 0x7 DUP1 SLOAD SWAP1 POP SWAP1 POP SWAP1 JUMP JUMPDEST PUSH1 0xB PUSH1 0x20 MSTORE DUP2 PUSH1 0x0 MSTORE PUSH1 0x40 PUSH1 0x0 KECCAK256 PUSH1 0x20 MSTORE DUP1 PUSH1 0x0 MSTORE PUSH1 0x40 PUSH1 0x0 KECCAK256 PUSH1 0x0 SWAP2 POP SWAP2 POP POP DUP1 PUSH1 0x0 ADD DUP1 SLOAD PUSH2 0x576 SWAP1 PUSH2 0x12B4 JUMP JUMPDEST DUP1 PUSH1 0x1F ADD PUSH1 0x20 DUP1 SWAP2 DIV MUL PUSH1 0x20 ADD PUSH1 0x40 MLOAD SWAP1 DUP2 ADD PUSH1 0x40 MSTORE DUP1 SWAP3 SWAP2 SWAP1 DUP2 DUP2 MSTORE PUSH1 0x20 ADD DUP3 DUP1 SLOAD PUSH2 0x5A2 SWAP1 PUSH2 0x12B4 JUMP JUMPDEST DUP1 ISZERO PUSH2 0x5EF JUMPI DUP1 PUSH1 0x1F LT PUSH2 0x5C4 JUMPI PUSH2 0x100 DUP1 DUP4 SLOAD DIV MUL DUP4 MSTORE SWAP2 PUSH1 0x20 ADD SWAP2 PUSH2 0x5EF JUMP JUMPDEST DUP3 ADD SWAP2 SWAP1 PUSH1 0x0 MSTORE PUSH1 0x20 PUSH1 0x0 KECCAK256 SWAP1 JUMPDEST DUP2 SLOAD DUP2 MSTORE SWAP1 PUSH1 0x1 ADD SWAP1 PUSH1 0x20 ADD DUP1 DUP4 GT PUSH2 0x5D2 JUMPI DUP3 SWAP1 SUB PUSH1 0x1F AND DUP3 ADD SWAP2 JUMPDEST POP POP POP POP POP SWAP1 DUP1 PUSH1 0x1 ADD DUP1 SLOAD PUSH2 0x604 SWAP1 PUSH2 0x12B4 JUMP JUMPDEST DUP1 PUSH1 0x1F ADD PUSH1 0x20 DUP1 SWAP2 DIV MUL PUSH1 0x20 ADD PUSH1 0x40 MLOAD SWAP1 DUP2 ADD PUSH1 0x40 MSTORE DUP1 SWAP3 SWAP2 SWAP1 DUP2 DUP2 MSTORE PUSH1 0x20 ADD DUP3 DUP1 SLOAD PUSH2 0x630 SWAP1 PUSH2 0x12B4 JUMP JUMPDEST DUP1 ISZERO PUSH2 0x67D JUMPI DUP1 PUSH1 0x1F LT PUSH2 0x652 JUMPI PUSH2 0x100 DUP1 DUP4 SLOAD DIV MUL DUP4 MSTORE SWAP2 PUSH1 0x20 ADD SWAP2 PUSH2 0x67D JUMP JUMPDEST DUP3 ADD SWAP2 SWAP1 PUSH1 0x0 MSTORE PUSH1 0x20 PUSH1 0x0 KECCAK256 SWAP1 JUMPDEST DUP2 SLOAD DUP2 MSTORE SWAP1 PUSH1 0x1 ADD SWAP1 PUSH1 0x20 ADD DUP1 DUP4 GT PUSH2 0x660 JUMPI DUP3 SWAP1 SUB PUSH1 0x1F AND DUP3 ADD SWAP2 JUMPDEST POP POP POP POP POP SWAP1 POP DUP3 JUMP JUMPDEST PUSH1 0x7 DUP2 SWAP1 DUP1 PUSH1 0x1 DUP2 SLOAD ADD DUP1 DUP3 SSTORE DUP1 SWAP2 POP POP PUSH1 0x1 SWAP1 SUB SWAP1 PUSH1 0x0 MSTORE PUSH1 0x20 PUSH1 0x0 KECCAK256 ADD PUSH1 0x0 SWAP1 SWAP2 SWAP1 SWAP2 SWAP1 SWAP2 POP SWAP1 DUP2 PUSH2 0x6BB SWAP2 SWAP1 PUSH2 0x1491 JUMP JUMPDEST POP POP JUMP JUMPDEST PUSH1 0x9 PUSH1 0x20 MSTORE DUP1 PUSH1 0x0 MSTORE PUSH1 0x40 PUSH1 0x0 KECCAK256 PUSH1 0x0 SWAP2 POP SWAP1 POP DUP1 SLOAD PUSH2 0x6DE SWAP1 PUSH2 0x12B4 JUMP JUMPDEST DUP1 PUSH1 0x1F ADD PUSH1 0x20 DUP1 SWAP2 DIV MUL PUSH1 0x20 ADD PUSH1 0x40 MLOAD SWAP1 DUP2 ADD PUSH1 0x40 MSTORE DUP1 SWAP3 SWAP2 SWAP1 DUP2 DUP2 MSTORE PUSH1 0x20 ADD DUP3 DUP1 SLOAD PUSH2 0x70A SWAP1 PUSH2 0x12B4 JUMP JUMPDEST DUP1 ISZERO PUSH2 0x757 JUMPI DUP1 PUSH1 0x1F LT PUSH2 0x72C JUMPI PUSH2 0x100 DUP1 DUP4 SLOAD DIV MUL DUP4 MSTORE SWAP2 PUSH1 0x20 ADD SWAP2 PUSH2 0x757 JUMP JUMPDEST DUP3 ADD SWAP2 SWAP1 PUSH1 0x0 MSTORE PUSH1 0x20 PUSH1 0x0 KECCAK256 SWAP1 JUMPDEST DUP2 SLOAD DUP2 MSTORE SWAP1 PUSH1 0x1 ADD SWAP1 PUSH1 0x20 ADD DUP1 DUP4 GT PUSH2 0x73A JUMPI DUP3 SWAP1 SUB PUSH1 0x1F AND DUP3 ADD SWAP2 JUMPDEST POP POP POP POP POP DUP2 JUMP JUMPDEST PUSH1 0x2 DUP1 SLOAD PUSH2 0x76C SWAP1 PUSH2 0x12B4 JUMP JUMPDEST DUP1 PUSH1 0x1F ADD PUSH1 0x20 DUP1 SWAP2 DIV MUL PUSH1 0x20 ADD PUSH1 0x40 MLOAD SWAP1 DUP2 ADD PUSH1 0x40 MSTORE DUP1 SWAP3 SWAP2 SWAP1 DUP2 DUP2 MSTORE PUSH1 0x20 ADD DUP3 DUP1 SLOAD PUSH2 0x798 SWAP1 PUSH2 0x12B4 JUMP JUMPDEST DUP1 ISZERO PUSH2 0x7E5 JUMPI DUP1 PUSH1 0x1F LT PUSH2 0x7BA JUMPI PUSH2 0x100 DUP1 DUP4 SLOAD DIV MUL DUP4 MSTORE SWAP2 PUSH1 0x20 ADD SWAP2 PUSH2 0x7E5 JUMP JUMPDEST DUP3 ADD SWAP2 SWAP1 PUSH1 0x0 MSTORE PUSH1 0x20 PUSH1 0x0 KECCAK256 SWAP1 JUMPDEST DUP2 SLOAD DUP2 MSTORE SWAP1 PUSH1 0x1 ADD SWAP1 PUSH1 0x20 ADD DUP1 DUP4 GT PUSH2 0x7C8 JUMPI DUP3 SWAP1 SUB PUSH1 0x1F AND DUP3 ADD SWAP2 JUMPDEST POP POP POP POP POP DUP2 JUMP JUMPDEST PUSH1 0x40 MLOAD DUP1 PUSH1 0x40 ADD PUSH1 0x40 MSTORE DUP1 DUP4 DUP2 MSTORE PUSH1 0x20 ADD DUP3 DUP2 MSTORE POP PUSH1 0xB PUSH1 0x0 CALLER PUSH20 0xFFFFFFFFFFFFFFFFFFFFFFFFFFFFFFFFFFFFFFFF AND PUSH20 0xFFFFFFFFFFFFFFFFFFFFFFFFFFFFFFFFFFFFFFFF AND DUP2 MSTORE PUSH1 0x20 ADD SWAP1 DUP2 MSTORE PUSH1 0x20 ADD PUSH1 0x0 KECCAK256 PUSH1 0x0 DUP6 DUP2 MSTORE PUSH1 0x20 ADD SWAP1 DUP2 MSTORE PUSH1 0x20 ADD PUSH1 0x0 KECCAK256 PUSH1 0x0 DUP3 ADD MLOAD DUP2 PUSH1 0x0 ADD SWAP1 DUP2 PUSH2 0x867 SWAP2 SWAP1 PUSH2 0x1491 JUMP JUMPDEST POP PUSH1 0x20 DUP3 ADD MLOAD DUP2 PUSH1 0x1 ADD SWAP1 DUP2 PUSH2 0x87D SWAP2 SWAP1 PUSH2 0x1491 JUMP JUMPDEST POP SWAP1 POP POP POP POP POP JUMP JUMPDEST PUSH1 0x3 SLOAD DUP2 JUMP JUMPDEST PUSH1 0x7 DUP2 DUP2 SLOAD DUP2 LT PUSH2 0x89C JUMPI PUSH1 0x0 DUP1 REVERT JUMPDEST SWAP1 PUSH1 0x0 MSTORE PUSH1 0x20 PUSH1 0x0 KECCAK256 ADD PUSH1 0x0 SWAP2 POP SWAP1 POP DUP1 SLOAD PUSH2 0x8B7 SWAP1 PUSH2 0x12B4 JUMP JUMPDEST DUP1 PUSH1 0x1F ADD PUSH1 0x20 DUP1 SWAP2 DIV MUL PUSH1 0x20 ADD PUSH1 0x40 MLOAD SWAP1 DUP2 ADD PUSH1 0x40 MSTORE DUP1 SWAP3 SWAP2 SWAP1 DUP2 DUP2 MSTORE PUSH1 0x20 ADD DUP3 DUP1 SLOAD PUSH2 0x8E3 SWAP1 PUSH2 0x12B4 JUMP JUMPDEST DUP1 ISZERO PUSH2 0x930 JUMPI DUP1 PUSH1 0x1F LT PUSH2 0x905 JUMPI PUSH2 0x100 DUP1 DUP4 SLOAD DIV MUL DUP4 MSTORE SWAP2 PUSH1 0x20 ADD SWAP2 PUSH2 0x930 JUMP JUMPDEST DUP3 ADD SWAP2 SWAP1 PUSH1 0x0 MSTORE PUSH1 0x20 PUSH1 0x0 KECCAK256 SWAP1 JUMPDEST DUP2 SLOAD DUP2 MSTORE SWAP1 PUSH1 0x1 ADD SWAP1 PUSH1 0x20 ADD DUP1 DUP4 GT PUSH2 0x913 JUMPI DUP3 SWAP1 SUB PUSH1 0x1F AND DUP3 ADD SWAP2 JUMPDEST POP POP POP POP POP DUP2 JUMP JUMPDEST PUSH1 0x6 DUP2 DUP2 SLOAD DUP2 LT PUSH2 0x948 JUMPI PUSH1 0x0 DUP1 REVERT JUMPDEST SWAP1 PUSH1 0x0 MSTORE PUSH1 0x20 PUSH1 0x0 KECCAK256 ADD PUSH1 0x0 SWAP2 POP SWAP1 POP DUP1 SLOAD PUSH2 0x963 SWAP1 PUSH2 0x12B4 JUMP JUMPDEST DUP1 PUSH1 0x1F ADD PUSH1 0x20 DUP1 SWAP2 DIV MUL PUSH1 0x20 ADD PUSH1 0x40 MLOAD SWAP1 DUP2 ADD PUSH1 0x40 MSTORE DUP1 SWAP3 SWAP2 SWAP1 DUP2 DUP2 MSTORE PUSH1 0x20 ADD DUP3 DUP1 SLOAD PUSH2 0x98F SWAP1 PUSH2 0x12B4 JUMP JUMPDEST DUP1 ISZERO PUSH2 0x9DC JUMPI DUP1 PUSH1 0x1F LT PUSH2 0x9B1 JUMPI PUSH2 0x100 DUP1 DUP4 SLOAD DIV MUL DUP4 MSTORE SWAP2 PUSH1 0x20 ADD SWAP2 PUSH2 0x9DC JUMP JUMPDEST DUP3 ADD SWAP2 SWAP1 PUSH1 0x0 MSTORE PUSH1 0x20 PUSH1 0x0 KECCAK256 SWAP1 JUMPDEST DUP2 SLOAD DUP2 MSTORE SWAP1 PUSH1 0x1 ADD SWAP1 PUSH1 0x20 ADD DUP1 DUP4 GT PUSH2 0x9BF JUMPI DUP3 SWAP1 SUB PUSH1 0x1F AND DUP3 ADD SWAP2 JUMPDEST POP POP POP POP POP DUP2 JUMP JUMPDEST PUSH1 0xA PUSH1 0x20 MSTORE DUP1 PUSH1 0x0 MSTORE PUSH1 0x40 PUSH1 0x0 KECCAK256 PUSH1 0x0 SWAP2 POP SWAP1 POP DUP1 PUSH1 0x0 ADD DUP1 SLOAD PUSH2 0xA07 SWAP1 PUSH2 0x12B4 JUMP JUMPDEST DUP1 PUSH1 0x1F ADD PUSH1 0x20 DUP1 SWAP2 DIV MUL PUSH1 0x20 ADD PUSH1 0x40 MLOAD SWAP1 DUP2 ADD PUSH1 0x40 MSTORE DUP1 SWAP3 SWAP2 SWAP1 DUP2 DUP2 MSTORE PUSH1 0x20 ADD DUP3 DUP1 SLOAD PUSH2 0xA33 SWAP1 PUSH2 0x12B4 JUMP JUMPDEST DUP1 ISZERO PUSH2 0xA80 JUMPI DUP1 PUSH1 0x1F LT PUSH2 0xA55 JUMPI PUSH2 0x100 DUP1 DUP4 SLOAD DIV MUL DUP4 MSTORE SWAP2 PUSH1 0x20 ADD SWAP2 PUSH2 0xA80 JUMP JUMPDEST DUP3 ADD SWAP2 SWAP1 PUSH1 0x0 MSTORE PUSH1 0x20 PUSH1 0x0 KECCAK256 SWAP1 JUMPDEST DUP2 SLOAD DUP2 MSTORE SWAP1 PUSH1 0x1 ADD SWAP1 PUSH1 0x20 ADD DUP1 DUP4 GT PUSH2 0xA63 JUMPI DUP3 SWAP1 SUB PUSH1 0x1F AND DUP3 ADD SWAP2 JUMPDEST POP POP POP POP POP SWAP1 DUP1 PUSH1 0x1 ADD DUP1 SLOAD PUSH2 0xA95 SWAP1 PUSH2 0x12B4 JUMP JUMPDEST DUP1 PUSH1 0x1F ADD PUSH1 0x20 DUP1 SWAP2 DIV MUL PUSH1 0x20 ADD PUSH1 0x40 MLOAD SWAP1 DUP2 ADD PUSH1 0x40 MSTORE DUP1 SWAP3 SWAP2 SWAP1 DUP2 DUP2 MSTORE PUSH1 0x20 ADD DUP3 DUP1 SLOAD PUSH2 0xAC1 SWAP1 PUSH2 0x12B4 JUMP JUMPDEST DUP1 ISZERO PUSH2 0xB0E JUMPI DUP1 PUSH1 0x1F LT PUSH2 0xAE3 JUMPI PUSH2 0x100 DUP1 DUP4 SLOAD DIV MUL DUP4 MSTORE SWAP2 PUSH1 0x20 ADD SWAP2 PUSH2 0xB0E JUMP JUMPDEST DUP3 ADD SWAP2 SWAP1 PUSH1 0x0 MSTORE PUSH1 0x20 PUSH1 0x0 KECCAK256 SWAP1 JUMPDEST DUP2 SLOAD DUP2 MSTORE SWAP1 PUSH1 0x1 ADD SWAP1 PUSH1 0x20 ADD DUP1 DUP4 GT PUSH2 0xAF1 JUMPI DUP3 SWAP1 SUB PUSH1 0x1F AND DUP3 ADD SWAP2 JUMPDEST POP POP POP POP POP SWAP1 POP DUP3 JUMP JUMPDEST PUSH1 0xD DUP1 PUSH1 0x0 ADD SLOAD SWAP1 DUP1 PUSH1 0x1 ADD DUP1 SLOAD PUSH2 0xB2F SWAP1 PUSH2 0x12B4 JUMP JUMPDEST DUP1 PUSH1 0x1F ADD PUSH1 0x20 DUP1 SWAP2 DIV MUL PUSH1 0x20 ADD PUSH1 0x40 MLOAD SWAP1 DUP2 ADD PUSH1 0x40 MSTORE DUP1 SWAP3 SWAP2 SWAP1 DUP2 DUP2 MSTORE PUSH1 0x20 ADD DUP3 DUP1 SLOAD PUSH2 0xB5B SWAP1 PUSH2 0x12B4 JUMP JUMPDEST DUP1 ISZERO PUSH2 0xBA8 JUMPI DUP1 PUSH1 0x1F LT PUSH2 0xB7D JUMPI PUSH2 0x100 DUP1 DUP4 SLOAD DIV MUL DUP4 MSTORE SWAP2 PUSH1 0x20 ADD SWAP2 PUSH2 0xBA8 JUMP JUMPDEST DUP3 ADD SWAP2 SWAP1 PUSH1 0x0 MSTORE PUSH1 0x20 PUSH1 0x0 KECCAK256 SWAP1 JUMPDEST DUP2 SLOAD DUP2 MSTORE SWAP1 PUSH1 0x1 ADD SWAP1 PUSH1 0x20 ADD DUP1 DUP4 GT PUSH2 0xB8B JUMPI DUP3 SWAP1 SUB PUSH1 0x1F AND DUP3 ADD SWAP2 JUMPDEST POP POP POP POP POP SWAP1 POP DUP3 JUMP JUMPDEST PUSH1 0xC PUSH1 0x0 SWAP1 SLOAD SWAP1 PUSH2 0x100 EXP SWAP1 DIV PUSH20 0xFFFFFFFFFFFFFFFFFFFFFFFFFFFFFFFFFFFFFFFF AND DUP2 JUMP JUMPDEST PUSH1 0x0 PUSH1 0xC PUSH1 0x0 SWAP1 SLOAD SWAP1 PUSH2 0x100 EXP SWAP1 DIV PUSH20 0xFFFFFFFFFFFFFFFFFFFFFFFFFFFFFFFFFFFFFFFF AND PUSH20 0xFFFFFFFFFFFFFFFFFFFFFFFFFFFFFFFFFFFFFFFF AND CALLER PUSH20 0xFFFFFFFFFFFFFFFFFFFFFFFFFFFFFFFFFFFFFFFF AND EQ SWAP1 POP SWAP1 JUMP JUMPDEST PUSH1 0x5 DUP2 DUP2 SLOAD DUP2 LT PUSH2 0xC40 JUMPI PUSH1 0x0 DUP1 REVERT JUMPDEST SWAP1 PUSH1 0x0 MSTORE PUSH1 0x20 PUSH1 0x0 KECCAK256 ADD PUSH1 0x0 SWAP2 POP SWAP1 POP SLOAD DUP2 JUMP JUMPDEST PUSH1 0x1 SLOAD DUP2 JUMP JUMPDEST PUSH1 0x8 DUP3 DUP2 SLOAD DUP2 LT PUSH2 0xC6A JUMPI PUSH1 0x0 DUP1 REVERT JUMPDEST SWAP1 PUSH1 0x0 MSTORE PUSH1 0x20 PUSH1 0x0 KECCAK256 ADD DUP2 DUP2 SLOAD DUP2 LT PUSH2 0xC82 JUMPI PUSH1 0x0 DUP1 REVERT JUMPDEST SWAP1 PUSH1 0x0 MSTORE PUSH1 0x20 PUSH1 0x0 KECCAK256 ADD PUSH1 0x0 SWAP2 POP SWAP2 POP POP SLOAD DUP2 JUMP JUMPDEST PUSH1 0xF DUP2 DUP2 SLOAD DUP2 LT PUSH2 0xCA7 JUMPI PUSH1 0x0 DUP1 REVERT JUMPDEST SWAP1 PUSH1 0x0 MSTORE PUSH1 0x20 PUSH1 0x0 KECCAK256 ADD PUSH1 0x0 SWAP2 POP SWAP1 POP SLOAD DUP2 JUMP JUMPDEST PUSH1 0x0 DUP1 PUSH1 0x2 DUP4 PUSH2 0xCCB SWAP2 SWAP1 PUSH2 0x1592 JUMP JUMPDEST SUB PUSH2 0xCD9 JUMPI PUSH1 0x1 SWAP1 POP PUSH2 0xCDE JUMP JUMPDEST PUSH1 0x0 SWAP1 POP JUMPDEST SWAP2 SWAP1 POP JUMP JUMPDEST PUSH1 0x0 DUP1 PUSH1 0x0 SWAP1 POP PUSH1 0x0 JUMPDEST PUSH1 0xF DUP1 SLOAD SWAP1 POP DUP2 LT ISZERO PUSH2 0xD48 JUMPI PUSH2 0xD21 PUSH1 0xF DUP3 DUP2 SLOAD DUP2 LT PUSH2 0xD11 JUMPI PUSH2 0xD10 PUSH2 0x15C3 JUMP JUMPDEST JUMPDEST SWAP1 PUSH1 0x0 MSTORE PUSH1 0x20 PUSH1 0x0 KECCAK256 ADD SLOAD PUSH2 0xCBB JUMP JUMPDEST ISZERO PUSH2 0xD35 JUMPI DUP2 DUP1 PUSH2 0xD31 SWAP1 PUSH2 0x1621 JUMP JUMPDEST SWAP3 POP POP JUMPDEST DUP1 DUP1 PUSH2 0xD40 SWAP1 PUSH2 0x1621 JUMP JUMPDEST SWAP2 POP POP PUSH2 0xCED JUMP JUMPDEST POP DUP1 SWAP2 POP POP SWAP1 JUMP JUMPDEST PUSH1 0x0 PUSH1 0x40 MLOAD SWAP1 POP SWAP1 JUMP JUMPDEST PUSH1 0x0 DUP1 REVERT JUMPDEST PUSH1 0x0 DUP1 REVERT JUMPDEST PUSH1 0x0 DUP2 SWAP1 POP SWAP2 SWAP1 POP JUMP JUMPDEST PUSH2 0xD77 DUP2 PUSH2 0xD64 JUMP JUMPDEST DUP2 EQ PUSH2 0xD82 JUMPI PUSH1 0x0 DUP1 REVERT JUMPDEST POP JUMP JUMPDEST PUSH1 0x0 DUP2 CALLDATALOAD SWAP1 POP PUSH2 0xD94 DUP2 PUSH2 0xD6E JUMP JUMPDEST SWAP3 SWAP2 POP POP JUMP JUMPDEST PUSH1 0x0 DUP1 REVERT JUMPDEST PUSH1 0x0 DUP1 REVERT JUMPDEST PUSH1 0x0 PUSH1 0x1F NOT PUSH1 0x1F DUP4 ADD AND SWAP1 POP SWAP2 SWAP1 POP JUMP JUMPDEST PUSH32 0x4E487B7100000000000000000000000000000000000000000000000000000000 PUSH1 0x0 MSTORE PUSH1 0x41 PUSH1 0x4 MSTORE PUSH1 0x24 PUSH1 0x0 REVERT JUMPDEST PUSH2 0xDED DUP3 PUSH2 0xDA4 JUMP JUMPDEST DUP2 ADD DUP2 DUP2 LT PUSH8 0xFFFFFFFFFFFFFFFF DUP3 GT OR ISZERO PUSH2 0xE0C JUMPI PUSH2 0xE0B PUSH2 0xDB5 JUMP JUMPDEST JUMPDEST DUP1 PUSH1 0x40 MSTORE POP POP POP JUMP JUMPDEST PUSH1 0x0 PUSH2 0xE1F PUSH2 0xD50 JUMP JUMPDEST SWAP1 POP PUSH2 0xE2B DUP3 DUP3 PUSH2 0xDE4 JUMP JUMPDEST SWAP2 SWAP1 POP JUMP JUMPDEST PUSH1 0x0 PUSH8 0xFFFFFFFFFFFFFFFF DUP3 GT ISZERO PUSH2 0xE4B JUMPI PUSH2 0xE4A PUSH2 0xDB5 JUMP JUMPDEST JUMPDEST PUSH2 0xE54 DUP3 PUSH2 0xDA4 JUMP JUMPDEST SWAP1 POP PUSH1 0x20 DUP2 ADD SWAP1 POP SWAP2 SWAP1 POP JUMP JUMPDEST DUP3 DUP2 DUP4 CALLDATACOPY PUSH1 0x0 DUP4 DUP4 ADD MSTORE POP POP POP JUMP JUMPDEST PUSH1 0x0 PUSH2 0xE83 PUSH2 0xE7E DUP5 PUSH2 0xE30 JUMP JUMPDEST PUSH2 0xE15 JUMP JUMPDEST SWAP1 POP DUP3 DUP2 MSTORE PUSH1 0x20 DUP2 ADD DUP5 DUP5 DUP5 ADD GT ISZERO PUSH2 0xE9F JUMPI PUSH2 0xE9E PUSH2 0xD9F JUMP JUMPDEST JUMPDEST PUSH2 0xEAA DUP5 DUP3 DUP6 PUSH2 0xE61 JUMP JUMPDEST POP SWAP4 SWAP3 POP POP POP JUMP JUMPDEST PUSH1 0x0 DUP3 PUSH1 0x1F DUP4 ADD SLT PUSH2 0xEC7 JUMPI PUSH2 0xEC6 PUSH2 0xD9A JUMP JUMPDEST JUMPDEST DUP2 CALLDATALOAD PUSH2 0xED7 DUP5 DUP3 PUSH1 0x20 DUP7 ADD PUSH2 0xE70 JUMP JUMPDEST SWAP2 POP POP SWAP3 SWAP2 POP POP JUMP JUMPDEST PUSH1 0x0 DUP1 PUSH1 0x0 PUSH1 0x60 DUP5 DUP7 SUB SLT ISZERO PUSH2 0xEF9 JUMPI PUSH2 0xEF8 PUSH2 0xD5A JUMP JUMPDEST JUMPDEST PUSH1 0x0 PUSH2 0xF07 DUP7 DUP3 DUP8 ADD PUSH2 0xD85 JUMP JUMPDEST SWAP4 POP POP PUSH1 0x20 DUP5 ADD CALLDATALOAD PUSH8 0xFFFFFFFFFFFFFFFF DUP2 GT ISZERO PUSH2 0xF28 JUMPI PUSH2 0xF27 PUSH2 0xD5F JUMP JUMPDEST JUMPDEST PUSH2 0xF34 DUP7 DUP3 DUP8 ADD PUSH2 0xEB2 JUMP JUMPDEST SWAP3 POP POP PUSH1 0x40 DUP5 ADD CALLDATALOAD PUSH8 0xFFFFFFFFFFFFFFFF DUP2 GT ISZERO PUSH2 0xF55 JUMPI PUSH2 0xF54 PUSH2 0xD5F JUMP JUMPDEST JUMPDEST PUSH2 0xF61 DUP7 DUP3 DUP8 ADD PUSH2 0xEB2 JUMP JUMPDEST SWAP2 POP POP SWAP3 POP SWAP3 POP SWAP3 JUMP JUMPDEST PUSH2 0xF74 DUP2 PUSH2 0xD64 JUMP JUMPDEST DUP3 MSTORE POP POP JUMP JUMPDEST PUSH1 0x0 PUSH1 0x20 DUP3 ADD SWAP1 POP PUSH2 0xF8F PUSH1 0x0 DUP4 ADD DUP5 PUSH2 0xF6B JUMP JUMPDEST SWAP3 SWAP2 POP POP JUMP JUMPDEST PUSH1 0x0 PUSH20 0xFFFFFFFFFFFFFFFFFFFFFFFFFFFFFFFFFFFFFFFF DUP3 AND SWAP1 POP SWAP2 SWAP1 POP JUMP JUMPDEST PUSH1 0x0 PUSH2 0xFC0 DUP3 PUSH2 0xF95 JUMP JUMPDEST SWAP1 POP SWAP2 SWAP1 POP JUMP JUMPDEST PUSH2 0xFD0 DUP2 PUSH2 0xFB5 JUMP JUMPDEST DUP3 MSTORE POP POP JUMP JUMPDEST PUSH1 0x0 PUSH1 0x20 DUP3 ADD SWAP1 POP PUSH2 0xFEB PUSH1 0x0 DUP4 ADD DUP5 PUSH2 0xFC7 JUMP JUMPDEST SWAP3 SWAP2 POP POP JUMP JUMPDEST PUSH2 0xFFA DUP2 PUSH2 0xFB5 JUMP JUMPDEST DUP2 EQ PUSH2 0x1005 JUMPI PUSH1 0x0 DUP1 REVERT JUMPDEST POP JUMP JUMPDEST PUSH1 0x0 DUP2 CALLDATALOAD SWAP1 POP PUSH2 0x1017 DUP2 PUSH2 0xFF1 JUMP JUMPDEST SWAP3 SWAP2 POP POP JUMP JUMPDEST PUSH1 0x0 DUP1 PUSH1 0x40 DUP4 DUP6 SUB SLT ISZERO PUSH2 0x1034 JUMPI PUSH2 0x1033 PUSH2 0xD5A JUMP JUMPDEST JUMPDEST PUSH1 0x0 PUSH2 0x1042 DUP6 DUP3 DUP7 ADD PUSH2 0x1008 JUMP JUMPDEST SWAP3 POP POP PUSH1 0x20 PUSH2 0x1053 DUP6 DUP3 DUP7 ADD PUSH2 0xD85 JUMP JUMPDEST SWAP2 POP POP SWAP3 POP SWAP3 SWAP1 POP JUMP JUMPDEST PUSH1 0x0 DUP2 MLOAD SWAP1 POP SWAP2 SWAP1 POP JUMP JUMPDEST PUSH1 0x0 DUP3 DUP3 MSTORE PUSH1 0x20 DUP3 ADD SWAP1 POP SWAP3 SWAP2 POP POP JUMP JUMPDEST PUSH1 0x0 JUMPDEST DUP4 DUP2 LT ISZERO PUSH2 0x1097 JUMPI DUP1 DUP3 ADD MLOAD DUP2 DUP5 ADD MSTORE PUSH1 0x20 DUP2 ADD SWAP1 POP PUSH2 0x107C JUMP JUMPDEST PUSH1 0x0 DUP5 DUP5 ADD MSTORE POP POP POP POP JUMP JUMPDEST PUSH1 0x0 PUSH2 0x10AE DUP3 PUSH2 0x105D JUMP JUMPDEST PUSH2 0x10B8 DUP2 DUP6 PUSH2 0x1068 JUMP JUMPDEST SWAP4 POP PUSH2 0x10C8 DUP2 DUP6 PUSH1 0x20 DUP7 ADD PUSH2 0x1079 JUMP JUMPDEST PUSH2 0x10D1 DUP2 PUSH2 0xDA4 JUMP JUMPDEST DUP5 ADD SWAP2 POP POP SWAP3 SWAP2 POP POP JUMP JUMPDEST PUSH1 0x0 PUSH1 0x40 DUP3 ADD SWAP1 POP DUP2 DUP2 SUB PUSH1 0x0 DUP4 ADD MSTORE PUSH2 0x10F6 DUP2 DUP6 PUSH2 0x10A3 JUMP JUMPDEST SWAP1 POP DUP2 DUP2 SUB PUSH1 0x20 DUP4 ADD MSTORE PUSH2 0x110A DUP2 DUP5 PUSH2 0x10A3 JUMP JUMPDEST SWAP1 POP SWAP4 SWAP3 POP POP POP JUMP JUMPDEST PUSH1 0x0 PUSH1 0x20 DUP3 DUP5 SUB SLT ISZERO PUSH2 0x1129 JUMPI PUSH2 0x1128 PUSH2 0xD5A JUMP JUMPDEST JUMPDEST PUSH1 0x0 DUP3 ADD CALLDATALOAD PUSH8 0xFFFFFFFFFFFFFFFF DUP2 GT ISZERO PUSH2 0x1147 JUMPI PUSH2 0x1146 PUSH2 0xD5F JUMP JUMPDEST JUMPDEST PUSH2 0x1153 DUP5 DUP3 DUP6 ADD PUSH2 0xEB2 JUMP JUMPDEST SWAP2 POP POP SWAP3 SWAP2 POP POP JUMP JUMPDEST PUSH1 0x0 PUSH1 0x20 DUP3 DUP5 SUB SLT ISZERO PUSH2 0x1172 JUMPI PUSH2 0x1171 PUSH2 0xD5A JUMP JUMPDEST JUMPDEST PUSH1 0x0 PUSH2 0x1180 DUP5 DUP3 DUP6 ADD PUSH2 0xD85 JUMP JUMPDEST SWAP2 POP POP SWAP3 SWAP2 POP POP JUMP JUMPDEST PUSH1 0x0 PUSH1 0x20 DUP3 ADD SWAP1 POP DUP2 DUP2 SUB PUSH1 0x0 DUP4 ADD MSTORE PUSH2 0x11A3 DUP2 DUP5 PUSH2 0x10A3 JUMP JUMPDEST SWAP1 POP SWAP3 SWAP2 POP POP JUMP JUMPDEST PUSH1 0x0 DUP2 SWAP1 POP SWAP2 SWAP1 POP JUMP JUMPDEST PUSH2 0x11BE DUP2 PUSH2 0x11AB JUMP JUMPDEST DUP3 MSTORE POP POP JUMP JUMPDEST PUSH1 0x0 PUSH1 0x20 DUP3 ADD SWAP1 POP PUSH2 0x11D9 PUSH1 0x0 DUP4 ADD DUP5 PUSH2 0x11B5 JUMP JUMPDEST SWAP3 SWAP2 POP POP JUMP JUMPDEST PUSH1 0x0 PUSH1 0x40 DUP3 ADD SWAP1 POP PUSH2 0x11F4 PUSH1 0x0 DUP4 ADD DUP6 PUSH2 0xF6B JUMP JUMPDEST DUP2 DUP2 SUB PUSH1 0x20 DUP4 ADD MSTORE PUSH2 0x1206 DUP2 DUP5 PUSH2 0x10A3 JUMP JUMPDEST SWAP1 POP SWAP4 SWAP3 POP POP POP JUMP JUMPDEST PUSH1 0x0 DUP2 ISZERO ISZERO SWAP1 POP SWAP2 SWAP1 POP JUMP JUMPDEST PUSH2 0x1224 DUP2 PUSH2 0x120F JUMP JUMPDEST DUP3 MSTORE POP POP JUMP JUMPDEST PUSH1 0x0 PUSH1 0x20 DUP3 ADD SWAP1 POP PUSH2 0x123F PUSH1 0x0 DUP4 ADD DUP5 PUSH2 0x121B JUMP JUMPDEST SWAP3 SWAP2 POP POP JUMP JUMPDEST PUSH1 0x0 DUP1 PUSH1 0x40 DUP4 DUP6 SUB SLT ISZERO PUSH2 0x125C JUMPI PUSH2 0x125B PUSH2 0xD5A JUMP JUMPDEST JUMPDEST PUSH1 0x0 PUSH2 0x126A DUP6 DUP3 DUP7 ADD PUSH2 0xD85 JUMP JUMPDEST SWAP3 POP POP PUSH1 0x20 PUSH2 0x127B DUP6 DUP3 DUP7 ADD PUSH2 0xD85 JUMP JUMPDEST SWAP2 POP POP SWAP3 POP SWAP3 SWAP1 POP JUMP JUMPDEST PUSH32 0x4E487B7100000000000000000000000000000000000000000000000000000000 PUSH1 0x0 MSTORE PUSH1 0x22 PUSH1 0x4 MSTORE PUSH1 0x24 PUSH1 0x0 REVERT JUMPDEST PUSH1 0x0 PUSH1 0x2 DUP3 DIV SWAP1 POP PUSH1 0x1 DUP3 AND DUP1 PUSH2 0x12CC JUMPI PUSH1 0x7F DUP3 AND SWAP2 POP JUMPDEST PUSH1 0x20 DUP3 LT DUP2 SUB PUSH2 0x12DF JUMPI PUSH2 0x12DE PUSH2 0x1285 JUMP JUMPDEST JUMPDEST POP SWAP2 SWAP1 POP JUMP JUMPDEST PUSH1 0x0 DUP2 SWAP1 POP DUP2 PUSH1 0x0 MSTORE PUSH1 0x20 PUSH1 0x0 KECCAK256 SWAP1 POP SWAP2 SWAP1 POP JUMP JUMPDEST PUSH1 0x0 PUSH1 0x20 PUSH1 0x1F DUP4 ADD DIV SWAP1 POP SWAP2 SWAP1 POP JUMP JUMPDEST PUSH1 0x0 DUP3 DUP3 SHL SWAP1 POP SWAP3 SWAP2 POP POP JUMP JUMPDEST PUSH1 0x0 PUSH1 0x8 DUP4 MUL PUSH2 0x1347 PUSH32 0xFFFFFFFFFFFFFFFFFFFFFFFFFFFFFFFFFFFFFFFFFFFFFFFFFFFFFFFFFFFFFFFF DUP3 PUSH2 0x130A JUMP JUMPDEST PUSH2 0x1351 DUP7 DUP4 PUSH2 0x130A JUMP JUMPDEST SWAP6 POP DUP1 NOT DUP5 AND SWAP4 POP DUP1 DUP7 AND DUP5 OR SWAP3 POP POP POP SWAP4 SWAP3 POP POP POP JUMP JUMPDEST PUSH1 0x0 DUP2 SWAP1 POP SWAP2 SWAP1 POP JUMP JUMPDEST PUSH1 0x0 PUSH2 0x138E PUSH2 0x1389 PUSH2 0x1384 DUP5 PUSH2 0xD64 JUMP JUMPDEST PUSH2 0x1369 JUMP JUMPDEST PUSH2 0xD64 JUMP JUMPDEST SWAP1 POP SWAP2 SWAP1 POP JUMP JUMPDEST PUSH1 0x0 DUP2 SWAP1 POP SWAP2 SWAP1 POP JUMP JUMPDEST PUSH2 0x13A8 DUP4 PUSH2 0x1373 JUMP JUMPDEST PUSH2 0x13BC PUSH2 0x13B4 DUP3 PUSH2 0x1395 JUMP JUMPDEST DUP5 DUP5 SLOAD PUSH2 0x1317 JUMP JUMPDEST DUP3 SSTORE POP POP POP POP JUMP JUMPDEST PUSH1 0x0 SWAP1 JUMP JUMPDEST PUSH2 0x13D1 PUSH2 0x13C4 JUMP JUMPDEST PUSH2 0x13DC DUP2 DUP5 DUP5 PUSH2 0x139F JUMP JUMPDEST POP POP POP JUMP JUMPDEST JUMPDEST DUP2 DUP2 LT ISZERO PUSH2 0x1400 JUMPI PUSH2 0x13F5 PUSH1 0x0 DUP3 PUSH2 0x13C9 JUMP JUMPDEST PUSH1 0x1 DUP2 ADD SWAP1 POP PUSH2 0x13E2 JUMP JUMPDEST POP POP JUMP JUMPDEST PUSH1 0x1F DUP3 GT ISZERO PUSH2 0x1445 JUMPI PUSH2 0x1416 DUP2 PUSH2 0x12E5 JUMP JUMPDEST PUSH2 0x141F DUP5 PUSH2 0x12FA JUMP JUMPDEST DUP2 ADD PUSH1 0x20 DUP6 LT ISZERO PUSH2 0x142E JUMPI DUP2 SWAP1 POP JUMPDEST PUSH2 0x1442 PUSH2 0x143A DUP6 PUSH2 0x12FA JUMP JUMPDEST DUP4 ADD DUP3 PUSH2 0x13E1 JUMP JUMPDEST POP POP JUMPDEST POP POP POP JUMP JUMPDEST PUSH1 0x0 DUP3 DUP3 SHR SWAP1 POP SWAP3 SWAP2 POP POP JUMP JUMPDEST PUSH1 0x0 PUSH2 0x1468 PUSH1 0x0 NOT DUP5 PUSH1 0x8 MUL PUSH2 0x144A JUMP JUMPDEST NOT DUP1 DUP4 AND SWAP2 POP POP SWAP3 SWAP2 POP POP JUMP JUMPDEST PUSH1 0x0 PUSH2 0x1481 DUP4 DUP4 PUSH2 0x1457 JUMP JUMPDEST SWAP2 POP DUP3 PUSH1 0x2 MUL DUP3 OR SWAP1 POP SWAP3 SWAP2 POP POP JUMP JUMPDEST PUSH2 0x149A DUP3 PUSH2 0x105D JUMP JUMPDEST PUSH8 0xFFFFFFFFFFFFFFFF DUP2 GT ISZERO PUSH2 0x14B3 JUMPI PUSH2 0x14B2 PUSH2 0xDB5 JUMP JUMPDEST JUMPDEST PUSH2 0x14BD DUP3 SLOAD PUSH2 0x12B4 JUMP JUMPDEST PUSH2 0x14C8 DUP3 DUP3 DUP6 PUSH2 0x1404 JUMP JUMPDEST PUSH1 0x0 PUSH1 0x20 SWAP1 POP PUSH1 0x1F DUP4 GT PUSH1 0x1 DUP2 EQ PUSH2 0x14FB JUMPI PUSH1 0x0 DUP5 ISZERO PUSH2 0x14E9 JUMPI DUP3 DUP8 ADD MLOAD SWAP1 POP JUMPDEST PUSH2 0x14F3 DUP6 DUP3 PUSH2 0x1475 JUMP JUMPDEST DUP7 SSTORE POP PUSH2 0x155B JUMP JUMPDEST PUSH1 0x1F NOT DUP5 AND PUSH2 0x1509 DUP7 PUSH2 0x12E5 JUMP JUMPDEST PUSH1 0x0 JUMPDEST DUP3 DUP2 LT ISZERO PUSH2 0x1531 JUMPI DUP5 DUP10 ADD MLOAD DUP3 SSTORE PUSH1 0x1 DUP3 ADD SWAP2 POP PUSH1 0x20 DUP6 ADD SWAP5 POP PUSH1 0x20 DUP2 ADD SWAP1 POP PUSH2 0x150C JUMP JUMPDEST DUP7 DUP4 LT ISZERO PUSH2 0x154E JUMPI DUP5 DUP10 ADD MLOAD PUSH2 0x154A PUSH1 0x1F DUP10 AND DUP3 PUSH2 0x1457 JUMP JUMPDEST DUP4 SSTORE POP JUMPDEST PUSH1 0x1 PUSH1 0x2 DUP9 MUL ADD DUP9 SSTORE POP POP POP JUMPDEST POP POP POP POP POP POP JUMP JUMPDEST PUSH32 0x4E487B7100000000000000000000000000000000000000000000000000000000 PUSH1 0x0 MSTORE PUSH1 0x12 PUSH1 0x4 MSTORE PUSH1 0x24 PUSH1 0x0 REVERT JUMPDEST PUSH1 0x0 PUSH2 0x159D DUP3 PUSH2 0xD64 JUMP JUMPDEST SWAP2 POP PUSH2 0x15A8 DUP4 PUSH2 0xD64 JUMP JUMPDEST SWAP3 POP DUP3 PUSH2 0x15B8 JUMPI PUSH2 0x15B7 PUSH2 0x1563 JUMP JUMPDEST JUMPDEST DUP3 DUP3 MOD SWAP1 POP SWAP3 SWAP2 POP POP JUMP JUMPDEST PUSH32 0x4E487B7100000000000000000000000000000000000000000000000000000000 PUSH1 0x0 MSTORE PUSH1 0x32 PUSH1 0x4 MSTORE PUSH1 0x24 PUSH1 0x0 REVERT JUMPDEST PUSH32 0x4E487B7100000000000000000000000000000000000000000000000000000000 PUSH1 0x0 MSTORE PUSH1 0x11 PUSH1 0x4 MSTORE PUSH1 0x24 PUSH1 0x0 REVERT JUMPDEST PUSH1 0x0 PUSH2 0x162C DUP3 PUSH2 0xD64 JUMP JUMPDEST SWAP2 POP PUSH32 0xFFFFFFFFFFFFFFFFFFFFFFFFFFFFFFFFFFFFFFFFFFFFFFFFFFFFFFFFFFFFFFFF DUP3 SUB PUSH2 0x165E JUMPI PUSH2 0x165D PUSH2 0x15F2 JUMP JUMPDEST JUMPDEST PUSH1 0x1 DUP3 ADD SWAP1 POP SWAP2 SWAP1 POP JUMP INVALID LOG2 PUSH5 0x6970667358 0x22 SLT KECCAK256 DELEGATECALL CODESIZE SSTORE PUSH13 0xD2EF7770BFAD6D6918F0759448 0xE3 JUMP SWAP8 PUSH12 0xCF09B9754EA01C7E9B2AFF64 PUSH20 0x6F6C634300081100330000000000000000000000 "
				},
				"gasEstimates": {
					"creation": {
						"codeDepositCost": "1158200",
						"executionCost": "infinite",
						"totalCost": "infinite"
					},
					"external": {
						"addBook(uint256,string,string)": "infinite",
						"addMyBook(uint256,string,string)": "infinite",
						"addValue(string)": "infinite",
						"array2D(uint256,uint256)": "infinite",
						"books(uint256)": "infinite",
						"countEventNumbers()": "infinite",
						"getValue()": "418",
						"isEvenNumber(uint256)": "infinite",
						"isOwner()": "2629",
						"myAddress()": "2604",
						"myBooks(address,uint256)": "infinite",
						"myBytes32()": "2562",
						"myString()": "infinite",
						"myStruct()": "infinite",
						"myUint()": "2475",
						"myUint256()": "2473",
						"names(uint256)": "infinite",
						"numbers(uint256)": "infinite",
						"owner()": "2625",
						"stringArray(uint256)": "infinite",
						"uintArray(uint256)": "infinite",
						"valueCount()": "2557",
						"values(uint256)": "infinite"
					}
				},
				"methodIdentifiers": {
					"addBook(uint256,string,string)": "028414f2",
					"addMyBook(uint256,string,string)": "493ec707",
					"addValue(string)": "3a5fbaaa",
					"array2D(uint256,uint256)": "d3268fc1",
					"books(uint256)": "68744046",
					"countEventNumbers()": "f3710a44",
					"getValue()": "20965255",
					"isEvenNumber(uint256)": "e5054c69",
					"isOwner()": "8f32d59b",
					"myAddress()": "26b85ee1",
					"myBooks(address,uint256)": "27d3553f",
					"myBytes32()": "4b3e7e0c",
					"myString()": "492bfa18",
					"myStruct()": "8bc9fe6c",
					"myUint()": "06540f7e",
					"myUint256()": "a7dbce1c",
					"names(uint256)": "4622ab03",
					"numbers(uint256)": "d39fa233",
					"owner()": "8da5cb5b",
					"stringArray(uint256)": "6422c4c8",
					"uintArray(uint256)": "9ae918c7",
					"valueCount()": "26eb4dbb",
					"values(uint256)": "5e383d21"
				}
			},
			"storageLayout": {
				"storage": [
					{
						"astId": 4,
						"contract": "contracts/MyContract.sol:MyContract",
						"label": "myUint",
						"offset": 0,
						"slot": "0",
						"type": "t_uint256"
					},
					{
						"astId": 7,
						"contract": "contracts/MyContract.sol:MyContract",
						"label": "myUint256",
						"offset": 0,
						"slot": "1",
						"type": "t_uint256"
					},
					{
						"astId": 10,
						"contract": "contracts/MyContract.sol:MyContract",
						"label": "myString",
						"offset": 0,
						"slot": "2",
						"type": "t_string_storage"
					},
					{
						"astId": 13,
						"contract": "contracts/MyContract.sol:MyContract",
						"label": "myBytes32",
						"offset": 0,
						"slot": "3",
						"type": "t_bytes32"
					},
					{
						"astId": 16,
						"contract": "contracts/MyContract.sol:MyContract",
						"label": "myAddress",
						"offset": 0,
						"slot": "4",
						"type": "t_address"
					},
					{
						"astId": 28,
						"contract": "contracts/MyContract.sol:MyContract",
						"label": "uintArray",
						"offset": 0,
						"slot": "5",
						"type": "t_array(t_uint256)dyn_storage"
					},
					{
						"astId": 35,
						"contract": "contracts/MyContract.sol:MyContract",
						"label": "stringArray",
						"offset": 0,
						"slot": "6",
						"type": "t_array(t_string_storage)dyn_storage"
					},
					{
						"astId": 38,
						"contract": "contracts/MyContract.sol:MyContract",
						"label": "values",
						"offset": 0,
						"slot": "7",
						"type": "t_array(t_string_storage)dyn_storage"
					},
					{
						"astId": 51,
						"contract": "contracts/MyContract.sol:MyContract",
						"label": "array2D",
						"offset": 0,
						"slot": "8",
						"type": "t_array(t_array(t_uint256)dyn_storage)dyn_storage"
					},
					{
						"astId": 76,
						"contract": "contracts/MyContract.sol:MyContract",
						"label": "names",
						"offset": 0,
						"slot": "9",
						"type": "t_mapping(t_uint256,t_string_storage)"
					},
					{
						"astId": 81,
						"contract": "contracts/MyContract.sol:MyContract",
						"label": "books",
						"offset": 0,
						"slot": "10",
						"type": "t_mapping(t_uint256,t_struct(Book)93_storage)"
					},
					{
						"astId": 88,
						"contract": "contracts/MyContract.sol:MyContract",
						"label": "myBooks",
						"offset": 0,
						"slot": "11",
						"type": "t_mapping(t_address,t_mapping(t_uint256,t_struct(Book)93_storage))"
					},
					{
						"astId": 95,
						"contract": "contracts/MyContract.sol:MyContract",
						"label": "owner",
						"offset": 0,
						"slot": "12",
						"type": "t_address"
					},
					{
						"astId": 170,
						"contract": "contracts/MyContract.sol:MyContract",
						"label": "myStruct",
						"offset": 0,
						"slot": "13",
						"type": "t_struct(MyStruct)21_storage"
					},
					{
						"astId": 196,
						"contract": "contracts/MyContract.sol:MyContract",
						"label": "numbers",
						"offset": 0,
						"slot": "15",
						"type": "t_array(t_uint256)dyn_storage"
					}
				],
				"types": {
					"t_address": {
						"encoding": "inplace",
						"label": "address",
						"numberOfBytes": "20"
					},
					"t_array(t_array(t_uint256)dyn_storage)dyn_storage": {
						"base": "t_array(t_uint256)dyn_storage",
						"encoding": "dynamic_array",
						"label": "uint256[][]",
						"numberOfBytes": "32"
					},
					"t_array(t_string_storage)dyn_storage": {
						"base": "t_string_storage",
						"encoding": "dynamic_array",
						"label": "string[]",
						"numberOfBytes": "32"
					},
					"t_array(t_uint256)dyn_storage": {
						"base": "t_uint256",
						"encoding": "dynamic_array",
						"label": "uint256[]",
						"numberOfBytes": "32"
					},
					"t_bytes32": {
						"encoding": "inplace",
						"label": "bytes32",
						"numberOfBytes": "32"
					},
					"t_mapping(t_address,t_mapping(t_uint256,t_struct(Book)93_storage))": {
						"encoding": "mapping",
						"key": "t_address",
						"label": "mapping(address => mapping(uint256 => struct MyContract.Book))",
						"numberOfBytes": "32",
						"value": "t_mapping(t_uint256,t_struct(Book)93_storage)"
					},
					"t_mapping(t_uint256,t_string_storage)": {
						"encoding": "mapping",
						"key": "t_uint256",
						"label": "mapping(uint256 => string)",
						"numberOfBytes": "32",
						"value": "t_string_storage"
					},
					"t_mapping(t_uint256,t_struct(Book)93_storage)": {
						"encoding": "mapping",
						"key": "t_uint256",
						"label": "mapping(uint256 => struct MyContract.Book)",
						"numberOfBytes": "32",
						"value": "t_struct(Book)93_storage"
					},
					"t_string_storage": {
						"encoding": "bytes",
						"label": "string",
						"numberOfBytes": "32"
					},
					"t_struct(Book)93_storage": {
						"encoding": "inplace",
						"label": "struct MyContract.Book",
						"members": [
							{
								"astId": 90,
								"contract": "contracts/MyContract.sol:MyContract",
								"label": "title",
								"offset": 0,
								"slot": "0",
								"type": "t_string_storage"
							},
							{
								"astId": 92,
								"contract": "contracts/MyContract.sol:MyContract",
								"label": "author",
								"offset": 0,
								"slot": "1",
								"type": "t_string_storage"
							}
						],
						"numberOfBytes": "64"
					},
					"t_struct(MyStruct)21_storage": {
						"encoding": "inplace",
						"label": "struct MyContract.MyStruct",
						"members": [
							{
								"astId": 18,
								"contract": "contracts/MyContract.sol:MyContract",
								"label": "myUint256",
								"offset": 0,
								"slot": "0",
								"type": "t_uint256"
							},
							{
								"astId": 20,
								"contract": "contracts/MyContract.sol:MyContract",
								"label": "myString",
								"offset": 0,
								"slot": "1",
								"type": "t_string_storage"
							}
						],
						"numberOfBytes": "64"
					},
					"t_uint256": {
						"encoding": "inplace",
						"label": "uint256",
						"numberOfBytes": "32"
					}
				}
			},
			"userdoc": {
				"kind": "user",
				"methods": {},
				"version": 1
			}
		}
	}
}